:020000040100F9
:1000000020700020F5000001FD000001FF0000014C
:1000100000000000000000000000000000000000E0
:1000200000000000000000000000000001010001CD
:1000300000000000000000000301000105010001B4
:10004000070100010701000107010001070100018C
:10005000070100010701000107010001070100017C
:10006000070100010701000107010001070100016C
:10007000070100010701000107010001070100015C
:10008000070100010701000107010001070100014C
:10009000070100010701000107010001070100013C
:1000A000070100010701000107010001070100012C
:1000B0000507000107010001070100010701000118
:1000C0000348854600F05EF800480047010C000137
:1000D0002070002040BA7047C0BA70470138FDD187
:1000E0007047000040BA7047C0BA70470138FDD170
:1000F000704700000448804704480047FEE7FEE7D9
:10010000FEE7FEE7FEE7FEE769050001C10000012A
:1001100030B50B46014600202022012409E00D469F
:10012000D5409D4205D31D469540491B2546954027
:1001300040191546521E002DF1DC30BD03460B431D
:100140009B0703D009E008C9121F08C0042AFAD28D
:1001500003E00B780370401C491C521EF9D2704713
:10016000D2B201E00270401C491EFBD2704700224F
:10017000F6E710B513460A4604461946FFF7F0FFA6
:10018000204610BD064C0125064E05E0E36807CC6D
:100190002B430C3C98471034B442F7D3FFF794FF3D
:1001A000381B0001581B00010B680022002B56D0A1
:1001B000F0B401240B68944023424AD04B68022BD0
:1001C00001D0122B16D113070AD5456A5307DB0E4F
:1001D0000F269E40B5434E699E402E43466209E07D
:1001E000056A5307DB0E0F269E40B5434E699E40BD
:1001F0002E4306624B68012B05D0112B03D0022B36
:1002000001D0122B06D14568DB06DB0FA5439340D6
:100210002B4343600568530003279F400E79BD437D
:10022000B607B60F9E402E430660C5688E68BD4374
:100230009E402E43C66085680126A543CC68944045
:100240002C438460C46A9E400D69B4439D4025439D
:10025000C5620B68521CD340ABD1F0BC70477047ED
:1002600005490160002242600F2182604161012145
:100270000261C16070470000FF3F000010B4002120
:100280004156FF23CAB29207D40E4278A340920788
:10029000120EA24000290BDA0907090F08398C0851
:1002A0001049A4006118CC699C431443CC6107E059
:1002B0008C080D49A40061180C689C4314430C6021
:1002C000827801210078002A04D0C006C00E814047
:1002D000064803E0C006C00E81400548016010BC1E
:1002E0007047000000ED00E000E400E000E100E005
:1002F00080E100E070B5E2B004460521EFF310851F
:10030000012080F310880003221AC010824208D313
:100310000201A21A824204D303221203A21A8242C9
:100320000AD2FF2204AE8132064968460136FFF741
:1003300005FF2046B047014685F31088084662B0A5
:1003400070BD00002018000170B5D2B00446052130
:10035000EFF31085012080F310880003221AC010EB
:10036000824208D30201A21A824204D3032212035A
:10037000A21A82420AD2FF2212AE413206496846D0
:100380000136FFF7DBFE2046B047014685F31088B3
:10039000084652B070BD0000A0190001F7B5D2B0F8
:1003A000174604460521EFF31085012080F31088DD
:1003B0000003221AC010824208D30201A21A82420C
:1003C00004D303221203A21A82420CD2FF2204AEEB
:1003D0004132074968460136FFF7B0FE3A462046EB
:1003E0005399B047014685F31088084655B0F0BDD3
:1003F000B0110001F7B5FFB0054683B014460520E3
:10040000EFF31087012181F3108809030122691A93
:100410005202914208D31101691A914204D3032177
:100420000903691A91421DD204AE1149684601368A
:10043000FFF784FEFF200130844201D8224601E00C
:10044000FF22013228468399B04700280CD1FF21B2
:1004500001318C4206D9621A8399E81DF930FF31C7
:100460000131B04787F310887FB006B0F0BD0000BF
:100470002016000110B5EFF31084012181F31088DC
:10048000FF210906401803490968884784F310884A
:1004900010BD00000040002010B50848064901606A
:1004A0000749416007498160C9229200064907480F
:1004B000FFF744FE10BD0000F54000200040002082
:1004C000894100205D400020FC12000154400020C2
:1004D00010B5EFF31084012383F31088FF231B066C
:1004E000C018034B5B68984784F3108810BD000068
:1004F0000040002030B4164A516804231940154BBF
:1005000001D0042901D0036001E013490160516862
:10051000124B8906890F5B5C0168D94041605368C2
:100520000F4C5B055B0FE35C0D46DD408560536857
:100530009B045B0FE35CD940C160D16AC90601D559
:10054000084901E07D21C903016130BC704700000A
:10055000001002400090D0030048E801F0120001B2
:10056000F412000100093D00F0B54F4C83B0E06982
:1005700021040843E06181204C4D000628634C486B
:1005800068614C484C4928620322086892039043F2
:1005900008603421494800F099F8484B484F1869E1
:1005A000484E411C2AD0002828D0A9691A78490948
:1005B0004901D206D20E0A43AA612168EA13914387
:1005C000216021687F2212029143000208432060CB
:1005D0006068384360606068072109028843606092
:1005E000606830436060206A374908402062206AB2
:1005F000D96809020843206203B0F0BD6168204653
:10060000394361606268072109028A436260616858
:1006100031436160002102917D21C90001910021D7
:10062000009101687F2749044D0E016800240122D2
:10063000D2039143016016111B4908687F22120200
:1006400090432A0202430A600520FFF747FD01207C
:10065000FFF744FD1448406B800704D420460199FD
:10066000641C8842F3D91048C06B80B2B04201D9F3
:10067000811B00E0311AB04201D32F4600E0009503
:100680000098C019C005000EA84203D00546029884
:100690008142D1D804484168490849004160416815
:1006A0004907FCD403B0F0BD0010024000700040C8
:1006B0000F08000018000200001001402040002038
:1006C0000000010000040000FF00F8FFF0B5D1B009
:1006D0000D460646EFF31084FF2204AF413208496D
:1006E00068460137FFF72AFD012080F310882A466B
:1006F00031460003B84784F3108851B0F0BD0000C4
:10070000B011000138B5184C2021204600F060F8E7
:10071000002828D0204600F0A7F8154B134A196886
:1007200050541078AA281ED1491C1960FF291AD9E3
:100730000020A415186021460E48FFF718FD224638
:100740000A490C48FFF7FAFC012069460870014687
:10075000094A684600F0A0F8002804D0FF21074AA3
:10076000EB3100F03DFA38BD003801401055002053
:100770001C4000201C670020BD0D0001E41A000190
:1007800010B40B06CC065B0FE40E0121A140012B37
:1007900007D0022B07D01430002A026805D00A4384
:1007A00004E00C30F8E71030F6E78A43026010BC32
:1007B000704700000029818903D0012252031143B0
:1007C00001E0024A1140818170470000FFDF000014
:1007D0000246128800200A4200D001207047000023
:1007E00070B50446008A86B00D461B490840E9886A
:1007F00001432182A08919492A890840A988114307
:100800006A8902431143A181A08A15490840A98938
:100810000143A1826846FFF76DFE1248844201D170
:10082000039800E002982968192289005043FFF7D5
:100830006FFC06466421FFF76BFC05012809642163
:100840004843301A00013230FFF762FC0007000F06
:100850002843208106B070BDFFCF0000F3E90000FF
:10086000FFFC0000003801408088C005C00D7047C3
:10087000C905C90D8180704702E008C8121F08C170
:10088000002AFAD170477047002001E001C1121F11
:10089000002AFBD170470000F8B51B4E134677883D
:1008A0000C46B9422DD832787178B588A94201D268
:1008B000491C00E00021C9B2914222D071787278BF
:1008C000AA4201D2521C00E0002272700F4A9142EB
:1008D00017D0CD00B268002853510DD0002C0BD09A
:1008E000F26879438B18014622461846FFF726FC2A
:1008F000B0682818848002E00020A91888800020B1
:10090000F8BD0120F8BD00000C400020FFFF0000F2
:1009100010B50E4C20786178814216D0217860881D
:10092000E26848438018A368CA00D1189A58898899
:1009300090472078A188884201D2401C00E0002026
:100940002070207861788142E8D110BD0C400020F1
:1009500010B4CB0008339CB2930702D010BC012026
:100960007047064B9A601219DA6000225A701A70AA
:100970005880998010BC1046704700000C40002041
:10098000421C01D10020704730B4214A53694024F1
:10099000234353611F4C0122A2608B0700229B0F4F
:1009A000012B04D0022B08D0032B1BD10FE01A4AD5
:1009B000226002782260012214E0184A2260427804
:1009C000037812021A4352BA226002220AE0144A41
:1009D00022600278437812041B021A4383781A4378
:1009E000226003228A4210D2835C521C855C1B0267
:1009F0002B43521C855C1B022B431B02521C855C43
:100A00002B432360521C8A42EED3206830BC7047CF
:100A100000100240003002409D9EA56A0ACD469714
:100A2000D02160CC70B500240546002807D97D266A
:100A300076013046FFF75AFB641CAC42F9D370BD17
:100A40000648C168064A1143C160C26805490A40A8
:100A5000C26082690A408261704700000010024053
:100A60000D400000F2BFFFFF10B501210148FFF764
:100A7000A1FE10BD0038014008B51C206946087071
:100A800000204870012088706846FFF7F7FB0122BC
:100A900002490348FFF774FE08BD00002505000069
:100AA0000038014070B505464C1E601C1CD00F4E2E
:100AB00020213046FFF78CFE002813D03046FFF788
:100AC000D3FEA8420ED10A20FFF708FB8021304652
:100AD000FFF77EFE0128F9D179213046FFF7C8FEE5
:100AE000012070BD641EE3D2002070BD00380140BB
:100AF000F3B52B4987B08A690C273A438A618A6922
:100B000001239B031A438A6104466846FFF7A8FB4A
:100B1000204610210226202400250028019600915D
:100B200032D069461F480595FFF73EFB059569469B
:100B30001C480094FFF738FB0424019640200594DC
:100B4000194E009069463046FFF72EFB8020059431
:100B5000009069463046FFF727FB144C00212046E1
:100B6000FFF728FE0898009068468580C5800581BB
:100B70008581478169462046FFF732FE01212046E4
:100B8000FFF718FE09B0F0BD032669460548059633
:100B9000FFF70AFB0596694602480094DBE7000070
:100BA0000010024000080140000C014000380140E4
:100BB000F8B500240D46064600290DD9074F8021BF
:100BC0003846FFF705FE0128F9D1315D3846FFF7B9
:100BD0004FFE641CAC42F2D3F8BD00000038014067
:100BE00018B401236C4689B22370044B1860596015
:100BF0009A6020780028FCD118BC7047045500206A
:100C0000494C00202146FFF773FF484E7F203146B4
:100C1000FFF748FF002879D1E1256D022946FFF74B
:100C200067FF31467F20FFF73DFF00286ED1214648
:100C30000120FFF75DFF31467F20FFF733FF0028DB
:100C400064D129460120FFF753FF31467F20FFF78B
:100C500029FF00285AD1364DBC21281DFFF790FEF0
:100C60002968884252D1686801284FD0A8690128B4
:100C70000BD13049A868884207D1E968FFF780FEA8
:100C80002969884221D1AC681DE0286C01280CD16B
:100C90008121286B4904884207D1696BFFF770FEF8
:100CA000A96B884211D12C6B0DE0A86E01280CD1E4
:100CB0002149A86D884208D1E96DFFF761FE296ED0
:100CC000884202D1AC6D002C1BD1E968A868FFF7FF
:100CD00057FE2969884201D1AC6810E0696B286B26
:100CE000FFF74EFEA96B884201D12C6B07E0E96D3E
:100CF000A86DFFF745FE296E884207D1AC6D002C28
:100D000004D0FFF79DFE204600F01AF810210B4A90
:100D10000801FFF71DFE00F019F8FFF7F9FD20BFED
:100D200040BF20BFF9E7000040420F00FF6F000006
:100D3000002000010040000100C003017C430020AE
:100D40004168006880F3088808470000F0B5B1B03A
:100D5000FFF7A2FB174CBC21201DFFF711FE2168F5
:100D6000884220D1606801281DD1134C851E6F4632
:100D7000261DC0220F496846FFF7E0F9BC21381D47
:100D80000195FFF7FDFD00902046FFF773FBC022A1
:100D900069462046FFF79CFBBC213046FFF7F0FD7B
:100DA00000998842E5D1FFF767FEFFF75DFE31B09D
:100DB000F0BD00000020000100200001F0B5007827
:100DC000FFB084B001287DD1D5490878AA2879D10F
:100DD0004C780C2C76D22000784400790018874497
:100DE00071050A253C74CCE1E7FDFCFBCDA0006851
:100DF0000221009062E100243C22CB48891CFFF7CD
:100E00009DF9C94D3821281DFFF7BAFD2968884290
:100E100000D00124C5496868884200D20124C4A0DA
:100E20000068009068468470032148E1C1480023AF
:100E30000360C248C049C2890A80028A4A80428A45
:100E40008A80828ACA80C28A0A81028B4A81BCA0B7
:100E5000006800906846837033E0B64D0E468A788D
:100E6000B849286800244018F11CFFF767F9B178E9
:100E70002868401828604035696888421CD3B1480A
:100E8000FFF77EFDA968884215D1A74E29687068D2
:100E90004018FFF7EFFA706829686A684018A94996
:100EA000FFF716FB7068296840186968FFF768FD4E
:100EB000A968884200D00124A3A000680090684679
:100EC000847000E0FDE00321F9E0974F0024B96849
:100ED0007868FFF755FDFD68A8424CD1C0229B49B8
:100EE0009B48FFF72BF99A4E601EB0613064B066E4
:100EF000706098497868884208D1B160B868F0603D
:100F00003869356170610120B06117E081214904C1
:100F1000884208D13163B86870633869B563F0639B
:100F2000012030640AE08C49884224D1B165B86858
:100F3000F0653869356670660120B066BC21301DE9
:100F4000FFF71EFD794D30602846FFF793FAC02267
:100F50007F492846FFF7BCFABC21281DFFF710FD8A
:100F60003168884200D002247CA000680090684666
:100F700084700321A3E00124F6E779A109680091B8
:100F80000020694688700321684600F0FBF8642061
:100F9000FFF748FDBFF34F8F73497248C860BFF336
:100FA0004F8FFEE771A0006800900221684686E03E
:100FB0000020009001900290FC2104AD05A8FFF7ED
:100FC000D6F86B48FF2100680490681CFFF7CFF843
:100FD0006A465474594802E08AE075E02AE0C18903
:100FE0001180018A5180418A9180818AD180C18A91
:100FF0001181018B51810198F02801D9012413E05E
:1010000007A9024603310E460098FFF7C7F9040608
:10101000240E09D130460199FFF7B2FC02900C2250
:101020006946E81CFFF78AF868468474FF2101319D
:1010300004A844E04148C289018A15460904428A4D
:101040000D431146828A120411430C46C18A028B59
:101050000E4610040643474821460746FFF790FC1A
:10106000864224D1F02C01D9012021E02E46072010
:10107000000306402D0501222D0D520202A9304623
:10108000FFF78CF9002810D13046FFF733F900281C
:101090000BD102A8401922463946FFF74FF801222A
:1010A000520202A93046FFF7A5F9C0B200E00220C3
:1010B00031A109680091694688700321684600F0F3
:1010C00061F87FB004B0F0BD1C49CA89098A104696
:1010D00009040843FFF70EF928A109680091694641
:1010E00088700321684600F04DF87FB004B0F0BD71
:1010F0001249CA89098A10460904084307210903CD
:101100000840FFF721F91EA109680091694688701F
:101110000321684600F036F87FB004B0F0BD00004F
:101120001C670020AA0100001466002000200001B6
:10113000AA02000010660020506600201067002000
:10114000AA03000010560020AA040000002000019D
:101150005C6600200040000100C00301AA050000F9
:10116000AA0600000400FA0500ED00E0AA0700004E
:10117000E01A00012A670020AA090000AA0A00005C
:10118000AA0B000070B5FF24C0B00D46064601341E
:1011900021466846FEF7EBFF2A4631466846FEF7D1
:1011A000CDFF21466846FFF703FD002040B070BD2B
:1011B00040BA7047C0BA70470138FDD1704700008F
:1011C000F7B50325AD06286A82B016460C464008DE
:1011D00040002862286A022108432862286A8007A2
:1011E000FCD46620686001272F61A86AC005FCD581
:1011F000992068602F61A86AC005FCD5FF20913056
:10120000FFF7DAFFFF230133AB626846EF60352159
:1012100069602F61A96AC905FCD5AB62A969EF6055
:10122000C9B205226A602F61AA6AD205FCD5AB62F9
:10123000AA690902D2B211430180C80702D0032073
:1012400005B0F0BDAB626869FF2108318843686171
:101250006869C91E084368610298000248306860E6
:101260000820A860EE602F61A86AC005FCD5FF20A9
:101270000130A8620023F61CB0080ED0B208114855
:10128000006899006054060A09194E70060C000E99
:101290008E705B1CC8709A42F1D8FF200130A862A2
:1012A0006869FF210831884368616869384368616B
:1012B000286A800880002862286A38432862002053
:1012C00005B0F0BD8000000C032080064169FF22BC
:1012D000083291434161426901210A434261026A35
:1012E000920892000262026A0A430262704700009A
:1012F0000000010200000000010203040138FDD1DA
:1013000070470000F0B40324A406236A5B085B0066
:101310002362236A02252B432362236A9B07FCD4A2
:10132000FF230133A3626569DE1DB543656165690D
:101330001E1D3543656100026B3060600820A060AF
:10134000E26001262661A06AC005FCD5A3620023E5
:10135000D21C90080ED095080F4800689A00885457
:10136000070A52185770070C000E97705B1CD0705C
:101370009D42F1D86069FF2108318843606160694E
:1013800030436061206A800880002062206A304318
:101390002062F0BC002070478000000CF8B50646C3
:1013A00001200025C004864201D90520F8BD032490
:1013B000A406206A400840002062206A02210843F7
:1013C0002062206A8007FCD4FF270137A76200F063
:1013D000BBF8002801D0032515E00620606001213C
:1013E0002161A06AC005FCD5A76230022030606090
:1013F0002161A06AC005FCD5A7620C4800F0C8F8BE
:10140000002800D102256069FF210831884360610E
:101410006069012108436061206A800880002062C1
:10142000206A084320622846F8BD0000E6960100C5
:10143000F7B506460120C00482B01546864202D99F
:10144000052005B0F0BD03208006016A4908490067
:101450000162016A022211430162016A8907FCD418
:10146000FF2101318162F2B28C1AA54200D8ACB2E0
:101470000398009000F068F8002840D10621480643
:10148000416001210161816AC905FCD5FF2101315B
:101490000320800681624169FF2208329143416145
:1014A0004169042211434161310232314160C4601B
:1014B0000022002C16D9009887183B78F878194636
:1014C0007B7800061B021943BB781B0419430143B8
:1014D0000802F978000A0906084319490860121D34
:1014E000A242E8D30121032080060161816AC90577
:1014F000FCD5FF2101318162124800F049F8A54274
:1015000009D00398361900192D1BFF2401340390CC
:10151000A542ADD8ABE7032080064169FF2208321F
:10152000914341614169012211434161016A890886
:1015300089000162016A11430162002005B0F0BD1B
:101540008000000C1A06000038B401250320800634
:101550006A46C560352141600561816AC905FCD5CF
:10156000FF24013484628169C560CBB205214160EA
:101570000561816AC905FCD5846280691902C0B21F
:10158000014388B21180C00700D0012038BC7047E9
:10159000F8B400210125032292066B46D56035245C
:1015A00054601561946AE405FCD5FF270137976202
:1015B0009469D560E4B2052656601561966AF60511
:1015C000FCD5976296692402F6B234431C80E30787
:1015D00022D0814202D9F8BC002070470322920633
:1015E0006B46D560352454601561491C946AE40546
:1015F000FCD597629469D560E4B205265660156102
:10160000966AF605FCD5976292692402D2B2144319
:10161000A2B21C80D207DCD1F8BC012070470000C8
:1016200040BA7047C0BA70470138FDD1704700001A
:10163000F7B50326B606306A82B015460F46400855
:1016400040003062306A022108433062306A80070D
:10165000FCD46620706001243461B06AC005FCD5FA
:10166000992070603461B06AC005FCD5FF209130CC
:10167000FFF7DAFFFF200130B06200F099F8002890
:1016800002D0032005B0F0BDFF210131B162062078
:10169000706001203061B06AC005FCD5FF200130C8
:1016A000B062B0627169C01D8143716170690421CB
:1016B000084370610298000242307060F5600024B7
:1016C000002D18D93B191A78D97810465A7809068E
:1016D000120210439A781204104308430002D9788A
:1016E000000A09060843304908606420FFF79CFFA0
:1016F000241DAC42E6D301213161B06AC005FCD59E
:10170000FF250135B562294F00206A46F160352377
:1017100073603161B36ADB05FCD5B562B369012141
:10172000DBB2F16005247460316131468E6AF605E2
:10173000FCD58D628E691B02F6B233431380DA0743
:101740001ED0B84201D902201BE001266A46CE60B5
:1017500035234B600E61401C8B6ADB05FCD58D6226
:101760008B69CE60DBB24C600E618E6AF605FCD5EB
:101770008D628E691B02F6B233431380DA07E0D123
:1017800000208D624A69FF2308339A434A614B69FE
:10179000012213434B610B6A9B089B000B620B6A8F
:1017A00013430B6205B0F0BD8000000C1A06000068
:1017B00038B40125032080066A46C56035214160A2
:1017C0000561816AC905FCD5FF2401348462816901
:1017D000C560CBB2052141600561816AC905FCD5B0
:1017E000846280691902C0B2014388B21180C007C7
:1017F00000D0012038BC7047032080064169FF22D9
:10180000083291434161426901210A434261026AFF
:10181000920892000262026A0A4302627047000064
:1018200040BA7047C0BA70470138FDD17047000018
:10183000F8B503260746B606306A40084000306215
:10184000306A022108433062306A8007FCD4662087
:10185000706001243461B06AC005FCD599207060C5
:101860003461B06AC005FCD5FF209130FFF7DCFF82
:10187000FF250135B562A803874201D90520F8BDCF
:101880006846F460352171603461B16AC905FCD5E0
:10189000B562B169F460CAB2052373603461B16A9C
:1018A000C905FCD5B5621102B269D2B211430180FB
:1018B000C807E5D10620314670603461886AC005EA
:1018C000FCD58D623802443048600C61886AC005DE
:1018D000FCD58D62274F00206A46CC6035234B60D3
:1018E0000C618B6ADB05FCD58D628B690126DBB24E
:1018F000CE6005244C600E618E6AF605FCD58D62C3
:101900008E691B02F6B233431380DA071ED0B84249
:1019100001D902201BE001266A46CE6035234B60C8
:101920000E61401C8B6ADB05FCD58D628B69CE6035
:10193000DBB24C600E618E6AF605FCD58D628E6955
:101940001B02F6B233431380DA07E0D100208D6228
:101950004A69FF2308339A434A614A6901231A43BB
:101960004A610A6A920892000A620A6A1A430A6283
:10197000F8BD0000E6960100032080064169FF22C1
:10198000083291434161426901210A434261026A7E
:10199000920892000262026A0A43026270470000E3
:1019A00040BA7047C0BA704730B401250321890698
:1019B000CD6035224A600D618A6AD205FCD5FF24CC
:1019C00001348C628A69CD60D3B205224A600D6110
:1019D0008A6AD205FCD58C6289691A02C9B20A43A7
:1019E000028030BC00207047F0B503240646A406F0
:1019F000206A83B0400840002062206A0221084328
:101A00002062206A8007FCD4FF250135A5620127EA
:101A100001A8FFF7C9FF68468088C007F8D1A56212
:101A2000694608806846FFF7BFFFA56269460888D7
:101A3000310B3E460A318E40064301A8FFF7B4FF42
:101A400068468088C007F8D1A562062060602761DB
:101A5000A06AC005FCD5A5626069FF2108318843F2
:101A60006061606904210843606167600220E06092
:101A7000194806602761A06AC005FCD5FF20013027
:101A8000A062164E002501A8FFF78EFF68468088E9
:101A9000C00702D10CE002200BE001A86D1CFFF78B
:101AA00083FF68468088C00702D0B542F5D9F2E7C7
:101AB0000020FF210131A1626269C91D8A43626170
:101AC000616939436161216A890889002162216A5B
:101AD0003943216203B0F0BD8000000C58140000AF
:101AE000AA0000002E2E5C2E2E5C2E2E5C2E2E5C6C
:101AF0002E2E5C6D6964646C6577617265735C4EF3
:101B00006174696F6E73746563685C626C655F6C49
:101B10006962726172795C6E735F6C696272617224
:101B2000795C6466755C6E735F6466755F7365721D
:101B300069616C2E63000000581B0001004000200A
:101B40002000000078080001781B000120400020E0
:101B500000300000880800010000000000000000C4
:101B60000000000000000000000000000000000075
:081B700000000000000000006D
:10200000EB203A03FFFFFFFF00400001F08C0000CF
:1020100081505EF70100000001000000FFFFFFFF9C
:10202000FFFFFFFFFFFFFFFFFFFFFFFFFFFFFFFFC0
:10203000FFFFFFFFFFFFFFFFFFFFFFFFFFFFFFFFB0
:10204000FFFFFFFFFFFFFFFFFFFFFFFFFFFFFFFFA0
:10205000FFFFFFFFFFFFFFFFFFFFFFFFFFFFFFFF90
:10206000FFFFFFFFFFFFFFFFFFFFFFFFFFFFFFFF80
:10207000FFFFFFFFFFFFFFFFFFFFFFFFFFFFFFFF70
:10208000AE1C41A5F435DD3D89C800D80F8D2AC2AC
:10209000633A0237245D2DDBF046A16A5E43264495
:1020A00073207D1686EA416BA38D0D60DA61CD98B1
:1020B00053D522A5146AEE64BBB47E4039A6B52977
:1040000040590020F9400001014100010341000135
:1040100000000000000000000000000000000000A0
:104020000000000000000000000000000541000149
:1040300000000000000000000741000109410001EC
:104040000B4100010B4100010B4100010B4100013C
:104050000B4100010B4100010B4100010B4100012C
:104060000B4100010B4100010B4100010B4100011C
:104070000B4100010B4100010B4100010B4100010C
:104080000B4100010B4100010B4100010B410001FC
:104090000B4100010B4100010B4100010B410001EC
:1040A0000B4100010B4100010B4100010B410001DC
:1040B0000B4100010B4100010B4100010B410001CC
:1040C0000448854600F0BAF900480047A97300018A
:1040D000C046C0464059002040BA7047C0BA704739
:1040E0000138FDD17047000040BA7047C0BA704730
:1040F0000138FDD17047000004488047044800475C
:10410000FEE7FEE7FEE7FEE7FEE7FEE79549000172
:10411000C140000130B50B46014600202022012499
:1041200009E00D46D5409D4205D31D469540491BEB
:104130002546954040191546521E002DF1DC30BD34
:10414000F0B51FB40646002082B005464024019118
:1041500000901BE0019922460F46304600F01BF903
:10416000049A059B801A994110D31046194622469D
:1041700000F001F9361A8F410197224601200021F3
:10418000009F00F0F8F838184D4100902046641E5A
:104190000028DFDC019B00982946324607B0F0BDBD
:1041A0000549064A08685043054A801808604008D7
:1041B0007047014908607047E04100206D4EC641DC
:1041C0003930000003460B439B0703D009E008C9C0
:1041D000121F08C0042AFAD203E00B780370401CB7
:1041E000491C521EF9D27047D2B201E00270401C45
:1041F000491EFBD270470022F6E710B513460A4667
:1042000004461946FFF7F0FF204610BD30B50446BE
:104210000020034600E05B1C934203D2E05CCD5CCF
:10422000401BF8D030BD024670B54A40D30FDB07C3
:1042300040002DD04A002AD0010E140E00021202B6
:104240000919400A520A8418E50104465443000A39
:10425000120A2E045043A4194219200CC543AA186F
:10426000120C0125AD03521C521912047F3924048B
:1042700000D0521C104301D44000491EC2B20C06AB
:10428000C0092018401C4008802A02D003E000200A
:1042900070BD40084000002900DA0020184370BDBE
:1042A00070B502464A40D50F40004A00ED0740086D
:1042B0005208002814D0002A12D0C40DD30D410298
:1042C0000120C0055202490A520AE41A09181218BC
:1042D0007D34914201D3641C00E04900002C01DAD6
:1042E000002070BD0023914201D3891A0343400886
:1042F00049000028F7D100290AD0914202D10121BA
:10430000C90705E0914201D2012101E00121C94321
:10431000E005C018401900F04FF870BD10B500223C
:104320009623114600F050F810BD10B504469623B0
:104330000800214604D0B623002200F045F810BD45
:1043400020460021F8E741000A0E40020121400A00
:10435000C90510B540187F2A02DA0020014610BDB9
:104360000021962A03DC96239A1AD04010BD963A73
:1043700000F001F810BD10B5202A04DB0146203AF8
:104380009140002010BD914020239C1A0346E34039
:104390001943904010BD10B5202A04DB0846203A8E
:1043A000D040002110BD0B46D340D0402024A21A9B
:1043B00091400843194610BD002904DA401C490009
:1043C00001D140084000704770B40024050C05D1AD
:1043D0001024000402D1002921D01124050E01D19E
:1043E00000020834050F01D10001241D850F01D101
:1043F0008000A41C002801DB4000641C002908D0B8
:1044000020252E1B0D46F540A14000D00121294357
:10441000084301061B1B000ADB1D02D5002070BCEF
:104420007047DB05181880180029F8DA401C49008D
:10443000F5D170BC4008400070470000064C0125D3
:10444000064E05E0E36807CC2B430C3C984710343C
:10445000B442F7D3FFF738FE30B8000150B800017E
:1044600070B58C180578401C6B075B0F01D1037881
:10447000401C2A1106D10278401C03E006780E7019
:10448000401C491C5B1EF9D12B0705D40023521E8A
:104490000DD40B70491CFAE70378401CCB1A921C10
:1044A00003E01D780D70491C5B1C521EF9D5A1421A
:1044B000D8D3002070BD000003B40148019001BDB5
:1044C000232A000003B40148019001BDAF7F000022
:1044D00003B40148019001BDB551000003B4014887
:1044E000019001BDD37E000003B40148019001BDDD
:1044F000697E000003B40148019001BDC37F000044
:1045000003B40148019001BD7910000003B40148D3
:10451000019001BD9957000003B40148019001BD0D
:104520006D56000003B40148019001BDED57000035
:1045300003B40148019001BDE954000003B40148EF
:10454000019001BD1D7C000003B40148019001BD34
:10455000AB52000003B40148019001BDF58F00008B
:1045600003B40148019001BDB143000003B4014808
:10457000019001BD85290000014948617047000094
:1045800000040140054B002219685B6901400342A9
:1045900002D0002900D001221046704700040140DB
:1045A00010B4837919490268002B28D00B68934313
:1045B0000B604A6803689A434A600279521813688C
:1045C0000468234313608A6803689A438A60CA6850
:1045D00003689A43CA604279102A06D051180A68C3
:1045E000006802430A6010BC70478A6803681A4377
:1045F0008A60CA6800680243CA6010BC70470079CC
:10460000401801689143016010BC704700040140EC
:104610000B680022002B56D0F0B401240B689440A4
:1046200023424AD04B68022B01D0122B16D113071C
:104630000AD5456A5307DB0E0F269E40B5434E69E7
:104640009E402E43466209E0056A5307DB0E0F26A3
:104650009E40B5434E699E402E4306624B68012B37
:1046600005D0112B03D0022B01D0122B06D14568A7
:10467000DB06DB0FA54393402B43436005685300E3
:1046800003279F400E79BD43B607B60F9E402E43C9
:104690000660C5688E68BD439E402E43C66085682F
:1046A0000126A543CC6894402C438460C46A9E4094
:1046B0000D69B4439D402543C5620B68521CD3402D
:1046C000ABD1F0BC704770470549016000224260E1
:1046D0000F218260416101210261C16070470000C9
:1046E000FF3F00008162704742694A404261704763
:1046F000018070470549884207D10548026A0104D4
:104700000A430262026A8A4302627047004800401C
:10471000001002400246128800200A4200D0012008
:1047200070470000F0B50546008989B00E460024A8
:104730002C49F2880840B1887389114332891A43A1
:10474000114301432981284885420AD1002000F005
:10475000FFF801218906CF12884206D023498842FA
:1047600003D001A800F0BAF8039F31683846FFF77C
:10477000D1FC0A2808D80122298992038904890CCE
:1047800029812989114304E029898904890C298117
:1047900029892981A881366838463146FFF7BAFC55
:1047A0000846134948433146FFF7B4FC00260790FA
:1047B00000900799069040180D490090FFF7AAFC59
:1047C00007460B490698FFF7A5FC874202D0012057
:1047D000A0400643641C082C01D20098E9E72E751E
:1047E00009B0F0BDF4700000004800402000000453
:1047F000102700000174704710B5EFF310840121F9
:1048000081F31088FF210906401803490968884789
:1048100084F3108810BD00000040002010B5084847
:10482000064901600749416007498160C922920039
:1048300006490748FFF7C6FC10BD0000B94200203A
:10484000004000204D430020214200202CA8000100
:104850001842002010B5EFF31084012383F3108871
:10486000FF231B06C018034B5B68984784F310882E
:1048700010BD000000400020002808D10448026A52
:1048800001239B069A430262026A0A43026270474E
:1048900000100240044A0029516901D0014300E0A0
:1048A000814351617047000000100240044A002912
:1048B000916901D0014300E081439161704700009C
:1048C000001002400449CA030128086A02D090433C
:1048D000086270471043FBE70010024030B4164AEC
:1048E000516804231940154B01D0042901D00360FD
:1048F00001E0134901605168124B8906890F5B5C26
:104900000168D940416053680F4C5B055B0FE35C65
:104910000D46DD40856053689B045B0FE35CD94026
:10492000C160D16AC90601D5084901E07D21C903EA
:10493000016130BC70470000001002400090D003BD
:104940000048E80120A8000124A8000100093D005A
:104950000248006A02490840704700000010024007
:104960002000000410B5094C2069411C01D000282A
:1049700008D13421054800F0BFF82069411C03D05C
:10498000002801D0024810BD002010BDE4410020E5
:104990000D420020F0B54F4C83B0E069210408437C
:1049A000E06181204C4D000628634C4868614C480A
:1049B0004C4928620322086892039043086034211E
:1049C000494800F099F8484B484F1869484E411C37
:1049D0002AD0002828D0A9691A7849094901D206A5
:1049E000D20E0A43AA612168EA139143216021682B
:1049F0007F2212029143000208432060606838431E
:104A00006060606807210902884360606068304325
:104A10006060206A374908402062206AD96809022C
:104A20000843206203B0F0BD6168204639436160ED
:104A30006268072109028A436260616831436160EC
:104A4000002102917D21C90001910021009101689E
:104A50007F2749044D0E016800240122D2039143AF
:104A6000016016111B4908687F22120290432A0236
:104A700002430A600520FFF733FB0120FFF730FBFC
:104A80001448406B800704D420460199641C884276
:104A9000F3D91048C06B80B2B04201D9811B00E04D
:104AA000311AB04201D32F4600E000950098C0199A
:104AB000C005000EA84203D0054602988142D1D815
:104AC0000448416849084900416041684907FCD4ED
:104AD00003B0F0BD00100240007000400F0800005D
:104AE0001800020000100140E44100200000010015
:104AF00000040000FF00F8FFF0B5D1B00D460646F7
:104B0000EFF31084FF2204AF4132084968460137B1
:104B1000FFF758FB012080F310882A463146000336
:104B2000B84784F3108851B0F0BD0000E0A6000142
:104B3000FFB58BB0149C00251E46074665570246FC
:104B4000009502A8231D0D9905F0DAFB02A8014685
:104B500023460A4605F0C4FB3946234602AA084606
:104B600005F0BEFB0D99234602AA084605F0B8FBE6
:104B70003146231D009508460C9A05F0C1FB3246CC
:104B800002A82346114605F0ABFB02A9231D3A46B5
:104B90000846009505F0B4FB02A9231D00950846C0
:104BA0000D9A05F0ADFB0D99231D3A460095084678
:104BB00005F0A6FB0C99234608460D9A05F090FBDC
:104BC000231D02AA394600950D9805F099FB314640
:104BD000234608460D9A05F083FB3146231D0095B8
:104BE00008460C9A05F08CFB2A4602A90D9805F0A0
:104BF00044FC0FB0F0BD00000FB410B503A9044B86
:104C0000044A029800F022F810BC08BC04B018470F
:104C1000E55E0001C4010020F0B404148BB2264606
:104C200082B25E430D14104637145843360480197F
:104C30000021794116466E433714360480197941B4
:104C400026466E438919F0BC70470000FFB591B04D
:104C50000F460546002606E025280AD0149A139927
:104C600090476D1C761C28780028F5D1304615B089
:104C7000F0BD002400940121F34A029400E00443B3
:104C80006D1C2B780846203B98401042F7D12878BD
:104C90002A280ED00222287801463039092915D851
:104CA00000990A2359433039401814436D1C009071
:104CB000F1E701CF0090002805DA0120400304430A
:104CC000009840420090022004436D1C28782E2852
:104CD00015D10420044368786D1C2A280AD101CF1D
:104CE0006D1C02900BE002990A22514330394018A2
:104CF0006D1C02902878014630390929F3D92878AB
:104D00006C2810D006DC4C281AD068280ED06A28EF
:104D100017D104E0742813D07A2812D110E00120B2
:104D2000400504430CE00121090501E003210905C8
:104D30000C436978814203D10120000524186D1CC1
:104D40006D1C28786E281ED00CDC632831D004DC62
:104D500000288BD0582811D1B2E064287BD0692874
:104D60000CD178E073282DD004DC6F2870D0702827
:104D700004D1A7E075286CD078286BD0149A1399C9
:104D80009047761C62E06002400F022807D003289B
:104D90000AD0042838680AD006603F1D56E03868FB
:104DA000F11706604160F8E738680680F5E706709D
:104DB000F3E73878694608740020487404A8039023
:104DC000012003E0386803900020C0433F1D6107C5
:104DD0000FD5002101E00199491C029A01919142ED
:104DE00013DA8142F7DB019A0399895C0029F2D139
:104DF0000BE0002101E00199491C01918142FADB9D
:104E0000019A0399895C0029F5D101990098139AB8
:104E1000401A00902146149B00F03CF9019980193A
:104E2000461807E0039803990078491C0391149AE7
:104E3000139990470198401E0190401CF2D12146E1
:104E4000149B139A009800F015F986196D1C0AE757
:104E500041E033E034E00A20002104900591600233
:104E6000410F022905D001CFC2179446032905D06E
:104E700007E0FF1DFF08FF0003CF06E000B2C217E6
:104E80009446042902D140B2C1178C4600226146E3
:104E9000944506DA0A460021404291418C462D2174
:104EA00002E0210504D52B216A461176012103E099
:104EB000E10701D02021F7E7019155E00A200BE03E
:104EC000102009E010200490002104200443082051
:104ED0000591029003E008200021059104906002F2
:104EE000410F022905D001CF00229446032906D0A4
:104EF00006E0FF1DFF08FF0003CF8C4603E080B2F1
:104F0000042900D1C0B20021019121072CD52978B4
:104F10000391702906D0049A1021059B4A401A4338
:104F200005D00EE040216A461176012108E0614675
:104F3000014306D030216A46117603995176022149
:104F40000191049A0821059B4A401A430CD16146FD
:104F5000014301D1610707D530216A46117601214D
:104F600001910299491E02912978582904D037A14C
:104F700003910FA90F910DE039A1F9E76146059B57
:104F8000049AFFF7DDF8039B8C469B5C0F9A521E38
:104F90000F92137061460143F0D10F9807A9081AC8
:104FA00020300390600704D5012000048443029858
:104FB00001E0012002900399884201DD401A00E0DF
:104FC000002041180290019809180098401A00909A
:104FD000E00306D42146149B139A009800F05AF877
:104FE00086190020049008E006A9085C149A139919
:104FF00090470498401C761C049001998842F3DB8A
:10500000E0030CD52146149B139A009800F042F857
:10501000861904E0149A302013999047761C02995F
:10502000481E02900029F5DC08E00F980F990078DF
:10503000491C0F91149A13999047761C0399481EA6
:1050400003900029F1DCFAE60928010030313233FF
:1050500034353637383961626364656600000000B4
:10506000303132333435363738394142434445469E
:1050700000000000F8B5044600251E4617468804C7
:1050800004D405E039462020B0476D1C641EF9D5D4
:105090002846F8BDFFB50446002581B01E46C8036A
:1050A00001D5302700E02027880404D505E03846E4
:1050B0000399B0476D1C641EF9D5284605B0F0BDB4
:1050C00000B599B060216846FFF795F8042008AA5A
:1050D000D07012A0006801900B2010AAD070024678
:1050E00010A109A8FFF76EF8002010AA1071012185
:1050F0005171D071917190731175D082A02010837D
:105100009176B420908319208001D08308480090C4
:10511000684602F01FFB19B000BD000003160A1814
:10512000000000000AFFFFFF4E6174696F6E73009C
:10513000355100017047000010B58CB00024009478
:10514000019402940394049405940694079408949B
:1051500009940A94FFF706FC002804D0014601A830
:10516000FFF7AAF907E011A001886A4691804188FB
:10517000D180808810816946CC704C810A2088706B
:1051800007220A7303A80BA10130FFF71BF80620C2
:105190006946088418224A848884FF20F530C88430
:1051A0000C85684602F098FB0CB010BD892277444C
:1051B000556600004E4154494F4E530000B583B030
:1051C0000D4900910D490020019102906946087235
:1051D000684602F0BDFCFFF7AFFF00F02FF8FFF7C5
:1051E0006FFF074802F022FA064802F01FFA02F0A9
:1051F000D5FA03B000BD000009520001B15700010B
:1052000081530001A955000110B50078012806D08E
:10521000022803D0032801D102F0C0FA10BD02A079
:10522000FFF7EAFC10BD00004150505F424C455F63
:105230004F535F52454144590D0A000000B587B0F5
:10524000002001900090039004906A46069010732D
:105250000C49029105219170032313701023D37020
:10526000507010710123537190715073064805906E
:105270007D20917300011082104603F0A5FE07B057
:1052800000BD000040E2010000B0030110B502487B
:1052900002F0BEFE002010BD2C4800202F480079EF
:1052A00000285AD1F8B56D202C2303220721400194
:1052B00012F442D4A0210446017029480027C17885
:1052C000617027710321E1806772012666710721F1
:1052D000244D2177A9796177687B002803D0E78086
:1052E000032060710EE0E87900280BD0A87902282D
:1052F00000D166772671E6802046A979203041707A
:105300008670077015488079022804D0032815D0CC
:1053100004281BD116E003F049FE00280BD005201D
:10532000E0806771688A6061688AA06120460A30FF
:1053300002F0E0FE0AE0094903208871288B6061D1
:10534000288B02E0E88B6061E88BA061034806715E
:105350004671204612F42CD4F8BD704788470020CF
:105360000C48002078480020BFF34F8F03490248C3
:10537000C860BFF34F8FFEE70400FA0500ED00E0C0
:1053800010B584B00A2303220721104812F4D4D3A5
:105390001B2101700021417014244480032282806B
:1053A000C1800B4A028112F403D468460480094884
:1053B0000190684602F094FB684604810648039019
:1053C00002A803F089FF04B010BD00001B0D00000F
:1053D000FF01000010B80001815A0001FFB585B03F
:1053E000054602A800901C462846069903F090FE48
:1053F0006846007A002866D006980090280A334A4A
:10540000019403900E2826D0314800240178002909
:1054100051D92F48E1000818828803998A4240D167
:10542000009A81689646019A284694460A7912069F
:10543000120E36D00968254BD700083FCE193788A1
:105440007668BFB2874201D09F4226D163460322CD
:105450007146B04725E01F49681809282BD80098E5
:105460001D49844608792E4600062346000E1ED0AC
:10547000C4000F68083C3C1927886468BFB2B74273
:1054800001D0974204D1032261462846A0470EE08E
:10549000401E0006000EEBD109E0521E1206120E4D
:1054A000CAD10B48641C0078E4B2A042B1D8684667
:1054B000007A002807D00948426C002A02D028460A
:1054C00006999047002009B0F0BD0000FFFF0000E2
:1054D00034470020EEF1FFFF48B10001884700206B
:1054E00010B502F05BFD04480169002901D00420D9
:1054F0008847002010BD00009848002070B5224C5D
:10550000606B224DC00722D0A06B21497E22096822
:105510005143401A2988491E29804B21C90040184F
:105520001C49884213D300202880206A400840008C
:105530002062194908680204930F184A01D0904369
:1055400000E0104308601648007802F06DFA2988E0
:1055500001200029216B07D001432163052203218B
:10556000104812F4ABD50DE0FF22120291432163E3
:10557000216B0522920211432163216B01432163B8
:1055800003F0BCFD002070BD00100240344100203B
:105590008C000020B10400000010014000C0000099
:1055A00008480020010F000010B584B0FFF736F95D
:1055B000182303220721104812F4BED21B210170C8
:1055C000002242704924448003218180C280C2604D
:1055D0000261828212F4ECD268460480074801908E
:1055E000684602F07DFA684604810548039002A8E7
:1055F00003F072FE04B010BD1B0D000028B80001BE
:10560000DD8A000100207047F8B5174D174FE87983
:10561000002801D02E7B00E0FE780322331D0721F5
:10562000134812F489D2A921044601701148C178A7
:10563000617000216180E8790F49002803D02A7B3E
:10564000896C201D02E0FA78201D091DFEF7BAFDC5
:1056500060880221801960800648017141712046EE
:1056600012F4A6D2F8BD0000784800205848002067
:10567000A60D00008847002038480020F8B51F26F6
:10568000232303220721274812F456D20446AA20D6
:10569000254F2070F878254D6070E8786080EA78B2
:1056A0002349201DFEF78EFD6288B01AC1B2201D6D
:1056B000101803261F4A032910D92B79002B0DD06F
:1056C0000670192343705389091F1B0AC370937A0C
:1056D00083706388C9B21B1D6380001D02291AD91B
:1056E0006B79002B17D0137B891E8B4200D2194691
:1056F000CDB2691C0170117BA94201D1092100E0E2
:10570000082141702A460C49801CFEF75BFD608829
:10571000AD1C401960803E717E71204612F448D263
:10572000F8BD0000A60D0000884700207848002042
:105730005C4800200C480020194800207047704742
:1057400070B53A2303220721164812F4F5D1A4219B
:10575000154D04460170E8786070A979134800225D
:10576000022910D0032913D0042916D06280227197
:10577000807901F021FD0520287104206871204600
:1057800012F416D270BD018A642359436180EEE79A
:10579000C18A642359436180E9E7818B64235943BB
:1057A0006180E4E7A10D00008847002078480020D0
:1057B0007047F0B589B00E4607461D461446684648
:1057C000114604F08DFD39462B466A46084604F022
:1057D00087FD69462B462246084604F081FD314686
:1057E0002B466A46084604F07BFD09B0F0BD000078
:1057F00030B4214A53694024234353611F4C012292
:10580000A2608B0700229B0F012B04D0022B08D033
:10581000032B1BD10FE01A4A22600278226001227A
:1058200014E0184A22604278037812021A4352BAEE
:10583000226002220AE0144A2260027843781204AD
:105840001B021A4383781A43226003228A4210D231
:10585000835C521C855C1B022B43521C855C1B0223
:105860002B431B02521C855C2B432360521C8A4233
:10587000EED3206830BC7047001002400030024078
:105880009D9EA56A0ACD4697D02160CC70B50024B4
:105890000546002807D97D2676013046FEF728FC0C
:1058A000641CAC42F9D370BD70B50C4605460121AD
:1058B0000420FEF7FBFF01210820FEF7F7FFA1B24D
:1058C0002846FEF70FFF70BD70B50C460546012156
:1058D0000420FEF7EBFF01210820FEF7E7FFA1B24D
:1058E0002846FEF701FF70BD70B586B00121042087
:1058F000FEF7DCFF01210820FEF7D8FF01240E4E41
:10590000002500946946304602950194FEF780FE1A
:1059100001944020094C0090694602952046FEF70C
:1059200077FE01213046FEF7DDFE40212046FEF7DE
:10593000D9FE06B070BD0000000C01400008014017
:1059400002460020802901D98D207047062A06D002
:10595000072A07D0082AF8D10729F5D17047082966
:10596000F2D170470629EFD370477047704770B582
:10597000C46805466068002803D00020002802D0D3
:105980000CE00120FAE7201DFEF79CFD11F4C4D7BE
:105990006068002808D000200028F4D00020E860CB
:1059A000204611F4B9D770BD0120F5E730B40446A4
:1059B000A2890920521C93B2E48900222546D540D1
:1059C000ED0707D05D1C8D4202D130BC10467047F8
:1059D0009B1C9BB2521CD2B2092AEFD330BC704739
:1059E000FFB585B00E9D04462F8801201E4600217C
:1059F0003A46CA40D20704D04B0003225B1C9A40AF
:105A00001043491CC9B20929F2D3049030461E2123
:105A10000840218A184A00230191009302920390C2
:105A2000132304AA15490698FEF752FD009000289A
:105A30001FD10121142011F4F9D70746E060069820
:105A40000188B9812988F981F00701D00120C003BC
:105A5000079908433880208A788014206082204685
:105A600000F060F8381DFEF739FD208A002112F49D
:105A700033D1009809B0F0BD30B000010A18000021
:105A800000487047C8B00001FFB5087881B00C46E7
:105A9000092836D2142003F0EBFB0746217800F0EA
:105AA000FDF800282BD061782078FFF749FF060029
:105AB00028D17D68002D0ED020782979814207D128
:105AC0002946381DFEF710FD284611F425D702E0BF
:105AD0002D68002DF1D160780121083011F4A6D78E
:105AE000054620782871607868716278A11CA81D2D
:105AF000FEF768FB2946381DFEF7FCFC02E0822613
:105B000000E0812602230648039A049912F414D077
:105B100021780170467012F44BD0002005B0F0BD22
:105B20000114000010B50446142003F0A1FB044941
:105B3000216003216181123060600120208110BD4D
:105B4000D8B00001F8B517460C46104612F4B2D092
:105B5000012831D1142003F08BFB0546017C00F0B5
:105B60009DF80646297C22781448914214D1697C1C
:105B7000637809023A46891D9B1D11F4DDD705465D
:105B8000068000202871607868806278A11C681DFA
:105B9000FEF718FB284609E0697C062309023A460D
:105BA000891D11F4C9D706808021017112F400D03B
:105BB0000021384612F490D00020F8BD140C0000EB
:105BC000F8B50F460024097818462546092923D23E
:105BD0000B007B441B79DB189F4404071013161934
:105BE0000A1C0D00102417A516E00A2417A513E0BF
:105BF000082419A510E007241AA50DE00A241BA506
:105C00000AE005241CA507E005241DA504E00524E1
:105C10001DA501E006241EA50146A31C1E4811F483
:105C20008BD70646387830707470002C04D022462A
:105C30002946B01CFEF7C6FA304611F4B9D7002049
:105C4000F8BD00004E6174696F6E73004E532D42B3
:105C50004C452D312E300000123456FFFE9ABCDE2A
:105C600000000000025E044000000300312E302ED0
:105C7000302E302D4C450000312E302E30000000EB
:105C8000362E312E32000000362E332E300000002A
:105C9000FFEEDDCCBBAA00000314000010B4828923
:105CA000C489521C93B200222046D040C00706D0BF
:105CB000914202D15B1C9BB205E09B1C9BB2521C23
:105CC00052B2092AF0DB092A02D010BC18467047EC
:105CD00010BC00207047FFB500255D570021074626
:105CE00093B01C4616460846002D7EDD8300D3582F
:105CF000401C194340B2A842F8DB002975D0149922
:105D000002A823460A4604F0EBFA234602AA3946C3
:105D10000AA804F0E5FA02A8014623460A4604F060
:105D2000DFFA149923463246084604F0D9FA32467F
:105D300011462346084604F0D3FA3946231D32465D
:105D40000846009504F0BEF832461146231D084669
:105D5000009504F0B7F83246231D394610460095E9
:105D600004F0CEFA394623463246084604F0B8FA23
:105D70003A46231D11463046009504F0A3F83946F3
:105D8000231D32460846009504F09CF83878C00779
:105D9000C00F13D039462B46221D084604F05DF88B
:105DA00000902946384604F056FBA800C0198038F8
:105DB0000099C26FC9070A43C26703E02946384603
:105DC00004F049FB3A4630462346114604F088FA6F
:105DD0003146231D0AAA0846009504F091FA31467F
:105DE000231D0AAA0846009500E024E004F088FA82
:105DF0000AA9231D32460846009504F081FA394667
:105E000023460AAA084604F06BFA02AA231D394663
:105E10001046009504F074FA2A463146384604F0DC
:105E20002CFB2A463046149904F027FB2A4602A987
:105E3000149804F022FB17B0F0BD0000F8B5234918
:105E40004D68234EF0690F043843F0612148026B1E
:105E500007231A43026300204860FEF751FB1E48E7
:105E600001211E4C017020688006FCD4012080F3C3
:105E7000108819480078012803D0002080F310888A
:105E80001BE00A2020601648026904231A430261BD
:105E900030BF306A0843306270681902084370608E
:105EA000F0693843F061B0690D210843B0610748DB
:105EB000456002F081FE02F015FF6068FF210131AC
:105EC0000843606020688006FCD5F8BD00100140E2
:105ED000001002400080024080000020007000405E
:105EE00000ED00E070B50D4C05462078002812D07A
:105EF00000200B4E2070E9B23046FEF77BFC0221F9
:105F00003046FEF707FC0028F9D002213046FEF7A4
:105F1000EFFB01202070284670BD000022400020C9
:105F200000480040F0B50878334F344D344E801EA1
:105F300083B00C4606285BD20100794409794918E0
:105F40008F4402265636563C01203070A078687681
:105F5000A078C00705D02B492B48FEF7ADFA387A58
:105F6000A874B28A002A06D0FF20F5307080032181
:105F7000264812F4A3D0F069002839D00020009000
:105F80000190052069460870F169684688472FE04E
:105F900000246C7601F08AFCF069002828D0009477
:105FA0000620694601940870F169684688471FE039
:105FB0001722A11C1648FEF705F919E0B878000170
:105FC000C0194030007E002812D11C22A11C1148AB
:105FD000FEF7F8F80F48A18A0182E18A4182218BFD
:105FE0008182618BC1820B49608A0883207F68743B
:105FF000002003B0F0BD000088470020CC46002000
:10600000E846002091470020DF460020040F0000F2
:10601000C6460020AC460020F0B518460F460146A3
:1060200085B0222303226F4811F486D5012104464E
:106030004170387800266C4D082869D202007A44F5
:1060400012799218974403C2C2C26865B11F2170C9
:106050006170A87920712879A070E87960716879F9
:10606000E070287AA071687AE071A87A2072E869F5
:1060700000284DD002206946009608700194E96915
:1060800068468847A2E0072020706170684625F4C2
:10609000E5D2019F009EFEF783F8801960820025FB
:1060A000FEF77EF88119601900908170FEF778F88C
:1060B000C11900986D1CEDB20175082DF0D30825AB
:1060C000FEF76EF8B919401861196D1CEDB28870B1
:1060D000102DF5D310202077444881780901081845
:1060E0004030007E012871D11C22A11C4048FEF7DF
:1060F00069F83F48A18A0182E18A4182218B81822D
:10610000618BC1823A49608A08833A48217F417491
:106110005CE00520207059E0042222707878012884
:1061200004D0002802D0022831D04FE06170287CD2
:10613000002810D002A825F491D2FEF731F82E499C
:10614000FDF7E8FF2D480818029940182C49FDF783
:10615000E1FF009101E0E8680090E869002807D0BD
:1061600003206946029608720391E96902A88847EC
:106170001021A01CFEF73FF80098A0700098000ABC
:10618000E0700098010C2171000E60711EE0E8695A
:10619000002805D00096684601960270E969884794
:1061A00020460C3811F4FAD413E00620154D207067
:1061B000E878012810D01021A01CFEF71CF8A9884F
:1061C0006182E988A1822989E1822676204611F43C
:1061D000EFD4002005B0F0BD10220B49A01CFDF744
:1061E000F1FFECE7140E0000E8460020884700208D
:1061F000AC460020CC460020A0BB0D00A0860100CC
:106200003F420F000C4800209747002030B50E4851
:106210000C46016C002583B0002907D000950520AD
:106220006A460295107068460194884720780928CC
:1062300007D10648017A002903D00572607802F080
:106240001BFA002003B030BD88470020C84700205B
:1062500010B5002084B0FF2B18D0134C226C002AFC
:1062600007D00090029006206B4618706846019196
:106270009047032011F41ED5032811D1E26F002AA4
:106280000ED00321094811F419D709E00821012390
:106290000322074811F450D40721017011F488D467
:1062A000002004B010BD000088470020090E000047
:1062B000050E0000FFB51A460C461D0A83B02B469A
:1062C0004B494CA0FEF798FC504EFF2DB5707DD089
:1062D0002902342303224E48083111F42DD40546F7
:1062E000B07800270101891940310873B0782188FE
:1062F0000001801940304181B078617A0001801935
:1063000040304173B07862890001811942318A813D
:10631000A289CA81E0890882207C012802D0002855
:1063200007D00BE0B07801210001801940300176E0
:1063300004E0B07800018019403007762088308072
:10634000607A307221460A313248FEF7B5F802F021
:106350002DFE002818D0032211462F4811F43CD4FA
:1063600002F02CFE05280FD2010079440979491862
:106370008F4406060602060001202821485505E044
:1063800005212820415501E0282047550321059883
:1063900011F4A2D417203086B1780901891940314F
:1063A00088821E48C068002803D003211C4811F4CD
:1063B000E5D51C48028D002A03D003211A4811F4A8
:1063C0007DD6306C00280AD0022000E00BE0694640
:1063D0000097087002950194316C684688472846FA
:1063E00011F4E6D301E001F0D9F9002007B0F0BDC7
:1063F00047B5000125732C207369643A25642C632A
:106400006F6E6964783A25640D0A000088470020A1
:10641000020E000091470020150D00009848002052
:10642000030F00000C480020020F000030B50C469E
:106430001D0A83B089782A4613A0FEF7DDFB2801E8
:106440001B4DFF2140194030017301F07BFA0028F9
:1064500003D10221032011F43FD4286C002809D075
:106460000020009002900320694608700194296C76
:10647000684688470F480068002802D0092011F4B8
:1064800015D2002003B030BD424C452044697363EF
:106490006F6E6E65637465642C7265736F6E3A25FA
:1064A000782C636F6E6964783A2564200D0A0000C9
:1064B00088470020100C002000B5084883B0C1694F
:1064C000002907D000200090019009206A46107032
:1064D00068468847002003B000BD0000E846002061
:1064E000FFB591B00D46122303224648149911F4CA
:1064F00023D304460020207043480078002866D04B
:106500004148407C002836D03C216846FDF773FEA8
:1065100001F0CCFD002844D004A90F913A49461E51
:10652000F0B23A228969504341186846091DFDF7C7
:1065300049FE6846008B2988884206D10822A91C9A
:106540000F98FDF763FE00280BD0207800280ED0AE
:1065500008A8407C607410226946601CFDF732FE7A
:106560001FE02AA0FEF748FB01202070F0E730066C
:10657000000ED3D12BE02B482988008B884226D1EE
:106580000822A91C2848FDF741FE002809D1012056
:10659000207026481022407C60742249601CFDF760
:1065A00011FE2078002812D01749C869002808D0A9
:1065B00000200090019007206A461070C969684663
:1065C0008847204611F4F4D2002015B0F0BD0E49E2
:1065D000C869002808D000200090019008206A4671
:1065E0001070C9696846884702230322104814992D
:1065F00011F4A2D2012101700621417011F4D8D208
:10660000DFE70000180E0000E846002065646976A8
:106610002672616E645F6E62206D617463680D0A3C
:1066200000000000AC460020BC460020CC46002004
:10663000040E000070B50C4609781B481B4D1E4621
:10664000002904D0012912D002292BD11AE01C23E1
:10665000314611F471D2064620783070287B708064
:106660002A7B1349301DFDF7ADFD304607E00A23B4
:10667000314611F461D2217801706989418011F4A9
:1066800097D20FE00A23314611F456D221780170D7
:10669000298C4180698C8180A98CC180E98C018121
:1066A00011F486D2002070BD0B0E00000C480020B3
:1066B0001948002010B50C464A78097803A0FEF767
:1066C0009BFA207800F078FD002010BD74785F7090
:1066D00068793A25642C2072785F7068793A25646D
:1066E0000D0A000005480A8842861A0A120110188D
:1066F00009884030C1820020704700008847002090
:1067000030B5180AC043000683B00D46000E22D0F3
:10671000190A0902E120062303220001083111F4BD
:106720000BD204460120207002206080FF204130FF
:10673000A0800B48016C002909D0002100910421A0
:106740006A46117001950294016C6846884720469C
:1067500011F42ED201E001F021F8002003B030BD89
:106760008847002000B5084883B0026C002A08D092
:1067700000200090029008206B4618706846019136
:106780009047002003B000BD8847002070B5184630
:106790000C46014602230A4811F4CED105460949A8
:1067A000A07808736288211D0748FDF70BFD0020C3
:1067B000687020782870284611F4FAD1002070BD46
:1067C0000D0E00000C480020194800204A780B48A4
:1067D000002A05D02030012A08D0022A09D00AE078
:1067E0000279012A07D10978C17004E0097801759E
:1067F00001E00978417500207047000088470020BB
:1068000070B54878002806D0FF25124C01280BD01F
:10681000022816D01BE010480179062917D107215C
:10682000017100F029FF12E0207DFF280FD001F058
:1068300021F80A4825750169002908D000208847F9
:1068400005E0607DFF2802D000F0F6FF65750020AE
:1068500070BD0000A847002088470020984800200D
:1068600010B5032B06D010220548891DFDF7AAFCA0
:10687000002010BD0348017A034801F0B5FCF7E79A
:10688000A74700208847002091470020F0B54B78AB
:106890008BB00D46002B04D02A78D549D5A0FEF741
:1068A000ABF9DB4E2878344600272034A12870D07D
:1068B00012DCD8490A911B286CD006DC012818D0BC
:1068C000032870D0172863D134E128287DD091287F
:1068D0007CD0A0285CD137E1A238092858D2010029
:1068E0007944097949188F44FD53FCFC53FCFBFCA7
:1068F000FC00687800284BD1012002F01DFD02F059
:1069000023FA342303220721C34811F415D10321AC
:106910000170C24904468A7842700122C276FB2285
:106920004284BF4AC284BF4A82840A88028487762E
:106930008A888280CA88C2800A892281487A80092E
:10694000032805D188780522104201D10120A076C4
:10695000A07E04221043A076B3486080C878012846
:106960001AD0204610210A30FDF745FC306C002873
:1069700008D0012069460097087001950294316C97
:1069800068468847012000F017FC204611F410D11A
:106990001FE108E1B9E006E0204610220A300A991A
:1069A000FDF710FCE2E70097019702970397049721
:1069B0000597069707970897099702F0F7FA0028B6
:1069C00005D0684601F0AEFB16E03FE01FE0934CB7
:1069D0006946A0880880E0884880208988808F7177
:1069E000102202A80A99FDF7EDFBE078012808D0F3
:1069F00006970797089709970121684600F0ECFF72
:106A0000E7E0102206A80A99FDF7DCFBF4E7E07B3B
:106A1000002813D1112303220721844811F48CD0BC
:106A20000546282028707D48C078012808D010210C
:106A3000681CFDF7E0FB284611F4BAD0E773C8E004
:106A40001022681C0A99FDF7BDFBF4E7012002F053
:106A500073FC0121032011F43FD1754801244484C3
:106A60001F2004906D480178490601D57F210491CB
:106A700081780522114204D0FF220499813211430A
:106A800004910088C00504D50321049849020843F5
:106A90000490082167480191029003210B2304AA66
:106AA00000970394C9026448FDF712FD002840D105
:106AB000624806218786FF20059061480191029077
:106AC000082305AA009703945E495F48FDF700FD7F
:106AD00000287ED100F0BAFD00287AD1022102E020
:106AE0005BE031E06DE0032011F4F6D0B0790128CD
:106AF00008D000F07BFE55484078C00769D001F00F
:106B0000EDF966E000F04AFE63E002F04FFAE77349
:106B100000F09CFD00285CD10221032011F4DCD0A0
:106B2000B0790128EED000F061FE48484078C007F7
:106B3000E5D14EE0687800284BD0F179481EF0711D
:106B4000434801F021FB44E07079401E052801D83C
:106B500000F092FD2878A42801D0A72839D17079B7
:106B6000042806D0062804D0082808D00C2830D1E4
:106B70000CE03848016800292BD0B07904E0334894
:106B80000169002925D00120884722E02F480169AA
:106B900000291ED0032088471BE03771FF20F070CA
:106BA0002075607515E0207DFF2802D068780028E8
:106BB00002D000F05FFE0CE024484078C0079ED170
:106BC00007E0607DFF2802D06878002804D000F03C
:106BD00033FE00200BB0F0BDA07D0028F9D01B488B
:106BE00040788007F5D5E17D1B4801F0F1F8F0E72A
:106BF00032B5000125732C206F70203D2025782CA4
:106C000020737461747573203D2025780D0A00008F
:106C10008847002097470020040D00000C48002002
:106C20000502000048080000A08C0000230D0000B1
:106C3000B00B00209AB40001D20B0020680B00209A
:106C4000F2B40001011800009C0B002098480020BD
:106C50009147002038480020C047002070B500252B
:106C60000C462846401C0628FCDB254E2246307E7A
:106C700031461A32C96906282AD203007B441B799F
:106C8000DB189F4424020910171E0622A01CFDF7E2
:106C9000BDFA00281BD01BE0237E092000F034FF42
:106CA000002814D114E0237E212000F02DFF0028BD
:106CB0000DD10DE0237E162000F026FF002806D11E
:106CC00006E0237E192000F01FFF002800D00125D8
:106CD0000C48807D002811D17169002901D020461F
:106CE0008847002D0AD03169002901D00220884749
:106CF00001F070F9217AA01C01F06AF8002070BD43
:106D000098480020A847002010B50A78000A000221
:106D100010434A78FF231B02120298431A40104383
:106D20008A781B02120498431A401043C978000263
:106D3000000A09060843FDF73CFA002010BD10B513
:106D4000104610F4B7D7002010BD0000F8B51D465E
:106D500017460C46104610F4ADD7002811D1492033
:106D600002F086FA064604233A460321064810F448
:106D7000E3D6290A01702188B288891A418010F46B
:106D800017D70020F8BD00000349000010B50878AF
:106D9000122804D103480021008810F49DD7002058
:106DA00010BD00002040002030B50F480C46016C9B
:106DB000002583B0002907D0009509206A46029576
:106DC00010706846019488472078082809DA01285D
:106DD00007D10648417A002903D04572607801F056
:106DE00059FC002003B030BD88470020C847002070
:106DF00030B5104883B00A8802861C0A2201121896
:106E00000D8840329582026C0025002A08D000953A
:106E100007226B4602951A700191016C68468847FB
:106E20000548A1004058002801D04030C57400201A
:106E300003B030BD88470020580B0020FFB581B05B
:106E4000002000900E46039810F434D7002802D09A
:106E500001284CD04DE0142002F00AFA0746318890
:106E6000FEF7A4FD05462448092D36D27C68002C87
:106E70001ED02179A94203D02468002CF9D117E053
:106E8000002C15D06379039A9B1D049910F454D6F5
:106E900005463088288000202871607968806279F2
:106EA000A11D681DFDF78EF9284610F481D620E05B
:106EB0003D740498010A7974384602F0D1F901460C
:106EC00001230E48039A10F437D6057010F470D6DB
:106ED0000121039810F400D70BE00623039A0499CC
:106EE00010F42AD63188018080210171DDE702206B
:106EF0000090009805B0F0BD140C000002140000D2
:106F0000FFB583B00E46059810F4D4D6002802D001
:106F1000022007B0F0BD492002F0AAF9029000203B
:106F20006946087006983488070A492002F0A0F9DB
:106F300081888025A14207D880790818A04203D90A
:106F4000601A694608700025002469468C80002D6F
:106F500025D1087816210446284B4843C1180A8ACF
:106F60005204920F29D14978185C0902401824492B
:106F7000884222D1492002F07BF90069002809D01B
:106F80000179A14203D1811D002803D003E00068EC
:106F90000028F5D10021C85D694688800224A31D20
:106FA0001848059A069910F4C7D5074630883880E6
:106FB0003D717C80002D15D019E03946029802F011
:106FC0004FF9014604231048059A10F4B5D507700F
:106FD00069460978418010F4EBD50121059810F439
:106FE0007BD607E0224601A9781DFDF7EBF838466D
:106FF00010F4DED5002007B0F0BD000044410020B1
:1070000002290000140C000001490000FFB58FB0F8
:107010000C46492002F02CF90C90002768460771B5
:107020001298060A0B962588492002F021F98288D9
:107030008021AA4207D880791018A84203D9A81A3B
:107040006946087100210D007DD16846007916213E
:10705000544A484381180B8A5B049B0F79D14978C5
:10706000105C090240185049884272D100200490F7
:10707000059025882846FDF749FA074615E002A93C
:107080002846FDF749FA00200346009006AA0DA9FC
:1070900002A8FDF747FA6846018B4448814202D1B5
:1070A0006D1CA8B208E06D1EADB2B888A84202D827
:1070B000F888A842E3D2002004A9002300911A46D0
:1070C0000AA9FDF735FA6846008D01210903084039
:1070D000C043C004C117A0880025491C022801D064
:1070E0000D250CE0E088002904D0002807D00128F5
:1070F00004D104E0002802D0022800D08125002D10
:1071000042D168460779E0880390492002F0B0F840
:10711000016900290AD00879B84204D14A79881D4A
:10712000002903D004E009680029F4D100221046A8
:10713000014668460292FDF745F86A460398905565
:107140003846029901E01FE003E001F081FB002DC9
:107150001AD10B990C9802F083F8A188119A891D15
:107160008BB20146124810F4E7D40746A288A11D4D
:10717000801DFDF727F83E70684600797880A0886A
:10718000B880384610F414D504230A48119A12998D
:1071900010F4D2D421880180857010F409D5002024
:1071A00013B0F0BD44410020022900000328000074
:1071B00002490000160C000010B5A023094902285E
:1071C00009D0002203280AD0042808D00B704A7086
:1071D00000F0A2F810BD0B7080204870F8E7E020A6
:1071E0000870F4E70D400020F8B52A4920204860D7
:1071F00029480121C163294905228A610021C1630F
:1072000027490A20086100F087F82748254A0263C9
:1072100026494163264B8363264CC4632748264D89
:107220000560274E4660274981602749C16027498C
:107230000161274941612749816127490163284844
:1072400026494160274FC760274F07610262274ADE
:1072500042628362C46205634663254A8263254AAB
:10726000C2632648244A0260184A4260244A826067
:107270000163244981632448244A41688918244AC7
:10728000914206D2234982680A63C2684A63006950
:107290008863F8BD00100140C0270240402502402D
:1072A000402702400259F80040280240025B850056
:1072B000025A8000025D8500025F805080280240F3
:1072C00002000878020A0800026EAC500259FC0065
:1072D0000200C8001270131402700314026E28001A
:1072E000C0280240025D0500125B0500025B8400BD
:1072F000020A0600026E2C5002C3BF0000290240A1
:107300001200AC00125D05000C4000206F2895FFB4
:10731000AF590F00C026024030B415481549037D0F
:10732000154AFF2B06D1407DFF2803D11348407832
:10733000C0070CD01248134B04789C604078D86189
:1073400011480861114B8B62106030BC7047104BC4
:107350000B6110484861104C8C61104D8D62C86201
:107360000F48086313600F485060946030BC70474A
:10737000A8470020002802404028024098480020EA
:107380000D40002000270240127E0200127E030002
:10739000027E020002C2A00012C70000027E0300AB
:1073A00012C7800002C2E00001F09CFC1A4D1B4E87
:1073B00081277F04B54201D119A002E0BD4202D16C
:1073C0001FA0FDF719FCFEF78FFA002401212448C5
:1073D000FEF77AFAB54201D1642003E0BD4203D141
:1073E000FF20F530FEF752FA40211E48FEF76CFAF6
:1073F000641CE4B20A2CE9D301211948FEF754FABF
:1074000040211848FEF750FAFDF7D8FE23F4C8D7FC
:1074100001F00EFEFAE7000000400001004000010C
:107420006170706C69636174696F6E203120737470
:10743000617274206E6577202E2E2E0D0A000000DA
:107440006170706C69636174696F6E20322073744F
:10745000617274206E6577202E2E2E0D0A000000BA
:10746000000C01400008014010B50124E402204650
:10747000FDF788F8002805D02046FDF77DF8104973
:1074800002200870012424032046FDF77BF8002821
:107490000FD02046FDF770F801F024FC09A0FDF79D
:1074A000ABFBBFF34F8F0F490D48C860BFF34F8F41
:1074B000FEE70D484068002800D0804710BD00005E
:1074C000800000204E5253542D3E4E5649435F5388
:1074D000797374656D52657365740D0A0000000060
:1074E0000400FA0500ED00E040400020EFF30884BE
:1074F00001F0F8FB15A0FDF77FFB214621A0FDF769
:107500007BFB24A062682168FDF776FB29A0E26876
:10751000A168FDF771FB2FA062692169FDF76CFB83
:1075200034A0E269A169FDF767FB3A4800680028CA
:1075300000D08047384939A0FDF75EFBBFF34F8F7D
:1075400039493848C860BFF34F8FFEE72A2A2A2AF4
:107550002A2A2A2A2A2A2A2A2A2A48617264466161
:10756000756C74204552524F523A52454720494E4D
:10757000464F2A2A2A2A2A2A2A2A2A2A2A2A2A2A2A
:107580002E0D0A006D7370203D203078253038783C
:107590002E0D0A00723020203D20307825303878BA
:1075A0002C200972312020203D2030782530387879
:1075B0002E0D0A00723220203D2030782530387898
:1075C0002C200972332020203D2030782530387857
:1075D0002E0D0A00723132203D2030782530387867
:1075E0002C20096C722020203D20307825303878FE
:1075F0002E0D0A00706320203D2030782530387829
:107600002C200978707372203D203078253038782E
:107610002E0D0A004040002084B4000125730D0A9D
:10762000000000000400FA0500ED00E0064A1178B1
:107630000A2907D28900891848601078401C107008
:1076400001207047002070470847002010B5084C03
:10765000084AE17913780020994207D288008018FF
:1076600040688047E079401CE071012010BD0000B7
:107670008847002008470020F8B5324D05262979B3
:1076800028468079304C08290CD20A007A441279B5
:107690009218974403080D1313191C2A052801D0CA
:1076A000FDF7FCFDF8BD022808D0FDF7ADFFF8BDE1
:1076B000607B002802D1E079002802D0FEF740F874
:1076C000F8BDFDF7DBFFF8BD06202871F8BD0223E9
:1076D000032207211D4810F42FD2A5210170E9785B
:1076E0004170072129716E7128E0022303220721CE
:1076F000174810F421D20746A7203870E97879702E
:107700000620687100202871032010F4D3D20328CA
:1077100012D0A879012804D0022802D003280BD166
:1077200004E0207D002801D0032003E0A07E002893
:1077300002D00420A87100E0AE71384610F438D2AF
:10774000F8BD00008847002078480020A20D000006
:10775000A30D000010B5002804D0014660220C489B
:10776000FCF730FD0B490C48CA781C2A04D9427B2F
:10777000002A01D11C22CA70C1781F2901D91F21FA
:10778000C170017BE22901D9E221017310BD000023
:10779000384800205848002078480020114901222C
:1077A000087907280CD08879002809D0012801D051
:1077B000052806D10C48827B002A03D002200CE069
:1077C0008A717047027D002A01D0032005E0807E87
:1077D000002801D0042000E00520887110B5FDF7D5
:1077E0005DFD10BD884700207848002070B5104C22
:1077F0000525A079062809D201007944097949189C
:107800008F44020204040403A57170BDA571022314
:1078100003220721074810F48FD1A5210170E178D8
:10782000417007212171657110F4C2D170BD000053
:1078300088470020A20D000010B50B4C607DFF288A
:1078400010D0022303220721084810F475D1A72184
:107850000170617D4170064A00215171FF216175FF
:1078600010F4A6D110BD0000A8470020A30D000011
:107870008847002010B50A4C207DFF280ED0022337
:1078800003220721074810F457D1A7210170217D59
:107890004170054A0021517110F48AD110BD0000D9
:1078A000A8470020A30D00008847002010B5084815
:1078B00002238078032201020648083110F43CD1EB
:1078C000012101701321417010F472D110BD00002C
:1078D00088470020040E000010B584B0002804D0B2
:1078E00001462A220E48FCF76DFC0EA00FC86C461C
:1078F0000FC40B4B002069461C180A5C24792243F4
:107900000A54401CC0B20628F6D310220A48FCF7DD
:1079100059FC0A490A48FCF7CFFD04B010BD00002D
:107920000C480020501921901F04D5624FA489AB48
:1079300090D0CF230000000097470020104800207F
:10794000FC0000200020074B01460A01D2184032FB
:10795000127BFF2A01D0401CC0B2491CC9B20329C6
:10796000F3D3704788470020F8B5184C07460D46FA
:10797000208810F49FD1012827D0154800780028CE
:1079800023D00121208810F4A7D1492001F070FCF8
:1079900006462846083083B20E4872888078010275
:1079A000C1200001891D10F4C7D0044612202070A8
:1079B000B1882046491DA180E5802A463946083015
:1079C000FCF700FC204610F4F3D0F8BD2040002066
:1079D000DE41002088470020F8B507460B462820E6
:1079E00043430D46032207210E489B1C10F4A4D0EC
:1079F00091210170002406464570002D0ED92046C5
:107A000028214843C1190022CA7180192822801CEC
:107A1000FCF7D8FB641CE4B2AC42F0D3304610F45F
:107A2000C7D0F8BD910D0000F8B57D262025F600E1
:107A3000184B194C1949032812D00A6A01273A43F6
:107A40000A620A6A9207FCD50A6AAA430A620128F6
:107A50001AD002281AD01E60FCF770FD2060F8BD15
:107A60000F480F2782683F023A438260086A042267
:107A700010430862086A0007FCD5086A28430862B8
:107A80003D2000011E60E9E7064800E00648186056
:107A9000E2E700008C00002090000020001002406F
:107AA00000100140D10300005704000010B5044647
:107AB000084804238078032201020748891D10F436
:107AC0003BD006494C80012101700021418010F417
:107AD0006FD010BD88470020010C0000F00B002083
:107AE000084A11780A290AD2C9004368891800682F
:107AF0008B6048601078401C107001207047002097
:107B00007047000034470020FFB581B01C000646D6
:107B100018D01078411CA14214D8032C12D3401E57
:107B2000C5B25078971CB04206D12A463846029911
:107B3000FCF76CFB002808D07A19601B801E040635
:107B4000240EE6D1002005B0F0BD012005B0F0BD47
:107B5000F0B5764D0746764E83B0734CA868F06258
:107B600074483063E86AB062E86B7063A86BB06316
:107B700029467C2240312046FCF724FB002060602F
:107B8000E06060626C49A1626064A064E0642066A9
:107B90006A49A1666A4921626A496B4A08700321F1
:107BA00011706A49E2140A6012040A6092140A60B1
:107BB000E968684B4A1E1488654A944200D01960EF
:107BC000296E0C46491E0988914200D05C6004462B
:107BD000019001200003009069460C710820487153
:107BE000012088716846FCF7DBFC84215A48FCF7C9
:107BF00002FB2A215948FCF7FEFA60215848FCF79D
:107C0000FAFA58485449046144618461C4610462C9
:107C100044628462C462FF255348CD700575457582
:107C20000020020152184032401CC0B215730328D4
:107C3000F7D338680864786848644C48798941808B
:107C4000397A032901D8017000E004700121202055
:107C5000FCF720FE48484649464B8269474F120BC5
:107C600012033A4382618269454F890989053A4086
:107C7000890A0A438261586910210843424A4149EE
:107C80005861116041498B69414F1B0B1B033B43FA
:107C90008B618B693A4F920992053B40920A1343DC
:107CA0008B61012720210843324948613948046328
:107CB00039483D49077039480470394804703948DB
:107CC00008603A49F802088039494F20087039495C
:107CD0000820087038480721057045708570C1700C
:107CE000047144718471C4713448F0613448306265
:107CF00034487062002001F099FB3349032010F4EE
:107D00002FD0002103200FF4E7D7002001F014FB4F
:107D10000123032207212D480FF40ED707700FF41B
:107D200047D703B0F0BD0000C009002000400001AB
:107D3000C0000020ED7400010D4100207996000183
:107D400069740001C6000020D800002000E100E0B6
:107D5000FEE7000040400020884700200C4800203B
:107D60003848002088480020A84700200848002004
:107D70008040002000200240102002400206000047
:107D8000FF0FC0FF51B10001C0400020142002408D
:107D9000030600000070004060000020C9000020C1
:107DA000610000200090D0036C00002068000020DB
:107DB000630000206400002008010020D991000128
:107DC00001930001A192000130B60001020D0000F4
:107DD000F8B53B4F0546787D3A4C0E46FF2847D014
:107DE0002046C268002A03D00321374810F466D128
:107DF0003A230322072135480FF49ED60446A420D7
:107E00002070787D60700023A3700120E07019223B
:107E10005201E2802E482281018CE181418C218235
:107E2000818C6182C18CA182FF21E3824131254F87
:107E300021837F787F070DD50527E7706281A281B6
:107E4000028CE284428C2285828C6285C08CA08563
:107E5000E385218638200655204629463230FCF736
:107E60002BFBE07881071DD50220FFF7A5F920E064
:107E70006D2002230322072140010FF45DD6A221C9
:107E800001701349C97841700FF492D6FE752946E6
:107E90001048FCF711FB0120B875607802210843F7
