:020000040100F9
:1000000020700020F900000101010001030100013E
:1000100000000000000000000000000000000000E0
:1000200000000000000000000000000005010001C9
:1000300000000000000000000701000109010001AC
:100040000B0100010B0100010B0100010B0100017C
:100050000B0100010B0100010B0100010B0100016C
:100060000B0100010B0100010B0100010B0100015C
:100070000B0100010B0100010B0100010B0100014C
:100080000B0100010B0100010B0100010B0100013C
:100090000B0100010B0100010B0100010B0100012C
:1000A0000B0100010B0100010B0100010B0100011C
:1000B000390600010B0100010B0100010B010001D9
:1000C0000448854600F060F800480047350B000101
:1000D000C046C0462070002040BA7047C0BA704782
:1000E0000138FDD17047000040BA7047C0BA704770
:1000F0000138FDD17047000004488047044800479C
:10010000FEE7FEE7FEE7FEE7FEE7FEE7B9040001D3
:10011000C100000130B50B46014600202022012419
:1001200009E00D46D5409D4205D31D469540491B2B
:100130002546954040191546521E002DF1DC30BD74
:1001400003460B439B0703D009E008C9121F08C0F0
:10015000042AFAD203E00B780370401C491C521E9B
:10016000F9D27047D2B201E00270401C491EFBD2A6
:1001700070470022F6E710B513460A4604461946B2
:10018000FFF7F0FF204610BD064C0125064E05E0A6
:10019000E36807CC2B430C3C98471034B442F7D3A8
:1001A000FFF792FFE0140001001500010B68002228
:1001B000002B56D0F0B401240B68944023424AD05F
:1001C0004B68022B01D0122B16D113070AD5456AB2
:1001D0005307DB0E0F269E40B5434E699E402E43CB
:1001E000466209E0056A5307DB0E0F269E40B543C1
:1001F0004E699E402E4306624B68012B05D0112BA1
:1002000003D0022B01D0122B06D14568DB06DB0F91
:10021000A54393402B4343600568530003279F4049
:100220000E79BD43B607B60F9E402E430660C568E3
:100230008E68BD439E402E43C66085680126A54357
:10024000CC6894402C438460C46A9E400D69B443DA
:100250009D402543C5620B68521CD340ABD1F0BC16
:100260007047704705490160002242600F2182609B
:10027000416101210261C16070470000FF3F000041
:1002800010B400214156FF23CAB29207D40E42781F
:10029000A3409207120EA24000290BDA0907090FAA
:1002A00008398C081049A4006118CC699C43144398
:1002B000CC6107E08C080D49A40061180C689C43D0
:1002C00014430C60827801210078002A04D0C00613
:1002D000C00E8140064803E0C006C00E81400548BC
:1002E000016010BC7047000000ED00E000E400E099
:1002F00000E100E080E100E0F7B5FFB00446002532
:10030000A5B00520EFF31087FF210090453102A82A
:10031000FFF72FFFEFF31086FF21453153A8FFF7BA
:1003200028FF53A8013001909822224953A8FFF7D3
:1003300007FF012080F310880198804786F310881A
:1003400001221D49120303265300360388420AD1B5
:1003500094421AD09C4201D1151116E0B44210D13A
:1003600001256D0211E0154988420AD1944201D15C
:1003700015460AE09C4201D11D4606E03546AC42D6
:1003800003D000987FB028B0F0BD06ACFF22013446
:1003900041320B4902A8FFF7D3FE012080F31088F9
:1003A0002846A69AA599A04787F310887FB028B061
:1003B000F0BD00009C100001C440130085601300D4
:1003C0005C0F000110B5EFF31084012181F3108858
:1003D000FF210906401803490968884784F31088FB
:1003E00010BD00000040002010B50848064901601B
:1003F0000749416007498160C922920006490748C0
:10040000FFF79EFE10BD0000F540002000400020D8
:10041000894100205D40002040110001544000202F
:1004200010B5EFF31084012383F31088FF231B061C
:10043000C018034B5B68984784F3108810BD000018
:100440000040002030B4164A516804231940154B6F
:1004500001D0042901D0036001E013490160516813
:10046000124B8906890F5B5C0168D9404160536873
:100470000F4C5B055B0FE35C0D46DD408560536808
:100480009B045B0FE35CD940C160D16AC90601D50A
:10049000084901E07D21C903016130BC70470000BB
:1004A000001002400090D0030048E8013411000120
:1004B0003811000100093D00F0B5564C85B0E069E7
:1004C00021040843E0618120534D0006286353480E
:1004D000686153482862534803220168920391439C
:1004E0000160514934228014FFF706FF4E4B4F4EF6
:1004F00018694F4F411C29D0002827D0A9691A78C4
:1005000049094901D206D20E0A43AA612168EA13B9
:100510009143216021687F22120291430002084327
:1005200020606068304360606068B8436060606805
:10053000211508436060206A3E4908402062206A15
:10054000D96809020843206205B0F0BD6168204601
:10055000314361606168B943616061680127BF022E
:1005600039436160002104917D21C900039100217C
:1005700000917F21402400250295019102686102CB
:100580008A4302600E11234908687F2212029043B9
:10059000220202430A600520FFF7A2FD0120FFF7B7
:1005A0009FFD1C48406B800704D4284603996D1CAE
:1005B0008842F3D91748C06B80B2B04201D9811B81
:1005C00000E0311AB94202D2E2B28FB20292B042D6
:1005D00001D3019400E00094019A00988018C005AE
:1005E000000EA04203D0044604988142CBD80948AB
:1005F00001687F2212029143029A12020A430260AA
:10060000416849084900416041684907FCD405B088
:10061000F0BD000000100240007000400F08000014
:1006200018000200001001402040002000000100DE
:1006300000070000FF00F8FF38B5184C20212046C5
:1006400000F060F8002828D0204600F0A7F8154BED
:10065000134A196850541078AA281ED1491C1960F1
:10066000FF291AD90020A415186021460E48FFF76B
:1006700080FD22460A490C48FFF762FD01206946C9
:1006800008700146094A684600F0A0F8002804D026
:10069000FF21074A863100F03DFA38BD003801409D
:1006A000105500201C4000201C670020F10C0001A8
:1006B0006414000110B40B06CC065B0FE40E01219C
:1006C000A140012B07D0022B07D01430002A02686A
:1006D00005D00A4304E00C30F8E71030F6E78A430F
:1006E000026010BC704700000029818903D00122FC
:1006F0005203114301E0024A11408181704700001A
:10070000FFDF00000246128800200A4200D00120CC
:100710007047000070B50446008A86B00D461B493C
:100720000840E98801432182A08919492A890840A3
:10073000A98811436A8902431143A181A08A1549FE
:100740000840A9890143A1826846FFF77BFE124851
:10075000844201D1039800E0029829681922890097
:100760005043FFF7D7FC06466421FFF7D3FC050191
:10077000280964214843301A00013230FFF7CAFCCF
:100780000007000F2843208106B070BDFFCF000096
:10079000F3E90000FFFC0000003801408088C0053C
:1007A000C00D7047C905C90D8180704702E008C8B7
:1007B000121F08C1002AFAD170477047002001E0DB
:1007C00001C1121F002AFBD170470000F8B51B4E73
:1007D000134677880C46B9422DD832787178B5889F
:1007E000A94201D2491C00E00021C9B2914222D0A5
:1007F00071787278AA4201D2521C00E00022727015
:100800000F4A914217D0CD00B268002853510DD045
:10081000002C0BD0F26879438B180146224618460B
:10082000FFF78EFCB0682818848002E00020A91829
:1008300088800020F8BD0120F8BD00000C40002099
:10084000FFFF000010B50E4C20786178814216D071
:1008500021786088E26848438018A368CA00D118EC
:100860009A58898890472078A188884201D2401CF4
:1008700000E000202070207861788142E8D110BD2E
:100880000C40002010B4CB0008339CB2930702D078
:1008900010BC01207047064B9A601219DA600022E2
:1008A0005A701A705880998010BC1046704700002A
:1008B0000C400020421C01D10020704730B4214A76
:1008C00053694024234353611F4C0122A2608B07CC
:1008D00000229B0F012B04D0022B08D0032B1BD12D
:1008E0000FE01A4A226002782260012214E0184ABE
:1008F00022604278037812021A4352BA226002221E
:100900000AE0144A22600278437812041B021A4358
:1009100083781A43226003228A4210D2835C521CDD
:10092000855C1B022B43521C855C1B022B431B0264
:10093000521C855C2B432360521C8A42EED32068F4
:1009400030BC704700100240003002409D9EA56AF6
:100950000ACD4697D02160CC70B50024054600280A
:1009600007D97D2676013046FFF7C2FB641CAC42F6
:10097000F9D370BD0648C168064A1143C160C26818
:1009800005490A40C26082690A40826170470000DE
:10099000001002400D400000F2BFFFFF10B5012122
:1009A0000148FFF7A1FE10BD0038014008B51C202A
:1009B0006946087000204870012088706846FFF77B
:1009C0005FFC012202490348FFF774FE08BD0000E6
:1009D000250500000038014070B505464C1E601C1E
:1009E0001CD00F4E20213046FFF78CFE002813D07C
:1009F0003046FFF7D3FEA8420ED10A20FFF770FB66
:100A000080213046FFF77EFE0128F9D1792130465A
:100A1000FFF7C8FE012070BD641EE3D2002070BD48
:100A200000380140F3B52B4987B08A690C273A4357
:100A30008A618A6901239B031A438A6104466846D6
:100A4000FFF710FC20461021022620240025002854
:100A50000196009132D069461F480595FFF7A6FB25
:100A6000059569461C480094FFF7A0FB04240196F5
:100A700040200594194E009069463046FFF796FBDA
:100A800080200594009069463046FFF78FFB144C98
:100A900000212046FFF728FE0898009068468580D0
:100AA000C58005818581478169462046FFF732FE72
:100AB00001212046FFF718FE09B0F0BD0326694664
:100AC00005480596FFF772FB0596694602480094B3
:100AD000DBE700000010024000080140000C01406C
:100AE00000380140F8B500240D46064600290DD90E
:100AF000074F80213846FFF705FE0128F9D1315D07
:100B00003846FFF74FFE641CAC42F2D3F8BD00003C
:100B10000038014018B401236C4689B22370044B9D
:100B2000186059609A6020780028FCD118BC704782
:100B300004550020494C00202146FFF773FF484E22
:100B40007F203146FFF748FF002879D1E1256D026B
:100B50002946FFF767FF31467F20FFF73DFF00285A
:100B60006ED121460120FFF75DFF31467F20FFF760
:100B700033FF002864D129460120FFF753FF314697
:100B80007F20FFF729FF00285AD1364DBC21281DB0
:100B9000FFF790FE2968884252D1686801284FD03B
:100BA000A86901280BD13049A868884207D1E968B3
:100BB000FFF780FE2969884221D1AC681DE0286CCE
:100BC00001280CD18121286B4904884207D1696B27
:100BD000FFF770FEA96B884211D12C6B0DE0A86E57
:100BE00001280CD12149A86D884208D1E96DFFF791
:100BF00061FE296E884202D1AC6D002C1BD1E968E0
:100C0000A868FFF757FE2969884201D1AC6810E057
:100C1000696B286BFFF74EFEA96B884201D12C6BE4
:100C200007E0E96DA86DFFF745FE296E884207D100
:100C3000AC6D002C04D0FFF79DFE204600F01AF8A2
:100C400010210B4A0801FFF71DFE00F019F8FFF70D
:100C5000F9FD20BF40BF20BFF9E7000040420F0070
:100C6000FF6F0000002000010040000100C00301F0
:100C70007C4300204168006880F308880847000032
:100C8000F0B5B1B0FFF7B0FB174CBC21201DFFF74A
:100C900011FE2168884220D1606801281DD1134CC3
:100CA000851E6F46261DC0220F496846FFF748FA89
:100CB000BC21381D0195FFF7FDFD00902046FFF790
:100CC00081FBC02269462046FFF7AAFBBC213046C3
:100CD000FFF7F0FD00998842E5D1FFF767FEFFF7C7
:100CE0005DFE31B0F0BD00000020000100200001D9
:100CF000F8B5007801287CD178490878AA2878D1FD
:100D00004878774F774E784C082872D202007A44A0
:100D10001279921897446D030922386EC5DA73A0D0
:100D20000068009002216846D5E000243C226D480E
:100D3000891CFFF705FA3821301DFFF7BBFD31682C
:100D4000884200D001247068B84200D2012468A013
:100D500000680090684684700321BCE00023664868
:100D600064492360C2890A80028A4A80428A8A8052
:100D7000828ACA80C28A0A81028B4A815FA0006887
:100D8000009068468370E7E70D468A785C492068E2
:100D900000274018E91CFFF7D3F9A978206840180C
:100DA0002060544C616888421BD35548FFF782FD90
:100DB000A168884214D1706821684018FFF702FBCF
:100DC00070682168626840184D49FFF729FB706818
:100DD000216840186168FFF76DFDA168884200D066
:100DE000012748A00068009068468770032100F042
:100DF0009FF8F8BD0024B1687068FFF75BFDF568E7
:100E0000A8424CD1C02240494048FFF799F93F48D9
:100E1000611E81610164816641603D4A7168012300
:100E2000914207D18260B168C16031690561836117
:100E3000416115E081225204914207D10263B168F9
:100E40004163316985630364C16309E0314A9142BA
:100E500025D18265B168C1653169056683664166E1
:100E60000546BC21001DFFF725FD28603846FFF729
:100E7000A9FAC02225493846FFF7D2FABC212648F4
:100E8000FFF718FD2968884200D0022423A00068DB
:100E9000009068468470032100F04AF8F8BD0124F0
:100EA000F4E71FA1096800910020694688700321BA
:100EB000684600F03DF86420FFF74EFDBFF34F8F0A
:100EC00019491848C860BFF34F8FFEE717A00068A4
:100ED00000900221684600F02BF8F8BD1C67002046
:100EE000002000011466002010660020AA01000006
:100EF000AA0200005066002010670020AA0300002C
:100F000010560020AA040000002000015C660020AA
:100F10000040000100C0030104200001AA050000F8
:100F2000AA0600000400FA0500ED00E0AA07000090
:100F300070B5FF24C0B00D46064601342146684610
:100F4000FFF717F92A4631466846FFF7F9F82146B8
:100F50006846FFF7C7FD002040B070BD40BA70473B
:100F6000C0BA70470138FDD170470000F7B50325BE
:100F7000AD06286A82B016460C464008400028623A
:100F8000286A022108432862286A8007FCD4662068
:100F9000686001272F61A86AC005FCD599206860A8
:100FA0002F61A86AC005FCD5FF209130FFF7DAFF5A
:100FB000FF230133AB626846EF60352169602F6122
:100FC000A96AC905FCD5AB62A969EF60C9B205225F
:100FD0006A602F61AA6AD205FCD5AB62AA690902D0
:100FE000D2B211430180C80702D0032005B0F0BD82
:100FF000AB626869FF210831884368616869C91E6E
:101000000843686102980002483068600820A860C0
:10101000EE602F61A86AC005FCD5FF200130A862F0
:101020000023F61CB0080ED0B208114800689900E1
:101030006054060A09194E70060C000E8E705B1C77
:10104000C8709A42F1D8FF200130A8626869FF2178
:10105000083188436861686938436861286A800894
:1010600080002862286A38432862002005B0F0BD5D
:101070008000000C032080064169FF220832914362
:101080004161426901210A434261026A9208920069
:101090000262026A0A4302627047000000200321D4
:1010A0008906096A4908490003229206116211461D
:1010B000096A0222114303229206116200BF032132
:1010C0008906096A022211400229F8D0D1010322BF
:1010D000920691620321D1609F215160012111612B
:1010E00000BF03218906896AFF2201321140914223
:1010F000F7D1032292069162114688694969FF225D
:101100000832914303229206516111464969012236
:1011100011430322920651611146096A8908890028
:1011200011621146096A01221143032292061162DB
:1011300070470000000001020000000001020304EB
:101140000138FDD170470000F0B40324A406236ADF
:101150005B085B002362236A02252B432362236A18
:101160009B07FCD4FF230133A3626569DE1DB543F1
:10117000656165691E1D3543656100026B30606005
:101180000820A060E26001262661A06AC005FCD5A7
:10119000A3620023D21C90080ED095080F48006867
:1011A0009A008854070A52185770070C000E97705F
:1011B0005B1CD0709D42F1D86069FF2108318843E3
:1011C0006061606930436061206A8008800020624D
:1011D000206A30432062F0BC002070478000000C81
:1011E000F8B5064601200025C004864201D9052035
:1011F000F8BD0324A406206A400840002062206A4B
:10120000022108432062206A8007FCD4FF270137AF
:10121000A76200F0BBF8002801D0032515E00620E6
:10122000606001212161A06AC005FCD5A76230027F
:10123000203060602161A06AC005FCD5A7620C481F
:1012400000F0C8F8002800D102256069FF210831AC
:10125000884360616069012108436061206A8008F9
:1012600080002062206A084320622846F8BD000002
:10127000E6960100F7B506460120C00482B0154687
:10128000864202D9052005B0F0BD03208006016A20
:10129000490849000162016A022211430162016AA0
:1012A0008907FCD4FF2101318162F2B28C1AA54278
:1012B00000D8ACB20398009000F068F8002840D144
:1012C00006214806416001210161816AC905FCD5FA
:1012D000FF2101310320800681624169FF2208322B
:1012E000914341614169042211434161310232312C
:1012F0004160C4600022002C16D9009887183B7802
:10130000F87819467B7800061B021943BB781B044A
:10131000194301430802F978000A090608431949EC
:101320000860121DA242E8D301210320800601615A
:10133000816AC905FCD5FF2101318162124800F0A4
:1013400049F8A54209D00398361900192D1BFF242E
:1013500001340390A542ADD8ABE703208006416974
:10136000FF220832914341614169012211434161E9
:10137000016A890889000162016A11430162002043
:1013800005B0F0BD8000000C1A06000038B401253D
:10139000032080066A46C560352141600561816A87
:1013A000C905FCD5FF24013484628169C560CBB2D4
:1013B000052141600561816AC905FCD584628069A7
:1013C0001902C0B2014388B21180C00700D00120C9
:1013D00038BC7047F8B400210125032292066B4601
:1013E000D560352454601561946AE405FCD5FF2767
:1013F000013797629469D560E4B20526566015619D
:10140000966AF605FCD5976296692402F6B23443D3
:101410001C80E30722D0814202D9F8BC002070472B
:10142000032292066B46D560352454601561491C31
:10143000946AE405FCD597629469D560E4B2052608
:1014400056601561966AF605FCD59762926924028A
:10145000D2B21443A2B21C80D207DCD1F8BC012066
:10146000704700002E2E5C2E2E5C2E2E5C2E2E5CE5
:1014700073646B5C4E333257423033785F53444B66
:101480005F56322E302E305C4E3332574230337836
:101490005F53444B5F56322E302E305C6D6964646E
:1014A0006C6577617265735C4E6174696F6E73749D
:1014B0006563685C626C655F6C6962726172795CBD
:1014C0006E735F6C6962726172795C6466755C6E82
:1014D000735F6466755F73657269616C2E6300008B
:1014E000001500010040002020000000AC070001B2
:1014F000201500012040002000300000BC07000142
:1015000000000000000000000000000000000000DB
:1015100000000000000000000000000000000000CB
:1020000093DBCB5FFFFFFFFF00400001D87D0000A6
:102010003D0937B60100000001000000FFFFFFFF8F
:10202000FFFFFFFFFFFFFFFFFFFFFFFFFFFFFFFFC0
:10203000FFFFFFFFFFFFFFFFFFFFFFFFFFFFFFFFB0
:10204000FFFFFFFFFFFFFFFFFFFFFFFFFFFFFFFFA0
:10205000FFFFFFFFFFFFFFFF00C00301003C000088
:10206000AC2B234C01000000FFFFFFFFFFFFFFFF31
:10207000FFFFFFFFFFFFFFFFFFFFFFFFFFFFFFFF70
:10208000AE1C41A5F435DD3D89C800D80F8D2AC2AC
:10209000633A0237245D2DDBF046A16A5E43264495
:1020A00073207D1686EA416BA38D0D60DA61CD98B1
:1020B00053D522A5146AEE64BBB47E4039A6B52977
:10400000485F0020F9400001014100010341000127
:1040100000000000000000000000000000000000A0
:104020000000000000000000000000000541000149
:1040300000000000000000000741000109410001EC
:104040000B4100010B4100010B4100010B4100013C
:104050000B4100010B4100010B4100010B4100012C
:104060000B4100010B4100010B4100010B4100011C
:104070000B4100010B4100010B4100010B4100010C
:104080000B4100010B4100010B4100010B410001FC
:104090000B4100010B4100010B4100010B410001EC
:1040A0000B4100010B4100010B4100010B410001DC
:1040B0000B4100010B4100010B4100010B410001CC
:1040C0000448854600F04CFA004800475D76000140
:1040D000C046C046485F002040BA7047C0BA70472B
:1040E0000138FDD17047000040BA7047C0BA704730
:1040F0000138FDD17047000004488047044800475C
:10410000FEE7FEE7FEE7FEE7FEE7FEE7A14A000165
:10411000C140000130B50B46014600202022012499
:1041200009E00D46D5409D4205D31D469540491BEB
:104130002546954040191546521E002DF1DC30BD34
:10414000F0B51FB40646002082B005464024019118
:1041500000901BE0019922460F46304600F090F98E
:10416000049A059B801A994110D31046194622469D
:1041700000F076F9361A8F4101972246012000217E
:10418000009F00F06DF938184D4100902046641EE4
:104190000028DFDC019B00982946324607B0F0BDBD
:1041A0000549064A08685043054A801808604008D7
:1041B0007047014908607047E04700206D4EC641D6
:1041C0003930000003460B439B0703D009E008C9C0
:1041D000121F08C0042AFAD203E00B780370401CB7
:1041E000491C521EF9D27047D2B201E00270401C45
:1041F000491EFBD270470022F6E710B513460A4667
:1042000004461946FFF7F0FF204610BD30B50446BE
:104210000020034600E05B1C934203D2E05CCD5CCF
:10422000401BF8D030BD0000F0B51FB488B00B992A
:104230000998002448400999C00F4900490809918C
:10424000C0070B990090490049080B9109990898FB
:10425000A64608431CD00B990A98084318D0099821
:1042600001244000420D4800410D09982405000337
:10427000000B204309900B980003000B20430B9088
:1042800050181C494018002201901446104605E0C1
:10429000002001460DB0F0BD032801DA034600E01E
:1042A00003239C46C11A0AAE0AE05F0008ADED5B2D
:1042B0004F00F75B7D430027AA187C41491C5B1E19
:1042C0006145F2DD410004AB5A522104120C0A434D
:1042D000240C401C0828DFDB0198029000997046EE
:1042E00001910090059B049A0799069800F0E6F862
:1042F000D0E700000DFCFFFFF0B50C465C4085B038
:10430000E40FE40703944C00002664085900944627
:10431000490802460296224321D062460A431ED033
:104320006200570D4A000E032303550D0124024677
:104330002C492405781B1B0B360B401823432643BE
:10434000614600901C46501AB44103D30098401CAB
:10435000009002E0921800985B41002803DA0020E8
:10436000014605B0F0BD002001210905074686463B
:1043700011E064461D46141BB54106D36546521B29
:10438000B341744607430C43A646CD07400849088D
:10439000284392185B4105460D43EAD11046184365
:1043A00013D06046194650407140084306D060461D
:1043B000101AB34106D20122002306E00022012395
:1043C000DB0702E00122D243531000987446010536
:1043D000381C6141029C039D0019694100F061F89D
:1043E000BFE70000FD0300000EB505490291002162
:1043F00000910A460B46019100F060F803B000BD41
:10440000330400000EB5054A0292002200921346C2
:10441000019200F053F803B000BD00003304000027
:104420004A0009030123090B1B0519430A4B10B568
:10443000520D9A4202DA0020014610BD064B343379
:104440009A4203DC9A1A00F01BF810BD034BD218F5
:1044500000F006F810BD0000FF030000CDFBFFFFD9
:1044600010B5202A04DB0146203A9140002010BDFF
:10447000914020239C1A0346E3401943904010BD0D
:1044800010B5202A04DB0846203AD040002110BD98
:104490000B46D340D0402024A21A9140084319462D
:1044A00010BD10B5002B08DA0024401C61419218A1
:1044B0005B411A4301D14008400010BDF0B51FB464
:1044C00082B005460C0003D0084600F07BFC02E0F9
:1044D00000F078FC20300246009021462846FFF785
:1044E000BFFF049B059A04460F4618431143084337
:1044F00014D0184610431BD0009840210A1A1846C1
:104500000599FFF7BDFF05460E46009A05990498E8
:10451000FFF7A6FF084305D0012004E020463946F6
:1045200007B0F0BD0020C11705430E432C433743AD
:1045300000990E986305401A7905E40A00220C439D
:10454000FD0A0A3002D500200146E9E701051019ED
:1045500069410C9C0D9D00196941FFF7A2FFDFE73F
:10456000064C0125064E05E0E36807CC2B430C3CC6
:1045700098471034B442F7D3FFF7A6FD94B7000173
:10458000B4B7000170B58C180578401C6B075B0F41
:1045900001D10378401C2A1106D10278401C03E0A7
:1045A00006780E70401C491C5B1EF9D12B0705D400
:1045B0000023521E0DD40B70491CFAE70378401CEF
:1045C000CB1A921C03E01D780D70491C5B1C521E17
:1045D000F9D5A142D8D3002070BD000003B4014832
:1045E000019001BD232A000003B40148019001BDE0
:1045F000AF7F000003B40148019001BDB551000038
:1046000003B40148019001BDD37E000003B401480A
:10461000019001BD697E000003B40148019001BD15
:10462000C37F000003B40148019001BD7910000070
:1046300003B40148019001BD9957000003B401483B
:10464000019001BD6D56000003B40148019001BD09
:10465000ED57000003B40148019001BDE95400008A
:1046600003B40148019001BD1D7C000003B4014862
:10467000019001BDAB52000003B40148019001BD9F
:10468000F58F000003B40148019001BDB143000063
:1046900003B40148019001BD85290000014948612A
:1046A0007047000000040140054B002219685B6957
:1046B0000140034202D0002900D001221046704779
:1046C0000004014010B4837919490268002B28D0F6
:1046D0000B6893430B604A6803689A434A60027907
:1046E000521813680468234313608A6803689A4366
:1046F0008A60CA6803689A43CA604279102A06D061
:1047000051180A68006802430A6010BC70478A6842
:1047100003681A438A60CA6800680243CA6010BC12
:1047200070470079401801689143016010BC7047E0
:1047300000040140002200292DD0F0B40123934051
:104740000B4222D0056856000324B440254305607F
:10475000150707D5466A5507EF0E0F25BD402E43B6
:10476000466206E0066A5507EF0E0F25BD402E4350
:10477000066245689D434560C568A543C560846879
:104780001C438460C46A9C43C4620B46521CD340E1
:10479000D4D1F0BC704770470B680022002B56D074
:1047A000F0B401240B68944023424AD04B68022B9A
:1047B00001D0122B16D113070AD5456A5307DB0E19
:1047C0000F269E40B5434E699E402E43466209E047
:1047D000056A5307DB0E0F269E40B5434E699E4087
:1047E0002E4306624B68012B05D0112B03D0022B00
:1047F00001D0122B06D14568DB06DB0FA5439340A1
:104800002B4343600568530003279F400E79BD4347
:10481000B607B60F9E402E430660C5688E68BD433E
:104820009E402E43C66085680126A543CC6894400F
:104830002C438460C46A9E400D69B4439D40254367
:10484000C5620B68521CD340ABD1F0BC70477047B7
:1048500005490160002242600F218260416101210F
:104860000261C16070470000FF3F00008162704735
:104870008161704742694A4042617047F7B5FFB0B5
:1048800004460025A5B00520EFF31087FF21009016
:10489000453102A8FFF7AFFCEFF31086FF21453149
:1048A00053A8FFF7A8FC53A8013001909822224991
:1048B00053A8FFF787FC012080F3108801988047F8
:1048C00086F3108801221D49120303265300360384
:1048D00088420AD194421AD09C4201D1151116E0A7
:1048E000B44210D101256D0211E0154988420AD168
:1048F000944201D115460AE09C4201D11D4606E0D2
:104900003546AC4203D000987FB028B0F0BD06AC6D
:10491000FF22013441320B4902A8FFF753FC01206A
:1049200080F310882846A69AA599A04787F3108897
:104930007FB028B0F0BD0000A4AB0001C44013005C
:104940008560130064AA000110B5EFF31084012103
:1049500081F31088FF210906401803490968884738
:1049600084F3108810BD00000040002010B50848F6
:10497000064901600749416007498160C9229200E8
:1049800006490748FFF71EFC10BD0000B94800208B
:10499000004000204D4900202148002048AC000183
:1049A0001848002010B5EFF31084012383F310881A
:1049B000FF231B06C018034B5B68984784F31088DD
:1049C00010BD000000400020044A0029516901D0B8
:1049D000014300E081435161704700000010024034
:1049E000044A0029916901D0014300E081439161AB
:1049F000704700000010024030B4164A516804238A
:104A00001940154B01D0042901D0036001E013497E
:104A100001605168124B8906890F5B5C0168D940BF
:104A2000416053680F4C5B055B0FE35C0D46DD4056
:104A3000856053689B045B0FE35CD940C160D16A19
:104A4000C90601D5084901E07D21C903016130BCD7
:104A500070470000001002400090D0030048E801B9
:104A60003CAC000140AC000100093D0010B50A4C0F
:104A70002069411C01D000280AD1012006493422B6
:104A80000003FFF7FBFE2069411C03D0002801D082
:104A9000024810BD002010BDE44700200D48002052
:104AA000F0B5564C85B0E06921040843E0618120EF
:104AB000534D0006286353486861534828625348A1
:104AC000032201689203914301605149342280140A
:104AD000FFF7D4FE4E4B4F4E18694F4F411C29D063
:104AE000002827D0A9691A7849094901D206D20EAF
:104AF0000A43AA612168EA139143216021687F2259
:104B000012029143000208432060606830436060F5
:104B10006068B84360606068211508436060206A7F
:104B20003E4908402062206AD96809020843206291
:104B300005B0F0BD61682046314361606168B943EA
:104B4000616061680127BF023943616000210491FF
:104B50007D21C9000391002100917F21402400257F
:104B600002950191026861028A4302600E11234995
:104B700008687F2212029043220202430A60052045
:104B8000FFF7AEFA0120FFF7ABFA1C48406B800735
:104B900004D4284603996D1C8842F3D91748C06B8A
:104BA00080B2B04201D9811B00E0311AB94202D271
:104BB000E2B28FB20292B04201D3019400E00094BD
:104BC000019A00988018C005000EA04203D0044648
:104BD00004988142CBD8094801687F221202914390
:104BE000029A12020A430260416849084900416082
:104BF00041684907FCD405B0F0BD00000010024038
:104C0000007000400F080000180002000010014072
:104C1000E44700200000010000070000FF00F8FF4B
:104C20000029818903D001225203114301E0024A85
:104C30001140818170470000FFDF000002461288AA
:104C400000200A4200D001207047000070B50446E1
:104C5000008A86B00D461B490840E988014321823D
:104C6000A08919492A890840A98811436A89024301
:104C70001143A181A08A15490840A9890143A18255
:104C80006846FFF7B9FE1248844201D1039800E05C
:104C900002982968192289005043FFF73BFA06461B
:104CA0006421FFF737FA0501280964214843301AC7
:104CB00000013230FFF72EFA0007000F2843208151
:104CC00006B070BDFFCF0000F3E90000FFFC00005C
:104CD00000380140C905C90D81807047FFB58BB010
:104CE000149C00251E46074665570246009502A8FB
:104CF000231D0D9905F0C6FC02A8014623460A466D
:104D000005F0B0FC3946234602AA084605F0AAFC85
:104D10000D99234602AA084605F0A4FC3146231D3E
:104D2000009508460C9A05F0ADFC324602A82346D1
:104D3000114605F097FC02A9231D3A460846009546
:104D400005F0A0FC02A9231D009508460D9A05F068
:104D500099FC0D99231D3A460095084605F092FCF2
:104D60000C99234608460D9A05F07CFC231D02AAE7
:104D7000394600950D9805F085FC314623460846D6
:104D80000D9A05F06FFC3146231D009508460C9ADC
:104D900005F078FC2A4602A90D9805F030FD0FB009
:104DA000F0BD00000FB410B503A9044B044A0298EB
:104DB00000F038F810BC08BC04B0184719610001B5
:104DC000C40100202021020C01D010211046020A4B
:104DD00001D010460839020901D01046091F820887
:104DE00001D01046891E420801D0881E7047081A5B
:104DF0007047F0B404148BB2264682B25E430D14A1
:104E0000104637145843360480190021794116465C
:104E10006E43371436048019794126466E4389194A
:104E2000F0BC7047FFB591B00F460546002606E07E
:104E300025280AD0149A139990476D1C761C28785F
:104E40000028F5D1304615B0F0BD002400940121B2
:104E5000F34A029400E004436D1C2B780846203B83
:104E600098401042F7D128782A280ED002222878BC
:104E700001463039092915D800990A235943303998
:104E8000401814436D1C0090F1E701CF00900028FA
:104E900005DA0120400304430098404200900220BC
:104EA00004436D1C28782E2815D10420044368780B
:104EB0006D1C2A280AD101CF6D1C02900BE00299CB
:104EC0000A225143303940186D1C0290287801465F
:104ED00030390929F3D928786C2810D006DC4C2801
:104EE0001AD068280ED06A2817D104E0742813D08D
:104EF0007A2812D110E00120400504430CE0012182
:104F0000090501E0032109050C436978814203D1B9
:104F10000120000524186D1C6D1C28786E281ED0F9
:104F20000CDC632831D004DC00288BD0582811D148
:104F3000B2E064287BD069280CD178E073282DD0AA
:104F400004DC6F2870D0702804D1A7E075286CD0DD
:104F500078286BD0149A13999047761C62E060020F
:104F6000400F022807D003280AD0042838680AD046
:104F700006603F1D56E03868F11706604160F8E7AB
:104F800038680680F5E70670F3E7387869460874F4
:104F90000020487404A80390012003E038680390BF
:104FA0000020C0433F1D61070FD5002101E001999A
:104FB000491C029A0191914213DA8142F7DB019A6E
:104FC0000399895C0029F2D10BE0002101E00199ED
:104FD000491C01918142FADB019A0399895C0029FD
:104FE000F5D101990098139A401A00902146149B1C
:104FF00000F03CF901998019461807E003980399DD
:105000000078491C0391149A139990470198401E07
:105010000190401CF2D12146149B139A009800F095
:1050200015F986196D1C0AE741E033E034E00A20E7
:105030000021049005916002410F022905D001CFA3
:10504000C2179446032905D007E0FF1DFF08FF00A3
:1050500003CF06E000B2C2179446042902D140B241
:10506000C1178C4600226146944506DA0A460021A3
:10507000404291418C462D2102E0210504D52B218F
:105080006A461176012103E0E10701D02021F7E70C
:10509000019155E00A200BE0102009E01020049057
:1050A00000210420044308200591029003E0082019
:1050B0000021059104906002410F022905D001CF23
:1050C00000229446032906D006E0FF1DFF08FF00DA
:1050D00003CF8C4603E080B2042900D1C0B2002186
:1050E000019121072CD529780391702906D0049AC3
:1050F0001021059B4A401A4305D00EE040216A4624
:105100001176012108E06146014306D030216A464C
:1051100011760399517602210191049A0821059B89
:105120004A401A430CD16146014301D1610707D5BA
:1051300030216A461176012101910299491E02919E
:105140002978582904D037A103910FA90F910DE0B8
:1051500039A1F9E76146059B049AFEF7F1FF039B2D
:105160008C469B5C0F9A521E0F921370614601434E
:10517000F0D10F9807A9081A20300390600704D5D2
:10518000012000048443029801E001200290039969
:10519000884201DD401A00E0002041180290019889
:1051A00009180098401A0090E00306D42146149B89
:1051B000139A009800F05AF886190020049008E02D
:1051C00006A9085C149A139990470498401C761C11
:1051D000049001998842F3DBE0030CD52146149B2F
:1051E000139A009800F042F8861904E0149A3020CF
:1051F00013999047761C0299481E02900029F5DC0D
:1052000008E00F980F990078491C0F91149A139990
:105210009047761C0399481E03900029F1DCFAE6BA
:10522000092801003031323334353637383961627C
:105230006364656600000000303132333435363740
:10524000383941424344454600000000F8B5044661
:1052500000251E461746880404D405E03946202060
:10526000B0476D1C641EF9D52846F8BDFFB504464D
:10527000002581B01E46C80301D5302700E0202755
:10528000880404D505E038460399B0476D1C641EB8
:10529000F9D5284605B0F0BD00B599B06021684643
:1052A000FEF7A9FF042008AAD07012A000680190A0
:1052B0000B2010AAD070024610A109A8FEF782FFA9
:1052C000002010AA107101215171D0719171907359
:1052D0001175D082A02010839176B420908319207C
:1052E0008001D08308480090684602F091FB19B015
:1052F00000BD000003160A18000000000AFFFFFFAF
:105300004E6174696F6E73000D53000170470000A9
:1053100010B58CB00024009401940294039404947A
:10532000059406940794089409940A94FFF79EFB49
:10533000002804D0014601A8FFF750F907E011A0AA
:1053400001886A4691804188D180808810816946B1
:10535000CC704C810A2088700C220A7303A80BA120
:105360000130FEF72FFF06206946088418224A8480
:105370008884FF20F530C8840C85684602F00AFC5A
:105380000CB010BD89227744556600004E33325769
:10539000423033315F4F54410000000000B583B00C
:1053A0000D4900910D490020019102906946087253
:1053B000684602F02BFDFFF7ABFF00F03BF8FFF76C
:1053C0006BFF074802F090FA064802F08DFA02F0EF
:1053D00043FB03B000BD0000E9530001B1590001D7
:1053E00079550001A157000110B5017801290BD0B2
:1053F0000A4C02290CD0032905D102F02DFB4021D3
:10540000204600F055FB10BD05A0FFF7CBFC10BDFA
:105410004021204600F05CFB10BD00000008014068
:105420004150505F424C455F4F535F524541445994
:105430000D0A000000B587B0002001900090039095
:1054400004906A46069010730C49029105219170F0
:10545000032313701023D370507010710123537104
:1054600090715073064805907D2091730001108261
:10547000104603F045FF07B000BD000040E2010008
:1054800000B0030110B5024802F02CFF002010BD4F
:10549000304E00202F48007900285AD1F8B56D20F1
:1054A0002C2303220721400112F446D3A0210446F5
:1054B000017029480027C178617027710321E180BC
:1054C0006772012666710721244D2177A9796177DA
:1054D000687B002803D0E780032060710EE0E87944
:1054E00000280BD0A879022800D166772671E680C3
:1054F0002046A97920304170867007701548807960
:10550000022804D0032815D004281BD116E003F08C
:10551000E9FE00280BD00520E0806771688A606191
:10552000688AA06120460A3002F066FF0AE0094955
:1055300003208871288B6061288B02E0E88B606112
:10554000E88BA061034806714671204612F430D3FF
:10555000F8BD7047884D0020104E00207C4E002082
:10556000BFF34F8F03490248C860BFF34F8FFEE778
:105570000400FA0500ED00E010B584B00A23032210
:105580000721104812F4D8D21B210170002141706C
:105590001424448003228280C1800B4A028112F4C9
:1055A00007D36846048009480190684602F0F6FB7C
:1055B000684604810648039002A804F049F804B044
:1055C00010BD00001B0D0000FF01000074B70001BA
:1055D000A95C0001FFB585B0054602A800901C46F5
:1055E0002846069903F02EFF6846007A002866D008
:1055F00006980090280A334A019403900E2826D07A
:10560000314800240178002951D92F48E1000818B9
:10561000828803998A4240D1009A81689646019A0D
:10562000284694460A791206120E36D00968254B90
:10563000D700083FCE1937887668BFB2874201D0BD
:105640009F4226D1634603227146B04725E01F4999
:10565000681809282BD800981D49844608792E46D9
:1056600000062346000E1ED0C4000F68083C3C19FB
:1056700027886468BFB2B74201D0974204D10322A1
:1056800061462846A0470EE0401E0006000EEBD102
:1056900009E0521E1206120ECAD10B48641C007893
:1056A000E4B2A042B1D86846007A002807D0094881
:1056B000426C002A02D0284606999047002009B083
:1056C000F0BD0000FFFF0000344D0020EEF1FFFFB1
:1056D000A4B00001884D002010B502F0C9FD0448B7
:1056E0000169002901D004208847002010BD000076
:1056F0009C4E002070B5224C606B224DC00722D01A
:10570000A06B21497E2209685143401A2988491E0D
:1057100029804B21C90040181C49884213D300201E
:105720002880206A40084000206219490868020465
:10573000930F184A01D0904300E0104308601648C8
:10574000407802F0CFFA298801200029216B07D088
:105750000143216305220321104812F4AFD40DE068
:10576000FF22120291432163216B05229202114311
:105770002163216B0143216303F05AFE002070BDB9
:1057800000100240344700208C000020B1040000CB
:105790000010014000C00000084E0020010F000072
:1057A00010B584B0FFF7E2F8182303220721104850
:1057B00012F4C2D11B21017000224270492444809E
:1057C00003218180C280C2600261828212F4F0D122
:1057D0006846048007480190684602F0DFFA684690
:1057E00004810548039002A803F032FF04B010BD05
:1057F0001B0D00008CB70001E18D000100207047F7
:10580000F8B5184D184FE879002801D02E7B00E03C
:10581000FE780322331D0721144812F48DD1A921EB
:10582000044601701248C178617000216180E879F6
:105830001049002803D02A7B896C201D02E0FA78E9
:10584000201D091DFEF7BEFC6088022180196080C2
:1058500007480279062A00D001714171204612F4EE
:10586000A7D1F8BD7C4E00205C4E0020A60D0000A4
:10587000884D00203C4E0020F8B51F26232303222C
:105880000721284812F458D10446AA20264F207038
:10589000F878264D6070E8786080EA782449201D09
:1058A000FEF790FC6288B01AC1B2201D1018214A80
:1058B0000326032910D92B79002B0DD0067019234C
:1058C00043705389091F1B0AC370937A83706388DE
:1058D000C9B21B1D6380001D02291AD96B79002BE8
:1058E00017D0137B891E8B4200D21946CDB2691C9A
:1058F0000170117BA94201D1092100E0082141700A
:105900002A460D49801CFEF75DFC6088AD1C4019DD
:1059100060803879062800D03E717E71204612F4EE
:1059200047D1F8BDA60D0000884D00207C4E002018
:10593000604E0020104E00201D4E00207047704722
:1059400070B53A2303220721164812F4F5D0A4219A
:10595000154D04460170E8786070A979134800225B
:10596000022910D0032913D0042916D06280227195
:10597000807901F07BFD05202871042068712046A4
:1059800012F416D170BD018A642359436180EEE799
:10599000C18A642359436180E9E7818B64235943B9
:1059A0006180E4E7A10D0000884D00207C4E0020BE
:1059B0007047F0B589B00E4607461D461446684646
:1059C000114604F04FFE39462B466A46084604F05D
:1059D00049FE69462B462246084604F043FE3146FE
:1059E0002B466A46084604F03DFE09B0F0BD0000B3
:1059F000421C01D10020704730B4214A5369402431
:105A0000234353611F4C0122A2608B0700229B0F8E
:105A1000012B04D0022B08D0032B1BD10FE01A4A14
:105A2000226002782260012214E0184A2260427843
:105A3000037812021A4352BA226002220AE0144A80
:105A400022600278437812041B021A4383781A43B7
:105A5000226003228A4210D2835C521C855C1B02A6
:105A60002B43521C855C1B022B431B02521C855C82
:105A70002B432360521C8A42EED3206830BC70470F
:105A800000100240003002409D9EA56A0ACD469754
:105A9000D02160CC70B500240546002807D97D26AA
:105AA00076013046FEF724FB641CAC42F9D370BD8E
:105AB00070B50C46054601210420FEF791FF012137
:105AC0000820FEF78DFFA1B22846FEF7CFFE70BD7D
:105AD00070B50C46054601210420FEF781FF012127
:105AE0000820FEF77DFFA1B22846FEF7C1FE70BD7B
:105AF00070B50C46054601210420FEF771FF012117
:105B00000820FEF76DFFA1B22846FEF7B3FE70BD78
:105B100070B586B001210420FEF762FF0121082044
:105B2000FEF75EFF01240E4E0025009469463046C4
:105B300002950194FEF730FE01944020094C00903C
:105B4000694602952046FEF727FE01213046FEF702
:105B50008DFE40212046FEF789FE06B070BD000094
:105B6000000C01400008014002460020802901D9B4
:105B70008D207047062A06D0072A07D0082AF8D1B8
:105B80000729F5D170470829F2D170470629EFD3CC
:105B900070477047704770B5C46805466068002854
:105BA00003D00020002802D00CE00120FAE7201DDD
:105BB000FEF71AFD11F4B0D66068002808D0002066
:105BC0000028F4D00020E860204611F4A5D670BD6E
:105BD0000120F5E730B40446A2890920521C93B293
:105BE000E48900222546D540ED0707D05D1C8D4293
:105BF00002D130BC104670479B1C9BB2521CD2B2E3
:105C0000092AEFD330BC7047FFB585B00E9D04461E
:105C10002F8801201E4600213A46CA40D20704D0F0
:105C20004B0003225B1C9A401043491CC9B209294E
:105C3000F2D3049030461E210840218A184A0023DE
:105C40000191009302920390132304AA1549069828
:105C5000FEF7D0FC009000281FD10121142011F480
:105C6000E5D60746E06006980188B9812988F98160
:105C7000F00701D00120C003079908433880208A2B
:105C8000788014206082204600F060F8381DFEF70E
:105C9000B7FC208A002112F41FD0009809B0F0BD93
:105CA0008CAF00010A1800000048704724B00001C2
:105CB000FFB5087881B00C46092836D2142003F0CD
:105CC00093FC0746217800F0FDF800282BD061787E
:105CD0002078FFF749FF060028D17D68002D0ED0FF
:105CE00020782979814207D12946381DFEF78EFC9C
:105CF000284611F411D602E02D68002DF1D160780C
:105D00000121083011F492D6054620782871607878
:105D100068716278A11CA81DFEF754FA2946381D47
:105D2000FEF77AFC02E0822600E081260223064884
:105D3000039A049911F400D721780170467011F488
:105D400037D7002005B0F0BD0114000010B504469F
:105D5000142003F049FC04492160032161811230C1
:105D600060600120208110BD34B00001F8B51746F5
:105D70000C46104611F49ED7012831D1142003F0AF
:105D800033FC0546017C00F09DF80646297C22780C
:105D90001448914214D1697C637809023A46891DFE
:105DA0009B1D11F4C9D60546068000202871607835
:105DB00068806278A11C681DFEF704FA284609E095
:105DC000697C062309023A46891D11F4B5D606807E
:105DD0008021017111F4ECD60021384611F47CD7F2
:105DE0000020F8BD140C0000F8B50F460024097817
:105DF00018462546092923D20B007B441B79DB1862
:105E00009F440407101316190A1C0D00052417A53A
:105E100016E00A2417A513E0082419A510E00724AA
:105E20001AA50DE00A241BA50AE005241CA507E01D
:105E300005241DA504E005241DA501E006241EA5DA
:105E40000146A31C1E4811F477D6064638783070F8
:105E50007470002C04D022462946B01CFEF7B2F91B
:105E6000304611F4A5D60020F8BD00004E53494E2F
:105E7000470000004E532D424C452D312E3000007E
:105E8000123456FFFE9ABCDE00000000025E0440A1
:105E900000000300312E302E302E302D4C450000F6
:105EA000312E302E30000000362E312E3200000010
:105EB000362E332E30000000FFEEDDCCBBAA0000F2
:105EC0000314000010B48289C489521C93B20022CA
:105ED0002046D040C00706D0914202D15B1C9BB245
:105EE00005E09B1C9BB2521C52B2092AF0DB092A26
:105EF00002D010BC1846704710BC00207047FFB598
:105F000000255D570021074693B01C4616460846FB
:105F1000002D7EDD8300D358401C194340B2A842B7
:105F2000F8DB002975D0149902A823460A4604F02C
:105F300099FB234602AA39460AA804F093FB02A85B
:105F4000014623460A4604F08DFB14992346324647
:105F5000084604F087FB324611462346084604F003
:105F600081FB3946231D32460846009504F06CF942
:105F700032461146231D0846009504F065F9324665
:105F8000231D39461046009504F07CFB3946234614
:105F90003246084604F066FB3A46231D1146304659
:105FA000009504F051F93946231D32460846009504
:105FB00004F04AF93878C007C00F13D039462B4691
:105FC000221D084604F00BF900902946384604F0DB
:105FD00004FCA800C01980380099C26FC9070A43A1
:105FE000C26703E02946384604F0F7FB3A463046DC
:105FF0002346114604F036FB3146231D0AAA084603
:10600000009504F03FFB3146231D0AAA084600957F
:1060100000E024E004F036FB0AA9231D32460846BE
:10602000009504F02FFB394623460AAA084604F0DF
:1060300019FB02AA231D39461046009504F022FBE5
:106040002A463146384604F0DAFB2A46304614998F
:1060500004F0D5FB2A4602A9149804F0D0FB17B02F
:10606000F0BD0000F8B526494D68264EF0690F04D2
:106070003843F0612448026B07231A43026300206F
:106080004860FEF7CFFA21490120214C08702068B2
:106090008006FCD4012080F310881C480078012879
:1060A00003D0002080F3108821E002F09DFF0A2039
:1060B00020601848016904221143016130BF306A31
:1060C0000121084330627068890208437060F069FA
:1060D0003843F061B0690D210843B061084845605C
:1060E00002F0ECFE02F08EFF0848062101706068A5
:1060F000FF2101310843606020688006FCD5F8BDAF
:10610000001001400010024000800240800000208A
:106110000070004000ED00E070B50B4C05462078A3
:1061200000280ED00020094E2070E9B23046FEF75C
:10613000D1FD80213046FEF781FD0028F9D00120F5
:106140002070284670BD0000224000200038014029
:10615000F0B50878334F344D344E801E83B00C4672
:1061600006285BD201007944097949188F44022638
:106170005636563C01203070A0786876A078C0076B
:1061800005D02B492B48FEF729FA387AA874B28A31
:10619000002A06D0FF20F53070800321264811F434
:1061A0008DD7F069002839D000200090019005209B
:1061B00069460870F169684688472FE000246C76CC
:1061C00001F0D2FCF069002828D00094062069462E
:1061D00001940870F169684688471FE01722A11CE6
:1061E0001648FDF7EFFF19E0B8780001C0194030FC
:1061F000007E002812D11C22A11C1148FDF7E2FFED
:106200000F48A18A0182E18A4182218B8182618BC0
:10621000C1820B49608A0883207F6874002003B024
:10622000F0BD0000884D0020CC4C0020E84C002040
:10623000914D0020DF4C0020040F0000C64C0020D0
:10624000AC4C0020F0B518460D46014685B022231F
:106250000322754811F470D4012104464170287856
:106260000B286FD201007944097949188F4405D071
:10627000D0D0706BBE24D0D06D0001202070607033
:106280006A48817921710179A170C179617141797F
:10629000E170017AA171417AE171817A2172C1695B
:1062A00000294FD00021009102216A46117001940B
:1062B000C16968468847ABE0072020700120607004
:1062C000684625F4CBD1019F009EFDF769FF801938
:1062D00060820025FDF764FF8119601900908170CC
:1062E000FDF75EFFC11900986D1CEDB20175082D18
:1062F000F0D30825FDF754FFB919401861196D1C3A
:10630000EDB28870102DF5D31020207748488178A1
:10631000090108184030007E012879D11C22A11CF7
:106320004448FDF74FFF4348A18A0182E18A418238
:10633000218B8182618BC1823E49608A08833E48FD
:10634000217F417464E0052000E00A2020705FE0B6
:10635000042222706878012804D0002802D0022884
:1063600034D055E00120314D6070287C002810D0D9
:1063700002A825F473D1FDF713FF3049FDF7CAFEDB
:106380002F480818029940182E49FDF7C3FE0091C6
:1063900001E0E8680090E869002808D00020029039
:1063A0000320694608720391E96902A88847102111
:1063B000A01CFDF720FF0098A0700098000AE07074
:1063C0000098010C2171000E607121E01749C86925
:1063D000002806D000200090019068460270C9692C
:1063E000884720460C3811F4D9D314E00620164D06
:1063F0002070E878012811D01021A01CFDF7FBFEC9
:10640000A9886182E988A1822989E1820020207619
:10641000204611F4CDD3002005B0F0BD10220B4969
:10642000A01CFDF7CFFEEBE7140E0000E84C0020A7
:10643000884D0020AC4C0020CC4C0020A0BB0D00AF
:10644000A08601003F420F00104E0020974D002013
:1064500030B50E480C46016C002583B0002907D0EA
:10646000009505206A460295107068460194884799
:106470002078092807D10648017A002903D005723F
:10648000607802F07BFA002003B030BD884D002018
:10649000C84D002010B584B0FF2B19D0144C226CCD
:1064A000002A08D000200090029006206B46187049
:1064B000684601919047032011F4FCD3032814D1BE
:1064C000E26F002A11D003210A4811F4F7D50CE03D
:1064D000094801230078032201020848083111F419
:1064E0002BD30721017011F463D3002004B010BD39
:1064F000884D0020090E0000084E0020050E000007
:10650000FFB51A460C461D0A83B02B464D494EA0D6
:10651000FEF748FC524EFF2DB5707DD02902342382
:1065200003225048083111F407D30546B0780027FC
:106530000101891940310873B07821880001801960
:1065400040304181B078617A000180194030417358
:10655000B07862890001811942318A81A289CA8199
:10656000E0890882207C012802D0002807D00BE0B7
:10657000B1780120090189194031087604E0B0782A
:10658000000180194030077620883080607A3072B0
:1065900021460A313448FEF721F802F0A3FE002814
:1065A0001BD0607A012804D1032211462F4811F430
:1065B00013D302F09FFE05280FD201007944097918
:1065C00049188F440606060206000121282041557D
:1065D00005E005212820415501E0282047550321E9
:1065E000059811F479D317203086B17809018919FB
:1065F000403188821E48C068002803D003211D480E
:1066000011F4BCD41C48028D002A03D003211B487E
:1066100011F454D5306C00E00EE0002808D00220C0
:1066200069460097087002950194316C6846884766
:10663000284611F4BDD201E001F00EFA002007B0A7
:10664000F0BD0000A3B4000125732C207369643AE7
:1066500025642C636F6E6964783A25640D0A000026
:10666000884D0020020E0000914D0020150D000005
:106670009C4E0020030F0000104E0020020F00006F
:1066800030B50C461D0A83B089782A4615A0FEF75E
:1066900089FB28011D4DFF2140194030017301F095
:1066A000AFFA002803D10221032011F415D3286C7E
:1066B000002809D00020009002900320694608704D
:1066C0000194296C6846884710211148FDF793FD15
:1066D00010480068002802D0092011F4E7D00020FB
:1066E00003B030BD424C4520446973636F6E6E65E4
:1066F000637465642C7265736F6E3A25782C636FD2
:106700006E6964783A2564200D0A0000884D0020E7
:10671000A74D0020100C002000B5084883B0C169C7
:10672000002907D000200090019009206A461070CF
:1067300068468847002003B000BD0000E84C0020F8
:10674000FFB591B00D46122303224648149911F467
:10675000F3D104460020207043480078002866D01A
:106760004148407C002836D03C216846FDF743FD77
:1067700001F006FE002844D004A90F913A49461EB4
:10678000F0B23A228969504341186846091DFDF765
:1067900019FD6846008B2988884206D10822A91C69
:1067A0000F98FDF733FD00280BD0207800280ED07D
:1067B00008A8407C607410226946601CFDF702FD49
:1067C0001FE02AA0FEF7EEFA01202070F0E7300665
:1067D000000ED3D12BE02B482988008B884226D18C
:1067E0000822A91C2848FDF711FD002809D1012025
:1067F000207026481022407C60742249601CFDF7FE
:10680000E1FC2078002812D01749C869002808D078
:1068100000200090019007206A461070C969684600
:106820008847204611F4C4D1002015B0F0BD0E49B0
:10683000C869002808D000200090019008206A460E
:106840001070C969684688470223032210481499CA
:1068500011F472D1012101700621417011F4A8D107
:10686000DFE70000180E0000E84C00206564697640
:106870002672616E645F6E62206D617463680D0ADA
:1068800000000000AC4C0020BC4C0020CC4C002090
:10689000040E000070B50C4609781B481B4D1E46BF
:1068A000002904D0012912D002292BD11AE01C237F
:1068B000314611F441D1064620783070287B708033
:1068C0002A7B1349301DFDF77DFC304607E00A2383
:1068D000314611F431D1217801706989418011F478
:1068E00067D10FE00A23314611F426D121780170D7
:1068F000298C4180698C8180A98CC180E98C0181BF
:1069000011F456D1002070BD0B0E0000104E002077
:106910001D4E002010B50C464A78097803A0FEF7FA
:1069200041FA207800F0A2FD002010BD74785F705D
:1069300068793A25642C2072785F7068793A25640A
:106940000D0A000005480A8842861A0A120110182A
:1069500009884030C182002070470000884D002027
:1069600030B5180AC043000683B00D46000E22D091
:10697000190A0902E120062303220001083111F45B
:10698000DBD004460120207002206080FF204130CF
:10699000A0800B48016C002909D00021009104213E
:1069A0006A46117001950294016C6846884720463A
:1069B00011F4FED001E001F04FF8002003B030BD2B
:1069C000884D002000B5084883B0026C002A08D02A
:1069D00000200090029008206B46187068460191D4
:1069E0009047002003B000BD884D002070B51846C8
:1069F0000C46014602230A4811F49ED00546094977
:106A0000A07808736288211D0748FDF7DBFB002092
:106A1000687020782870284611F4CAD0002070BD14
:106A20000D0E0000104E00201D4E00204A780B482D
:106A3000002A05D02030012A08D0022A09D00AE015
:106A40000279012A07D10978C17004E0097801753B
:106A500001E009784175002070470000884D002052
:106A600070B54878002806D0FF25124C01280BD0BD
:106A7000022816D01BE010480179062917D10721FA
:106A8000017100F057FF12E0207DFF280FD001F0C8
:106A90004FF80A4825750169002908D00020884769
:106AA00005E0607DFF2802D001F024F86575002024
:106AB00070BD0000A84D0020884D00209C4E002095
:106AC00010B5032B06D010220548891DFDF77AFB6F
:106AD000002010BD0348017A034801F007FDF7E7E5
:106AE000A74D0020884D0020914D0020F0B54B7837
:106AF0008DB00D46002B04D02A78E649E6A0FEF7BB
:106B000051F9EC4E2878344600272034A1287BD058
:106B100012DCE9490C911B2877D006DC012819D03A
:106B200003287DD017286ED150E128286FD09128F6
:106B30006ED0A02867D153E10146A239092962D25B
:106B40000A007A44127992189744FD5DFCFC5DFCC2
:106B5000FBFCFC006878002855D1012002F0A8FD5C
:106B600002F082FA342303220721D44810F4E4D738
:106B700003210170D24904468A7842700122C2760C
:106B8000FB224284CF4AC284CF4A82840A8802848C
:106B900087768A888280CA88C2800A892281487A58
:106BA0008009032805D188780522104201D10120EF
:106BB000A076A07E04221043A076C4486080C878E6
:106BC000012826D0204610210A30FDF714FB306C36
:106BD000002808D0012069460097087001950294AA
:106BE000316C68468847012000F040FC204610F4D4
:106BF000DFD7012303220721B54810F49DD71A21BE
:106C0000017010F4D5D735E11EE1CAE008E069E073
:106C100049E0204610220A300C99FDF7D3FAD6E756
:106C20000097019702970397049705970697079790
:106C3000089709970A970B9702F054FB002805D094
:106C4000684601F0F1FB0AA801F0BEFB02F04AFB26
:106C500000280CD068468079002808D108A8807BDD
:106C6000002804D00121684601F014F802E1944C98
:106C70006946A0880880E0884880208988808F71D4
:106C8000102202A80C99FDF79DFAE078012804D0A3
:106C90000697079708970997E4E7102206A80C992A
:106CA000FDF790FADEE7E07B002813D111230322E1
:106CB0000721884810F440D70546282028708048CE
:106CC000C078012808D01021681CFDF794FA2846E6
:106CD00010F46ED7E773CDE01022681C0C99FDF715
:106CE00071FAF4E7012002F0E3FC0121032010F423
:106CF000F3D77948012444841F2004907048017818
:106D0000490601D57F21049181780522114204D0E2
:106D1000FF2204998132114304910088C00504D5F3
:106D20000321049849020843049008216B4801910B
:106D30000B230290032104AA00970394C902684818
:106D400002E07BE04CE08DE0FDF754FC002846D1EA
:106D5000644806218786FF200590634801910290D0
:106D6000082305AA0097039460496148FDF742FC97
:106D700000287FD100F0C8FD00287BD1022103202C
:106D800010F4AAD7B079012808D000F08DFE594838
:106D90004078C0076ED001F005FA6BE000F05CFEB1
:106DA00068E002F09FFAE77300F0AEFD002861D1C1
:106DB0000221032010F490D7B0790128EED000F022
:106DC00073FE4C484078C007E5D153E0687800284E
:106DD00050D0F179481EF071474801F057FB49E067
:106DE0007179491E052906D8A72802D130790028D3
:106DF00006D100F09FFD2878A42801D0A72839D11A
:106E00007079042806D0062804D0082808D00C2859
:106E100030D10CE03948016800292BD0B07904E06A
:106E200034480169002925D00120884722E03148F3
:106E3000016900291ED0032088471BE03771FF201D
:106E4000F0702075607515E0207DFF2802D068780D
:106E5000002802D000F06CFE0CE026484078C00705
:106E600099D107E0607DFF2802D06878002804D01F
:106E700000F040FE00200DB0F0BDA07D0028F9D04C
:106E80001C4840788007F5D5E17D1D4801F0F8F8F1
:106E9000F0E700008EB4000125732C206F70203DB8
:106EA0002025782C20737461747573203D2025781B
:106EB0000D0A0000884D0020974D0020040D0000B1
:106EC000104E00200502000048080000A08C0000C1
:106ED000190D0000230D0000B00B0020F6B30001D7
:106EE000D20B0020680B00204EB4000101180000F6
:106EF0009C0B00209C4E0020914D00203C4E002019
:106F0000C04D002070B500250C462846401C0628C0
:106F1000FCDB254E2246307E31461A32C9690628EE
:106F20002AD203007B441B79DB189F4424020910FA
:106F3000171E0622A01CFDF769F900281BD01BE0D4
:106F4000237E092000F03EFF002814D114E0237EA8
:106F5000212000F037FF00280DD10DE0237E162000
:106F600000F030FF002806D106E0237E192000F053
:106F700029FF002800D001250C48807D002811D170
:106F80007169002901D020468847002D0AD0316957
:106F9000002901D00220884701F086F9217AA01C3F
:106FA00001F06EF8002070BD9C4E0020A84D00201E
:106FB00010B50A78000A000210434A78FF231B022A
:106FC000120298431A4010438A781B021204984315
:106FD0001A401043C9780002000A09060843FDF769
:106FE000E8F8002010BD10B5104610F463D600205C
:106FF00010BD0020401C0628FCDB0020704700006C
:10700000F8B51D4617460C46104610F453D6002816
:1070100011D1492002F0E8FA064604233A4603213A
:10702000064810F489D5290A01702188B288891A86
:10703000418010F4BDD50020F8BD000003490000D8
:1070400010B50878122804D103480021008810F4F4
:1070500043D6002010BD00002040002030B50F486E
:107060000C46016C002583B0002907D0009509204B
:107070006A4602951070684601948847207808286F
:1070800009DA012807D10648417A002903D0457260
:10709000607801F081FC002003B030BD884D0020F5
:1070A000C84D002030B5104883B00A8802861C0AFB
:1070B000220112180D8840329582026C0025002AA8
:1070C00008D0009507226B4602951A700191016C59
:1070D000684688470548A1004058002801D0403044
:1070E000C574002003B030BD884D0020580B00202F
:1070F000FFB581B0002000900E46039810F4DAD559
:10710000002802D001284CD04DE0142002F06CFA87
:1071100007463188FEF75EFD05462448092D36D224
:107120007C68002C1ED02179A94203D02468002C51
:10713000F9D117E0002C15D06379039A9B1D0499AF
:1071400010F4FAD405463088288000202871607930
:1071500068806279A11D681DFDF734F8284610F497
:1071600027D520E03D740498010A7974384602F06E
:1071700033FA014601230E48039A10F4DDD405705A
:1071800010F416D50121039810F4A6D50BE00623C0
:10719000039A049910F4D0D43188018080210171C0
:1071A000DDE702200090009805B0F0BD140C00004F
:1071B00002140000FFB583B00E46059810F47AD58E
:1071C000002802D0022007B0F0BD492002F00CFADE
:1071D000029000206946087006983488070A492002
:1071E00002F002FA81888025A14207D88079081828
:1071F000A04203D9601A6946087000250024694638
:107200008C80002D25D1087816210446284B484350
:10721000C1180A8A5204920F29D14978185C0902D0
:1072200040182449884222D1492002F0DDF9006942
:10723000002809D00179A14203D1811D002803D083
:1072400003E000680028F5D10021C85D6946888008
:107250000224A31D1848059A069910F46DD4074618
:10726000308838803D717C80002D15D019E039467A
:10727000029802F0B1F9014604231048059A10F46F
:107280005BD4077069460978418010F491D40121DC
:10729000059810F421D507E0224601A9781DFCF7D6
:1072A00091FF384610F484D4002007B0F0BD0000F0
:1072B0004447002002290000140C0000014900008E
:1072C000FFB58FB00C46492002F08EF90C900027D4
:1072D000684607711298060A0B962588492002F025
:1072E00083F982888021AA4207D880791018A842A1
:1072F00003D9A81A6946087100210D007DD168469E
:1073000000791621544A484381180B8A5B049B0F6D
:1073100079D14978105C090240185049884272D1ED
:1073200000200490059025882846FDF781F907463E
:1073300015E002A92846FDF781F9002003460090D8
:1073400006AA0DA902A8FDF77FF96846018B4448FB
:10735000814202D16D1CA8B208E06D1EADB2B888A2
:10736000A84202D8F888A842E3D2002004A900234A
:1073700000911A460AA9FDF76DF96846008D0121B2
:1073800009030840C043C004C117A0880025491C58
:10739000022801D00D250CE0E088002904D0002847
:1073A00007D0012804D104E0002802D0022800D030
:1073B0008125002D42D168460779E0880390492055
:1073C00002F012F9016900290AD00879B84204D103
:1073D0004A79881D002903D004E009680029F4D106
:1073E00000221046014668460292FCF7EBFE6A4610
:1073F000039890553846029901E01FE003E001F040
:10740000A9FB002D1AD10B990C9802F0E5F8A18880
:10741000119A891D8BB20146124810F48DD307468C
:10742000A288A11D801DFCF7CDFE3E706846007944
:107430007880A088B880384610F4BAD304230A486C
:10744000119A129910F478D321880180857010F474
:10745000AFD3002013B0F0BD444700200229000044
:107460000328000002490000160C000010B5A023FC
:107470000949022809D0002203280AD0042808D08C
:107480000B704A7000F0A2F810BD0B70802048709D
:10749000F8E7E0200870F4E70D400020F8B52A492D
:1074A0002020486029480121C163294905228A61B9
:1074B0000021C16327490B20086100F087F82748A5
:1074C000254A026326494163264B8363264CC463E5
:1074D0002748264D0560274E466027498160274989
:1074E000C1602749016127494161274981612749D5
:1074F0000163284826494160274FC760274F07612D
:107500000262274A42628362C46205634663254A77
:107510008263254AC2632648244A0260184A4260B0
:10752000244A82600163244981632448244A4168D3
:107530008918244A914206D2234982680A63C268A4
:107540004A6300698863F8BD00100140C02702400B
:1075500040250240402702400259F80040280240DE
:10756000025B8500025A8000025D8500025F805048
:107570008028024002000878020A0800026EAC501F
:107580000259FC000200C8001270131402700314A8
:10759000026E2800C0280240025D0500125B050053
:1075A000025B8400020A0600026E2C5002C3BF0078
:1075B000002902401200AC00125D05000C400020C2
:1075C0006F2895FFAF590F00C026024030B4154810
:1075D0001549037D154AFF2B06D1407DFF2803D1B5
:1075E00013484078C0070CD01248134B04789C60B5
:1075F0004078D86111480861114B8B62106030BC33
:107600007047104B0B6110484861104C8C61104D55
:107610008D62C8620F48086313600F485060946021
:1076200030BC7047A84D002000280240402802408E
:107630009C4E00200D40002000270240127E0200D8
:10764000127E0300027E020002C2A00012C70000E8
:10765000027E030012C7800002C2E00001F0D2FCEB
:107660001C4D1D4E81277F04B54201D11BA002E0B5
:10767000BD4202D121A0FDF795FBFEF749FA002497
:1076800001212648FEF734FAB54201D1642003E017
:10769000BD4203D1FF20F530FEF7FCF94021204820
:1076A000FEF726FA641CE4B20A2CE9D31B4C012134
:1076B0002046FEF7FDF940211948FEF7F9F90121AE
:1076C0002046FEF705FAFDF769FE23F469D601F0BE
:1076D0004BFEFAE700400001004000016170706C51
:1076E00069636174696F6E203120737461727420F4
:1076F0006E6577202E2E2E0D0A0000006170706CD2
:1077000069636174696F6E203220737461727420D2
:107710006E6577202E2E2E0D0A000000000C014011
:107720000008014010B50124E4022046FCF7BCFF2C
:10773000002805D02046FCF7B1FF10490220087050
:10774000012424032046FCF7AFFF00280FD0204679
:10775000FCF7A4FF01F056FC09A0FDF723FBBFF3E3
:107760004F8F0F490D48C860BFF34F8FFEE70D489C
:107770004068002800D0804710BD00008000002035
:107780004E5253542D3E4E5649435F5379737465A0
:107790006D52657365740D0A000000000400FA055F
:1077A00000ED00E040400020EFF3088401F02AFCE7
:1077B00015A0FDF7F7FA214621A0FDF7F3FA24A062
:1077C00062682168FDF7EEFA29A0E268A168FDF77A
:1077D000E9FA2FA062692169FDF7E4FA34A0E269B1
:1077E000A169FDF7DFFA3A480068002800D0804719
:1077F000384939A0FDF7D6FABFF34F8F39493848D9
:10780000C860BFF34F8FFEE72A2A2A2A2A2A2A2A8B
:107810002A2A2A2A2A2A486172644661756C7420D1
:107820004552524F523A52454720494E464F2A2A16
:107830002A2A2A2A2A2A2A2A2A2A2A2A2E0D0A000B
:107840006D7370203D203078253038782E0D0A0079
:10785000723020203D203078253038782C20097275
:10786000312020203D203078253038782E0D0A0038
:10787000723220203D203078253038782C20097253
:10788000332020203D203078253038782E0D0A0016
:10789000723132203D203078253038782C20096C28
:1078A000722020203D203078253038782E0D0A00B7
:1078B000706320203D203078253038782C200978DE
:1078C000707372203D203078253038782E0D0A00F4
:1078D00040400020E0B3000125730D0A00000000C5
:1078E0000400FA0500ED00E0064A11780A2907D2E3
:1078F0008900891848601078401C1070012070477A
:1079000000207047084D002010B5084C084AE17966
:1079100013780020994207D2880080184068804779
:10792000E079401CE071012010BD0000884D00206E
:10793000084D0020F8B5324D052629792846807972
:10794000304C08290CD20A007A44127992189744D4
:1079500003080D1313191C2A052801D0FDF79AFD01
:10796000F8BD022808D0FDF74BFFF8BD607B00286A
:1079700002D1E079002802D0FDF7E2FFF8BDFDF763
:107980007BFFF8BD06202871F8BD022303220721E2
:107990001D4810F4D1D0A5210170E978417007216C
:1079A00029716E7128E0022303220721174810F481
:1079B000C3D00746A7203870E9787970062068712F
:1079C00000202871032010F475D1032812D0A87963
:1079D000012804D0022802D003280BD104E0207D26
:1079E000002801D0032003E0A07E002802D004205C
:1079F000A87100E0AE71384610F4DAD0F8BD00008E
:107A0000884D00207C4E0020A20D0000A30D000038
:107A100010B5002804D0014660220C48FCF7D2FBC8
:107A20000B490C48CA781C2A04D9427B002A01D190
:107A30001C22CA70C1781F2901D91F21C170017B86
:107A4000E22901D9E221017310BD00003C4E002063
:107A50005C4E00207C4E0020114901220879072845
:107A60000CD08879002809D0012801D0052806D13A
:107A70000C48827B002A03D002200CE08A717047F8
:107A8000027D002A01D0032005E0807E002801D07D
:107A9000042000E00520887110B5FDF7FBFC10BD47
:107AA000884D00207C4E002070B5104C0525A07933
:107AB000062809D201007944097949188F44020245
:107AC00004040403A57170BDA571022303220721DC
:107AD000074810F431D0A5210170E17841700721E9
:107AE0002171657110F464D070BD0000884D0020D4
:107AF000A20D000010B50B4C607DFF2810D00223B2
:107B000003220721084810F417D0A7210170617DD6
:107B10004170064A00215171FF21617510F448D06F
:107B200010BD0000A84D0020A30D0000884D0020CE
:107B300010B50A4C207DFF280ED002230322072116
:107B400007480FF4F9D7A7210170217D4170054A3C
:107B50000021517110F42CD010BD0000A84D002060
:107B6000A30D0000884D002010B50848022380783E
:107B700003220102064808310FF4DED7012101700B
:107B80001321417010F414D010BD0000884D002066
:107B9000040E000010B584B0002804D001462A224B
:107BA0000E48FCF70FFB0EA00FC86C460FC40B4B22
:107BB000002069461C180A5C247922430A54401CA0
:107BC000C0B20628F6D310220A48FCF7FBFA0A498D
:107BD0000A48FCF703FD04B010BD0000104E002061
:107BE000501921901F04D5624FA489AB90D0CF23A8
:107BF00000000000974D0020144E0020FC000020E3
:107C00000020074B01460A01D2184032127BFF2A9E
:107C100001D0401CC0B2491CC9B20329F3D370473C
:107C2000884D0020F8B5184C07460D46208810F402
:107C300041D0012827D015480078002823D0012101
:107C4000208810F449D0492001F0CEFC0646284691
:107C5000083083B20E48728880780102C12000018A
:107C6000891D0FF469D7044612202070B188204680
:107C7000491DA180E5802A4639460830FCF7A2FA62
:107C800020460FF495D7F8BD20400020DE470020A5
:107C9000884D0020F8B507460B46282043430D4683
:107CA000032207210E489B1C0FF446D79121017037
:107CB000002406464570002D0ED920462821484351
:107CC000C1190022CA7180192822801CFCF77AFA97
:107CD000641CE4B2AC42F0D330460FF469D7F8BD6F
:107CE000910D0000F8B57D262025F600184B194CA3
:107CF0001949032812D00A6A01273A430A620A6A1C
:107D00009207FCD50A6AAA430A6201281AD00228FF
:107D10001AD01E60FCF7A4FC2060F8BD0F480F27A6
:107D200082683F023A438260086A04221043086274
:107D3000086A0007FCD5086A284308623D20000154
:107D40001E60E9E7064800E006481860E2E7000028
:107D50008C00002090000020001002400010014024
:107D6000D10300005704000010B50446084804235E
:107D70008078032201020748891D0FF4DDD60649E9
:107D80004C8001210170002141800FF411D710BDFA
:107D9000884D0020010C0000F00B0020084A1178EB
:107DA0000A290AD2C9004368891800688B604860B4
:107DB0001078401C107001207047002070470000B0
:107DC000344D0020FFB581B01C00064618D0107855
:107DD000411CA14214D8032C12D3401EC5B25078C6
:107DE000971CB04206D12A4638460299FCF70EFA93
:107DF000002808D07A19601B801E0406240EE6D1E4
:107E0000002005B0F0BD012005B0F0BDF0B504467E
:107E10006F4E704883B06D4FB168C1626E490163A7
:107E2000F16A8162F16B4163B16B816331467C22FF
:107E300040313846FCF7C6F900257D60FD607D6263
:107E40006648B8627D64BD64FD643D666448B8669A
:107E500064483862644865490570032008706448C6
:107E6000F91401600904016089140160F068614936
:107E70000746401E0088604B884200D01F60366E67
:107E8000701E0088884200D05E60012000030090D0
:107E9000694601950D710820487101278F71684668
:107EA000FCF710FC88215548FCF7A5F92A21544815
:107EB000FCF7A1F960215348FCF79DF952484F495E
:107EC00045618561C561056245628562C56205637C
:107ED000FF264E48CE7006754675002002015218E6
:107EE0004032401CC0B216730328F7D320680864E0
:107EF00060684864464861894180217A032901D835
:107F0000417000E0457001212020FCF75DFD414AF1
:107F10004149042001F0FAFA4149404808600A4604
:107F20004049052001F0F2FA3F4A4049072001F09C
:107F3000EDFA40493E4808600A463F49082001F0F2
:107F4000E5FA3E4A3E49092001F0E0FA3D48056362
:107F50003D48414907703D4805703D4805703D4822
:107F6000086001203D49C00208803D494F2008704B
:107F70003C49082008703C4807210670467086700E
:107F8000C170057145718571C57112483749C1616C
:107F90003749016237494162002001F003FC36494C
:107FA00003200FF4DDD6002103200FF495D6002026
:107FB00001F07EFB01230322072130480FF4BCD5DA
:107FC00007700FF4F5D503B0F0BD0000C009002024
:107FD00000400001C0000020A97700010D470020EB
:107FE000F199000125770001C6000020D80000208B
:107FF00000E100E0FEE7000040400020884D002046
:10800000104E00203C4E0020884E0020A84D00203D
:10801000084E00208040002080800100ADB00001AB
:10802000C0400020C08001000041002000DB0100B2
:10803000814100204041002040DB0100C04600207B
:10804000C06102000070004060000020C9000020F4
:10805000610000200090D0036C0000206800002028
:1080600063000020640000200801002051950001F9
:10807000799600011996000194B50001020D0000E7
:10808000F8B5404D0646687D3F4C0F46FF281CD092
:108090002046C268002A03D003213C4810F40ED0C9
:1080A0003A23032207213A480FF446D5A421017050
:1080B000697D0446417037480022017900291ED0AD
:1080C0000121A170A28002711BE06D200223032216
:1080D000072140010FF430D5A22101702E49C97843
:1080E00041700FF465D5EF7531462C48FCF776FAF0
:1080F0000120A8756078022108436070F8BDA27065
:10810000A2800120E07019214901E18022482181EB
:10811000038CE381438C2382838C6382C38CA38290
:10812000FF23E2824133184D23836D786D070DD50F
:108130000525E5706181A181018CE184418C218557
:10814000818C6185C08CA085E28523863820075507
:10815000204631463230FCF741FAE078810703D5FA
:108160000220FFF783F906E0400701D5032000E075
:108170000120FFF77BF90A490C20487120460FF4D3
:1081800017D5F8BDA84D00209C4E0020030F00001D
:10819000A10D0000084E0020104E0020C04D002010
:1081A000884D0020F8B52C4E2C4D317D0127687884
:1081B000FF2941D0C1073ED0B8436870284900204C
:1081C00008713A230322072126480FF4B5D4044648
:1081D000A4202070307D60702878A07068788006B8
:1081E000800F20716888E080A8882081E888E0817D
:1081F00028892082E7700120FFF738F96878400766
:108200000AD5E07802210843E07068886081A88878
:10821000A0810320FFF72AF96878000703D5E078EA
:108220000C210843E0701049082048710020B07507
:1082300020460FF4BDD4F8BD384368706D2002238A
:108240000322072140010FF477D4A12101700749CF
:10825000C9784170EDE70000A84D00209C4E002039
:10826000084E0020A10D0000884D0020104E002077
:1082700010B50A4C607DFF280ED00223032207218F
:1082800007480FF459D4A5210170617D4170054A5A
:108290000D2151710FF48CD410BD0000A84D0020A9
:1082A000A20D0000884D002070B50B4C207DFF28EA
:1082B00011D00A4D687909280DD002230322072125
:1082C00007480FF439D4A5210170217D417009219F
:1082D00069710FF46DD470BDA84D0020884D002049
:1082E000A20D000010B504464088A1880246491C32
:1082F00019234A43DB019A420FDC06280DD322885A
:1083000090420AD3E2887D23DB009A4205D84B00D5
:10831000C9184843D100884204DD10A0FCF742FD93
:10832000002010BD14480E23807803220102134858
:1083300008310FF401D4092101702188418061883E
:108340008180A188C180E188018100214181491E8D
:1083500081810FF42DD4012010BD0000726571756C
:1083600065737420706172616D65746572732065E8
:1083700072726F720D0A0000884D00200E0E000010
:1083800010B5084A084B906901888478994206D153
:10839000917CA14204D20024FCF7D6FA00E000242C
:1083A000204610BDE84C0020341200000B4610B5EA
:1083B00004493A228969504341181846091DFBF7C0
:1083C00001FF10BDE84C002010B590B004463C21E0
:1083D0006846FBF710FFFFF7D3FF401EC0B26946A7
:1083E000FFF7E4FF08A8807CA0710CA920460331A8
:1083F000FCF7F4F810B010BD10B590B004463C2165
:108400006846FBF7F8FEFFF7BBFF401EC0B26946A7
:10841000FFF7CCFF08A8007CA0710AA92046023112
:10842000FCF7DCF810B010BD10B590B004463C214C
:108430006846FBF7E0FEFFF7A3FF401EC0B26946A7
:10844000FFF7B4FF0AA920460231FCF7C7F808A8D5
:10845000007CA071204606A9102208300231FBF7EB
:10846000B1FE0848C17820461830012904D01021F7
:10847000FBF7C1FE10B010BD10220349FBF7A2FEAE
:1084800010B010BD104E0020974D002070B590B078
:108490000D460646FFF774FF002D23D0854221D8F4
:1084A00018230322072110480FF446D3044617204F
:1084B0002070012060703146A01CFCF78FF83C2131
:1084C0006846FBF798FE6D1EE8B26946FFF76EFF3F
:1084D000204606A9102208300231FBF773FE204621
:1084E0000FF466D310B070BD140D0000F3B58FB05B
:1084F0000C463C216846FBF77EFEFFF741FF012C4E
