:020000040100F9
:10000000F0560020E9000001F1000001F3000001BA
:1000100000000000000000000000000000000000E0
:10002000000000000000000000000000F5000001DA
:100030000000000000000000F7000001F9000001CE
:10004000FB000001FB000001FB000001FB000001C0
:10005000FB000001FB000001FB000001FB000001B0
:10006000FB000001FB000001FB000001F90500019D
:10007000FB000001FB000001FB000001FB00000190
:10008000FB000001FB000001FB000001FB00000180
:10009000FB000001FB000001FB000001FB00000170
:1000A000FB000001FB000001FB000001FB00000160
:1000B000FB000001FB000001FB000001FB00000150
:1000C0000448854600F044FA0048004771330001B7
:1000D000C046C046F056002040BA7047C0BA7047CC
:1000E0000138FDD1704700000448804704480047AC
:1000F000FEE7FEE7FEE7FEE7FEE7FEE7910F000101
:10010000C100000130B50B46014600202022012429
:1001100009E00D46D5409D4205D31D469540491B3B
:100120002546954040191546521E002DF1DC30BD84
:10013000F0B51FB40646002082B005464024019168
:1001400000901BE0019922460F46304600F090F9DE
:10015000049A059B801A994110D3104619462246ED
:1001600000F076F9361A8F410197224601200021CE
:10017000009F00F06DF938184D4100902046641E34
:100180000028DFDC019B00982946324607B0F0BD0D
:100190000549064A08685043054A80180860400827
:1001A0007047014908607047504700206D4EC641B6
:1001B0003930000003460B439B0703D009E008C910
:1001C000121F08C0042AFAD203E00B780370401C07
:1001D000491C521EF9D27047D2B201E00270401C95
:1001E000491EFBD270470022F6E710B513460A46B7
:1001F00004461946FFF7F0FF204610BD30B504460F
:100200000020034600E05B1C934203D2E05CCD5C1F
:10021000401BF8D030BD0000F0B51FB488B00B997A
:100220000998002448400999C00F490049080991DC
:10023000C0070B990090490049080B91099908984B
:10024000A64608431CD00B990A98084318D0099871
:1002500001244000420D4800410D09982405000387
:10026000000B204309900B980003000B20430B90D8
:1002700050181C494018002201901446104605E011
:10028000002001460DB0F0BD032801DA034600E06E
:1002900003239C46C11A0AAE0AE05F0008ADED5B7D
:1002A0004F00F75B7D430027AA187C41491C5B1E69
:1002B0006145F2DD410004AB5A522104120C0A439D
:1002C000240C401C0828DFDB01980290009970463E
:1002D00001910090059B049A0799069800F0E6F8B2
:1002E000D0E700000DFCFFFFF0B50C465C4085B088
:1002F000E40FE40703944C00002664085900944678
:10030000490802460296224321D062460A431ED083
:100310006200570D4A000E032303550D01240246C7
:100320002C492405781B1B0B360B4018234326430E
:10033000614600901C46501AB44103D30098401CFB
:10034000009002E0921800985B41002803DA002038
:10035000014605B0F0BD002001210905074686468B
:1003600011E064461D46141BB54106D36546521B79
:10037000B341744607430C43A646CD0740084908DD
:10038000284392185B4105460D43EAD110461843B5
:1003900013D06046194650407140084306D060466D
:1003A000101AB34106D20122002306E000220123E5
:1003B000DB0702E00122D243531000987446010586
:1003C000381C6141029C039D0019694100F061F8ED
:1003D000BFE70000FD0300000EB5054902910021B2
:1003E00000910A460B46019100F060F803B000BD91
:1003F000330400000EB5054A029200220092134613
:10040000019200F053F803B000BD00003304000077
:100410004A0009030123090B1B0519430A4B10B5B8
:10042000520D9A4202DA0020014610BD064B3433C9
:100430009A4203DC9A1A00F01BF810BD034BD21845
:1004400000F006F810BD0000FF030000CDFBFFFF29
:1004500010B5202A04DB0146203A9140002010BD4F
:10046000914020239C1A0346E3401943904010BD5D
:1004700010B5202A04DB0846203AD040002110BDE8
:100480000B46D340D0402024A21A9140084319467D
:1004900010BD10B5002B08DA0024401C61419218F1
:1004A0005B411A4301D14008400010BDF0B51FB4B4
:1004B00082B005460C0003D0084600F051FE02E071
:1004C00000F04EFE20300246009021462846FFF7FD
:1004D000BFFF049B059A04460F4618431143084387
:1004E00014D0184610431BD0009840210A1A184611
:1004F0000599FFF7BDFF05460E46009A0599049839
:10050000FFF7A6FF084305D0012004E02046394646
:1005100007B0F0BD0020C11705430E432C433743FD
:1005200000990E986305401A7905E40A00220C43ED
:10053000FD0A0A3002D500200146E9E7010510193D
:1005400069410C9C0D9D00196941FFF7A2FFDFE78F
:10055000064C0125064E05E0E36807CC2B430C3C16
:1005600098471034B442F7D3FFF7AEFD345300017F
:100570005453000170B58D180478401CA207920FE7
:1005800001D10278401C231106D10378401C03E0FE
:1005900006780E70401C491C521EF9D1002B15D054
:1005A00002780C268A1A3440401C0C2C03D0A4017B
:1005B000121B9B1C08E004782402121B401CF8E765
:1005C00014780C70491C521C5B1EF9D5A942D3D378
:1005D000002070BD03B40148019001BDB551000079
:1005E00003B40148019001BDB143000003B40148C8
:1005F000019001BD8529000010B5114C0220214653
:1006000000F0B3F8002806D00E4A002010702146F2
:10061000022000F019F82146202000F0A6F800285A
:1006200003D02146202000F00FF82146402000F0A2
:100630009CF8002803D02146402000F005F810BDAA
:10064000000002403847002048607047002A0268D6
:1006500001D00A4300E08A430260704730B51D4C68
:100660008BB0204600F03CF81A4D0123083D22468D
:100670002946022000F09EF8012202212046FFF7C1
:10068000E5FF144C1434204600F02AF801232246DA
:100690002946032000F08EF8012206212046FFF7AC
:1006A000D5FF0D480090A1150C4803910190202121
:1006B00000200891802105910490032102900903F4
:1006C0000690079009910A906946204600F054F878
:1006D0000BB030BD0800024004380140D84D002066
:1006E0000168184A11400160002101604160816089
:1006F000C1601549144A0839904202D148680F2256
:1007000005E0114A1432904204D14868F0221043A7
:10071000486070470C4A2832904203D148680F2243
:100720001202F4E7084A3C32904203D148680F2293
:100730001203ECE7044A50329042EAD148680F2293
:100740001204E4E7FEFF00000800024000290168EF
:1007500002D00122114301E0014A114001607047BB
:10076000FEFF0000406880B2704702460968002022
:10077000114200D00120704730B503680C4A0C6A62
:1007800013408A684D6922430C692C4322438C69CB
:100790002243CC6922434C6A22438C6A22431A4387
:1007A0000260CA6842600A6882604968C16030BD00
:1007B0000F80FFFF002B01D0106170470020FBE786
:1007C000014948617047000000040140054B0246A2
:1007D000196800205B691140134202D0002900D043
:1007E000012070470004014010B583791849026860
:1007F000002B26D00B6893430B604A6803689A432A
:100800004A600279521813680468234313608A68A7
:1008100003689A438A60CA6803689A43CA60427947
:10082000102A05D051180A68006802430A6010BDFA
:100830008A6803681A438A60CA6800680243CA600B
:1008400010BD0079401801689143016010BD00009F
:100850000004014000B587B00121092000F0BCFA76
:10086000684600F081F80220009001900420059075
:100870006946024800F020F807B000BD000C0140B6
:1008800030B587B0684600F06FF840200090022035
:10089000084D0424019069460594284600F00CF8A0
:1008A0008021059400916946284600F005F807B0BC
:1008B00030BD0000000C0140F0B500224FE00124E3
:1008C000944023424AD04B68022B01D0122B16D100
:1008D00013070AD5456A5307DB0E0F269E40B54322
:1008E0004E699E402E43466209E0056A5307DB0EBF
:1008F0000F269E40B5434E699E402E4306624B68CC
:10090000012B05D0112B03D0022B01D0122B06D1C5
:100910004568DB06DB0FA54393402B434360056826
:10092000530003279F400E79BD43B607B60F9E4084
:100930002E430660C5688E68BD439E402E43C66048
:1009400085680126A543CC6894402C438460C46A22
:100950009E400D69B4439D402543C562521C0B68FF
:100960001C46D440ABD1F0BD054901600022426075
:100970000F218260416101210261C1607047000066
:10098000FF3F00000180704702899204920C0281AF
:1009900002890A43028170470549884207D1054808
:1009A000026A01040A430262026A8A4302627047D1
:1009B00000480040001002400246128800200A420F
:1009C00000D0012070470000F3B587B00D460799AD
:1009D00000240A892848EB880240A8886E891843B9
:1009E0002B893343184310430881244881420AD19C
:1009F000002000F041FA01218906CE12884206D07B
:100A00001F49884203D001A800F0FEF9039E29681F
:100A10003046FFF777FB03460A2802D801218903F5
:100A200000E000210798FFF7AFFF079883812D684A
:100A300030462946FFF766FB124848432946FFF730
:100A400061FB002506900090009E06980D49301825
:100A50000090FFF757FB07460A493046FFF752FB65
:100A6000874202D00120A0400543641C082CEBD330
:100A70000798057509B0F0BDF4700000004800400B
:100A800020000004102700000174704710B51648BC
:100A900000210163154A012010701548174A0170A2
:100AA00014480170144810600120154AC0021080DB
:100AB000144A4F201070144A082010701348FF2267
:100AC0000270427082700722C2700171417181719F
:100AD000C17110480E49C1610F4901620F4941625D
:100AE000002003F063FD10BD007000406000002096
:100AF000C9000020610000200090D0036C0000209D
:100B0000680000206300002064000020080100202D
:100B100079430001C00000209944000141440001D4
:100B2000F8B50B2001250B4CE902216069460870DD
:100B300003264E708D70684600F00EF81C202907C1
:100B40002160694608704E708D70684600F004F8A8
:100B5000F8BD000080E100E010B500214156FF2300
:100B6000CAB29207D40E4278A3409207120EA24056
:100B700000290BDA0907090F08398C081049A4006D
:100B80006118CC699C431443CC6107E08C080D4983
:100B9000A40061180C689C4314430C608278012106
:100BA0000078002A04D0C006C00E8140064804E048
:100BB000C006C00E814004488030016010BD0000B6
:100BC00000ED00E000E400E000E100E08307FF2228
:100BD000DB0E9A408907090E994000280BDA0007BE
:100BE000000F0838830808489B001818C36993430E
:100BF0000B43C3617047830804489B0018180368BF
:100C000093430B430360704700ED00E000E400E015
:100C1000BFF34F8F03490248C860BFF34F8FFEE711
:100C20000400FA0500ED00E0F7B5FFB0054600242A
:100C3000A5B00520EFF31087FF210090453102A8F1
:100C4000FFF7D1FAEFF31086FF21453153A8FFF7E4
:100C5000CAFA53A8013001909822214953A8FFF7FE
:100C6000A9FA012080F310880198804786F3108844
:100C700001221C49120303265300360388420AD17D
:100C800095421AD09D4201D1141116E0B54210D1FF
:100C90000124640211E0144988420AD1954201D12D
:100CA00014460AE09D4201D11C4606E03446A542A6
:100CB00003D000987FB028B0F0BD06ADFF2201350B
:100CC00041320A4902A8FFF775FA012080F3108823
:100CD0002046A69AA599A84787F31088EAE700005E
:100CE0003C490001C440130085601300FC4700012B
:100CF00010B5EFF31084012181F31088FF2109065C
:100D0000401803490968884784F3108810BD000023
:100D10000040002010B50948074901609431416046
:100D2000FF392D3981600448C92292000449A13855
:100D3000FFF740FA10BD00002948002000400020C5
:100D4000E049000110B5EFF31084012383F310880C
:100D5000FF231B06C018034B5B68984784F3108879
:100D600010BD000000400020002808D10448026A9D
:100D700001239B069A430262026A0A430262704799
:100D8000001002403F2110B58906C84201D101463A
:100D900000E000210020FFF7E7FF012000F028F825
:100DA00010BD10B50121082000F016F801218803BC
:100DB00000F012F80121084600F002F810BD000012
:100DC000044A0029516901D0014300E08143516187
:100DD0007047000000100240044A0029916901D0C8
:100DE000014300E081439161704700000010024020
:100DF0000449CA030128086A02D090430862704778
:100E00001043FBE70010024030B5164A5168042336
:100E10001940154B01D0042901D0036001E01349AA
:100E200001605168124B8906890F5B5C0168D940EB
:100E3000416053680E4C5B055B0F241DE35C0D465F
:100E4000DD40856053689B045B0FE35CD940C16063
:100E5000D16AC90601D5074901E07D21C9030161B5
:100E600030BD0000001002400090D0030048E801AF
:100E7000D449000100093D000248006A02490840C7
:100E8000704700000010024020000004F0B585B05B
:100E9000002104917D21C9000391002100917F214F
:100EA0000127402400252B4A0191BF0261022A4BF1
:100EB000029590421A6801D88A4300E00A431A60FA
:100EC0002649FFF71FF94601234908687F221202CD
:100ED0009043220202430A600520FFF701F9012036
:100EE000FFF7FEF81C48406B800704D4284603999E
:100EF0006D1C8842F3D91848C06B81B2B14201D948
:100F0000881B00E0701AB84202D2E2B287B20292A5
:100F1000B14201D3019400E00094019A009989182C
:100F2000C905090EA14203D00C4604998842CBD8CA
:100F3000094801687F2212029143029A12020A4371
:100F40000260416849084900416041684907FCD492
:100F500005B0F0BD0090D0030010024040420F00E9
:100F600010B50A4C2069411C01D0002808D1342159
:100F7000064800F077F82069411C04D0002802D010
:100F80000248293010BD002010BD00005447002049
:100F9000F8B52A4CE06921040843E0618120284D1E
:100FA00000062863274868612748286227480322EB
:100FB00001689203914301603421254800F052F802
:100FC000234B244E1869244F411C28D0002826D0DA
:100FD000A9691A7849094901D206D20E0A43AA61C1
:100FE0002168EA139143216021687F221202914314
:100FF0000002084320606068304360606068B84366
:1010000060606068211508436060206A13490840E9
:101010002062206AD968090208432062F8BD60682E
:10102000304360606068B843606060680121890295
:10103000084360600A48FFF729FFF8BD001002402E
:10104000007000400F08000018000200001001406E
:10105000544700200000010000070000FF00F8FFD7
:101060000090D0030A46014610B501200003FFF7A7
:10107000DBFD10BD0029818903D0012252031143F9
:1010800001E0024A1140818170470000FFDF00004B
:10109000002A828A01D00A4300E08A438282704794
:1010A0000246128800200A4200D00120704700004A
:1010B00070B50446008A86B00D461B490840E98891
:1010C00001432182A18919482A890140A888104337
:1010D0006A890A431043A081A08A15490840A9895A
:1010E0000143A1826846FFF78FFE1248844201D176
:1010F000039800E002982968192289005043FFF7FD
:1011000001F806466421FEF7FDFF05012809642168
:101110004843301A00013230FEF7F4FF0007000F99
:101120002843208106B070BDFFCF0000F3E9000026
:10113000FFFC000000380140C905C90D81807047DF
:101140000FB410B503A9044B044A029800F02CF820
:1011500010BC08BC04B01847C9220001C40100201B
:101160002021020C01D010211046020A01D01046A5
:101170000839020901D01046091F820801D0104623
:10118000891E420801D0881E7047081A704730B483
:101190007446641E2578641CAB4200D21D46635D14
:1011A0005B00E31830BC1847FFB591B00F46054609
:1011B000002606E025280AD0149A139990476D1C42
:1011C000761C28780028F5D1304615B0F0BD0024F3
:1011D00000940121F34A029400E004436D1C2B7833
:1011E0000846203B98401042F7D128782A280ED094
:1011F0000222287801463039092915D800990A2396
:1012000059433039401814436D1C0090F1E701CF69
:101210000090002805DA0120400304430098404272
:101220000090022004436D1C28782E2815D104203C
:10123000044368786D1C2A280AD101CF6D1C0290E6
:101240000BE002990A225143303940186D1C02907C
:101250002878014630390929F3D928786C2810D02C
:1012600006DC4C281AD068280ED06A2817D104E072
:10127000742813D07A2812D110E0012040050443CD
:101280000CE00121090501E0032109050C436978FF
:10129000814203D10120000524186D1C6D1C2878A3
:1012A0006E281ED00CDC632831D004DC00288BD0E3
:1012B000582811D1B2E064287BD069280CD178E09D
:1012C00073282DD004DC6F2870D0702804D1A7E0DB
:1012D00075286CD078286BD0149A13999047761C97
:1012E00062E06002400F022807D003280AD00428D9
:1012F00038680AD006603F1D56E03868F11706606E
:101300004160F8E738680680F5E70670F3E738785B
:10131000694608740020487404A80390012003E083
:10132000386803900020C0433F1D61070FD500219E
:1013300001E00199491C029A0191914213DA81421C
:10134000F7DB019A0399895C0029F2D10BE00021B7
:1013500001E00199491C01918142FADB019A03994C
:10136000895C0029F5D101990098139A401A0090E0
:101370002146149B00F03CF901998019461807E0BA
:10138000039803990078491C0391149A1399904784
:101390000198401E0190401CF2D12146149B139AE3
:1013A000009800F015F986196D1C0AE741E033E05A
:1013B00034E00A200021049005916002410F0229C7
:1013C00005D001CFC2179446032905D007E0FF1DC1
:1013D000FF08FF0003CF06E000B2C21794460429BD
:1013E00002D140B2C1178C4600226146944506DA0C
:1013F0000A460021404291418C462D2102E0210500
:1014000004D52B216A461176012103E0E10701D0C2
:101410002021F7E7019155E00A200BE0102009E0B8
:10142000102004900021042004430820059102901C
:1014300003E008200021059104906002410F022979
:1014400005D001CF00229446032906D006E0FF1DF7
:10145000FF08FF0003CF8C4603E080B2042900D1CF
:10146000C0B20021019121072CD529780391702960
:1014700006D0049A1021059B4A401A4305D00EE07D
:1014800040216A461176012108E06146014306D0F9
:1014900030216A4611760399517602210191049A0E
:1014A0000821059B4A401A430CD16146014301D1F2
:1014B000610707D530216A46117601210191029911
:1014C000491E02912978582904D037A103910FA908
:1014D0000F910DE039A1F9E76146059B049AFEF7EB
:1014E00027FE039B8C469B5C0F9A521E0F92137033
:1014F00061460143F0D10F9807A9081A20300390E4
:10150000600704D5012000048443029801E0012013
:1015100002900399884201DD401A00E00020411842
:101520000290019809180098401A0090E00306D430
:101530002146149B139A009800F05AF8861900204F
:10154000049008E006A9085C149A1399904704983F
:10155000401C761C049001998842F3DBE0030CD513
:101560002146149B139A009800F042F8861904E073
:10157000149A302013999047761C0299481E0290C5
:101580000029F5DC08E00F980F990078491C0F91AD
:10159000149A13999047761C0399481E03900029CA
:1015A000F1DCFAE6092801003031323334353637C0
:1015B000383961626364656600000000303132339F
:1015C000343536373839414243444546000000003F
:1015D000F8B5044600251E461746880404D405E0E5
:1015E00039462020B0476D1C641EF9D52846F8BD49
:1015F000FFB50446002581B01E46C80301D530273B
:1016000000E02027880404D505E038460399B04758
:101610006D1C641EF9D5284605B0F0BD00B599B023
:1016200060216846FEF7DFFD042008AAD07012A0F2
:10163000006801900B2010AAD070024610A109A8E2
:10164000FEF7B8FD002110AA117101205071D1716F
:101650009071917310751E21D182A0211183907613
:10166000B42090831920C001D083084800906846B8
:1016700001F0C8FF19B000BD03160A1800000000F1
:101680000AFFFFFF4E6174696F6E730091160001CF
:101690007047000010B58CB02C216846FEF7A3FD02
:1016A000FFF75EFC0100684604D00622001DFEF72D
:1016B00081FD04E0062210A1001DFEF77BFD002441
:1016C0006946CC704C810A20887006220A7303A8F0
:1016D0000BA10130FEF76EFD0C206946088418202E
:1016E0004884FF208C84F530C88407480885684604
:1016F00002F062F80CB010BD010203040506000000
:101700004E535F4449530000881300000EB500207B
:1017100002900A4800900A48019001206946087228
:10172000684602F02BF9FFF7B5FF00F01FF8FFF74E
:1017300075FF044801F012FF0EBD000049170001BB
:10174000651D0001FD18000110B50078012802D1C7
:1017500001A0FFF7F5FC10BD4150505F424C455FC2
:101760004F535F52454144590D0A000000B587B000
:101770001C216846FEF737FD00206A4610730D49AC
:10178000029105219170032313701023D3705070C0
:1017900010710123537190715073074A05926A4684
:1017A00091737D21090111820690684602F086FD41
:1017B00007B000BD40E2010000B0030110B50248CF
:1017C00002F0D6FA002010BD4C4D0020F8B530488C
:1017D000007900285AD16D202C23032207214001D3
:1017E00016F4AAD1A02104460170294800278430AC
:1017F000C178617027710321E180677201266671EB
:101800000721054621776C35A9796177687B002827
:1018100003D0E780032060710EE0E87900280BD048
:10182000A879022800D166772671E6802046A9793A
:10183000203041708670077015488079022804D0E6
:10184000032815D004281BD116E002F029FD00283A
:101850000BD00520E0806771688A6061688AA061AA
:1018600020460A3002F055FB0AE00949032088713E
:10187000288B6061288B02E0E88B6061E88BA061B7
:10188000034806714671204616F492D1F8BD000057
:10189000A84C002070B5022303220721154816F436
:1018A0004BD10546A720144C2870E07868700620BC
:1018B000607100202071032016F4FCD10146052040
:1018C000032912D0A1792246F032012904D002293D
:1018D00002D0032909D104E0117D002901D00320A1
:1018E00003E0917E002900D00420A071284616F460
:1018F0005FD170BDA30D0000A84C002010B50A23D5
:1019000003220721094816F417D11B210170002179
:1019100041701422428003228280C180044A0281E5
:1019200016F446D100F006F810BD00001B0D0000B3
:10193000FF0100001FB5142468460480064801908A
:10194000684601F0E5FF684604810448039002A858
:1019500002F090FD1FBD000008530001A11E000110
:10196000FEB5060A0F46054600930E2E01D0002450
:1019700016E014496818092816D83A46294612482C
:1019800000F028F810E0E10008188188B14205D184
:1019900080683A462946009B00F01CF8641CE4B2BB
:1019A0000A480178A142EED868460079002807D09D
:1019B0000748426C002A02D039462846904700204A
:1019C000FEBD0000EEF1FFFF0C4E0001544C002064
:1019D000A84C0020FEB516460D46024601790E4F72
:1019E00015E0C80014680838201811C80090019448
:1019F00068460488AC4201D0BC4206D1019C032257
:101A000031462846A047C0B2FEBD491EC9B20029D2
:101A1000E7D10020FEBD0000FFFF000010B502F07E
:101A20006FF904480169002901D00420884700208B
:101A300010BD0000B84D002070B5224C606B224DE7
:101A4000C00722D0A06B21497E2209685143401A69
:101A50002988491E29804B21C90040181C49884209
:101A600013D300202880206A4008400020621949D2
:101A700008680204930F184A01D0904300E0104315
:101A800008601648407F01F003FF298801200029E3
:101A9000216B07D00143216305220321104816F46E
:101AA0000DD30DE0FF22120291432163216B052229
:101AB000920211432163216B0143216302F032FC46
:101AC000002070BD00100240344700208C00002030
:101AD000B10400000010014000C00000084D0020CB
:101AE000010F000000207047F8B51A4DE8792F4625
:101AF000203F002801D02E7B00E0FE780322331D1A
:101B00000721154816F418D0A92104460170114880
:101B1000F038C1786170002161800E49E879403960
:101B2000002803D02A7B896C201D02E0FA78201D52
:101B3000091DFEF73FFB608802218019608005487F
:101B4000F0380279062A00D001714171204616F45E
:101B50002FD0F8BD984D0020A60D0000F8B51F2627
:101B60002323032207212A4815F4E6D7294F0446E8
:101B7000AA203D462070F035F8786070E8786080E3
:101B80002946EA781C39201DFEF714FB6288B01A3A
:101B9000C1B2201D10182A466C3A0326032910D919
:101BA0002B79002B0DD00670192343705389091F20
:101BB0001B0AC370937A83706388C9B21B1D63804C
:101BC000001D02291BD96B79002B18D0137B891EAD
:101BD0008B4200D21946CDB2691C0170117BA9421B
:101BE00001D1092100E0082141700A492A469131BA
:101BF000801CFEF7DFFA6088AD1C401960803879E0
:101C0000062800D03E717E71204615F4D1D7F8BD6C
:101C1000A60D0000A84C002070B53A23032207212E
:101C2000144815F489D7A421134D0170E978417047
:101C30000446A9792846F0300022022910D0032951
:101C400010D0042913D062802271807901F0B4FA97
:101C50000520287104206871204615F4A9D770BDAD
:101C6000018A00E0C18A642359436180ECE7818BDB
:101C7000F9E70000A10D0000A84C002010B50223D8
:101C800003220721074815F457D7A52101700649FB
:101C9000CA78427007220A7105224A7115F488D762
:101CA00010BD0000A20D0000A84C00201FB5FFF7DA
:101CB00078F8FEF7E5FDFEF7D1FCFEF731FFE120F5
:101CC00040020090002069468880C8800881888191
:101CD0000C20094C48812046FFF7EAF90122C02177
:101CE0002046FFF7D5F901210448FEF72FFD012119
:101CF0002046FFF7BFF91FBD003801401C0002401D
:101D000010B5002486B001281AD000211148FFF731
:101D1000B1F900211048FEF719FD0F4800211438D1
:101D2000FEF714FD6846FEF71FFEC020009003205A
:101D30000190694605940948FEF7BEFD06B010BD46
:101D40000748448044610461C4608460FFF7AEFFCB
:101D5000F4E70000003801401C000240000C014084
:101D600038470020704702460020802901D98D2085
:101D70007047062A06D0072A07D0082AF8D1072973
:101D8000F5D170470829F2D170470629EFD3704783
:101D9000704730B502460120002103241346CB4092
:101DA000DB0704D04D0023466D1CAB401843491C93
:101DB000C9B20929F2D330BD704770B50546C46871
:101DC00004E0201D06F4F3D015F4A6D560680028C1
:101DD00008D000210029F4D00020E860204615F446
:101DE0009BD570BD0121F5E730B50446A2890920D5
:101DF000521C93B2E48900222546D540ED0706D057
:101E00005D1C8D4201D1104630BD9B1C9BB2521C03
:101E1000D2B2092AF0D330BDFFB585B005460E9881
:101E20001F460088FFF7B5FF049038461E21084082
:101E3000298A194A002301910093029203901323E7
:101E400004AA16490698FEF7C5FB060020D1012119
:101E5000142015F4EBD50446E86006980188A181AA
:101E60000E980188E181F80701D00120C00307998D
:101E700008432080288A608014206882284600F069
:101E800061F8201D06F425D0288A002115F424D7F6
:101E9000304609B0F0BD0000244D00010A180000D2
:101EA00000487047BC4D0001FFB5087881B00C4672
:101EB000092835D2142002F0ABFA0746217800F049
:101EC000EBF800282AD061782078FFF74CFF060055
:101ED00027D17D680CE028792178884207D12946EE
:101EE000381D05F4C1D7284615F416D502E02D6833
:101EF000002DF0D160780121083015F497D5054602
:101F000020782871607868716278A11CA81DFEF79E
:101F100051F92946381D06F454D002E0822600E02B
:101F2000812602230648039A049915F405D62178E0
:101F30000170467015F43CD6002005B0F0BD0000DD
:101F40000114000010B50446142002F061FA04499F
:101F5000216003216181123060600120208110BD69
:101F6000CC4D0001F8B517460D46104615F4A2D623
:101F7000012831D1142002F04BFA0446017C00F014
:101F80008BF80646217C2A781448914214D1617C52
:101F90006B7809023A46891D9B1D15F4CDD5044680
:101FA000068000202071687860806A78A91C601D16
:101FB000FEF700F9204609E0617C062309023A4653
:101FC000891D15F4B9D506808021017115F4F0D56D
:101FD0000021384615F480D60020F8BD140C00000E
:101FE000F8B50E4609781846002425460B00FFF781
:101FF000CEF8090609121515150C180F1A0005243C
:1020000013A510E00A2414A50DE0082415A50AE084
:10201000072417A507E00A2417A504E0052419A53D
:1020200001E0062419A50146A31C1A4815F484D51D
:102030000746307838707C70002C04D02246294640
:10204000B81CFEF7B7F8384615F4B2D50020F8BD35
:102050004E53494E470000004E532D424C452D3102
:102060002E300000123456FFFE9ABCDE0000000045
:10207000025E044000000300312E302E302E302D41
:102080004C450000312E302E30000000FFEEDDCC3C
:10209000BBAA00000314000010B58289C489521C39
:1020A00093B200222046D040C00706D0914202D110
:1020B0005B1C9BB205E09B1C9BB2521C52B2092ACE
:1020C000F0DB092A01D0184610BD002010BD704772
:1020D0007047000010B50448FEF744FBFF210131B2
:1020E000081A80B210BD00001C00024010B5FFF7B6
:1020F000F1FF1349042806D3087801280DD00228DF
:102100000BD0052809D00878002814D0012812D057
:10211000022810D005280AD10DE0042029F4D8D0D7
:10212000012010BD00F00EF8322006F4A1D1FFF717
:10213000D1FF0028F6D1042029F4BCD0002010BD26
:10214000D84D002010B50649002088800549086058
:102150004860FEF783FA01210348FEF7F7FA10BD45
:1021600038470020D84D00201C000240FFB50C4627
:1021700081B01E461546404940A0FEF7E1FF4148A8
:10218000C6608560B57C002D06D0012D06D0022DDD
:1021900016D0032D31D026E000BF24E0002C22D041
:1021A0000026671C07E00A2006F462D13046364953
:1021B000761C884217D8FFF78DFFB842F3D312E0A0
:1021C000002C10D00026314F07E0012006F45CD12E
:1021D00030462F49761C884205D8FFF77BFFB98827
:1021E00009198842F1D300202A4B2B4F274E19E0C2
:1021F000FFF7A8FF322006F43BD1FFF76BFF002862
:10220000F6D12049B0748A68C8680321904705B0A8
:10221000F0BDB1883A884118914202D25A5C0199C6
:102220000A54401CA042F4D3B08800190024B080A6
:10223000012D0BD0022D1DD012498A68C8680021DB
:102240009047002CE3D0FFF77DFFE0E718780128E6
:1022500004D0022804D0052805D00BE0D87807E088
:10226000D878197901E0D879197A0902401880B232
:102270000028E1D10124DFE72053000125730D0A76
:1022800000000000D84E0020102700003847002032
:1022900088130000D84D00203C01002070B5094C87
:1022A00005460CC40E460420083C29F411D0B1B2F6
:1022B000284602F08BFAFFF745FF2268002160688C
:1022C000904770BDD84E002070B50D4C0546207863
:1022D000002812D000200B4E2070E9B23046FEF7E5
:1022E000D3FB02213046FEF767FB0028F9D002211C
:1022F0003046FEF747FB01202070284670BD0000E5
:102300002040002000480040FEB50878314D801E76
:102310002E460C462E4F1C360300FEF738FF0604EF
:10232000265736573D5701203070A0786876887858
:10233000C00708D026492748062209311330FDF787
:1023400039FF387AA874B28A002A06D0FF20F53007
:1023500070800321204815F4B1D6F069002835D0EB
:10236000002000900190052009E000246C7601F027
:102370000DFAF069002829D00094062001946946DE
:102380000870F1696846884720E012481722A11CAE
:10239000801FFDF70FFF19E0B8780001C019403029
:1023A000807D002812D10B481C22A11C2038FDF78B
:1023B00001FF08482146082214311038FDF7FAFEC3
:1023C0000449608A20390883207F68740020FEBD9C
:1023D000A84C0020EC4B0020040F0000FEB518466E
:1023E0000E46014622230322704815F4A5D301218D
:1023F00004464170307800256D4F0300FEF7C7FE9C
:102400000B07C9C9C96F6AB823C9C96CC900217053
:102410006170B87920713879A070F8796071787935
:10242000E070387AA071787AE071B87A2072F86931
:10243000002807D002206946009508700194F969C8
:1024400068468847A5E0072020706170684629F437
:1024500005D1019F009EFDF79BFE8019608200253B
:10246000FDF796FE8119601900908170FDF790FECE
:10247000C11900986D1CEDB20175082DF0D3082527
:10248000FDF786FEB919401861196D1CEDB2887010
:10249000102DF5D3102020774648817809010818BF
:1024A0004030807D012874D141481C22A11C3C3859
:1024B000FDF780FE3E482146082214312C38FDF7F6
:1024C00079FE3B49608A3C3908833948217F1C38B2
:1024D00041745EE0052000E00A20207059E00422EB
:1024E00022707078012804D0002802D0022831D050
:1024F0004FE06170387C002810D001A829F4AED0DC
:10250000FDF746FE2C49FDF7FDFD2C480818019902
:1025100040182B49FDF7F6FD009101E0F8680090A6
:10252000F869002807D003206946019508710291D7
:10253000F96901A888471021A01CFDF754FE0098F6
:10254000A0700098000AE0700098010C2171000E44
:1025500060711EE0F869002805D000956846019575
:102560000270F969884720460C3815F417D313E038
:102570000620144E2070F07801280FD01021A01CE6
:10258000FDF731FE20460622311D1230FDF712FE06
:102590002576204615F40CD30020FEBD05491022F7
:1025A0000F31A01CFDF706FEECE70000140E000042
:1025B000084C0020A84C0020A0BB0D00A086010004
:1025C0003F420F002C4D00200EB50748026C002A38
:1025D00008D000200090029005206B4618706846D5
:1025E0000191904700200EBDA84C00203EB5FF2B66
:1025F00019D0154C226C002A08D0002000900290BF
:1026000006206B461870684601919047032015F428
:1026100051D3032816D1A26F002A13D003210B48EF
:1026200015F44CD50EE0084801236030007F0322EA
:10263000010206480831001F15F47ED207210170FF
:1026400015F4B6D200203EBDA84C0020090E0000B3
:10265000FFB51A460C461D0A83B02B464C494DA0C7
:10266000FEF76EFD514FFF2DBD707DD02902342342
:1026700003224F48083115F45FD20546B878062288
:102680000101C91940318872B87821880001C01948
:1026900040300181B878617A0001C0194030C172C0
:1026A000B87821460001C0190A314C300091FDF77D
:1026B00081FD207C0026012802D0002807D00BE0F5
:1026C000B97801200901C9194031887504E0B8784A
:1026D0000001C0194030867520883880607A3872D1
:1026E0003248062209300099FDF764FD01F0D8FD5B
:1026F000002817D0607A012805D12D480322114601
:10270000ED3815F469D201F0D3FD0300FEF73FFD6B
:102710000506060604060A00012100E0052128201E
:10272000415501E0282046550321059815F4D4D2DF
:1027300017203886B9780901C919403148821D48E7
:10274000C068002803D003211B4815F417D41B4888
:10275000028D002A04D018480321401E15F4AED47F
:10276000386C00280AD000E00CE002206946009690
:10277000087002950194396C68468847284615F41C
:1027800017D201E000F060FF002007B0F0BD0000AC
:102790000B52000125732C207369643A25642C6365
:1027A0006F6E6964783A25640D0A0000A84C002019
:1027B000020E0000B84D0020030F00002C4D002039
:1027C0003EB50C461D0A89782A4616A0FEF7B8FCCD
:1027D00028011E4DFF2140194030817201F01EF882
:1027E000002803D10221032015F476D2286C00289A
:1027F00009D00020009002900320694608700194DF
:10280000296C68468847114810211F30FDF7EBFC02
:102810000F480068002802D0092015F447D0002096
:102820003EBD0000424C4520446973636F6E6E6587
:10283000637465642C7265736F6E3A25782C636FD0
:102840006E6964783A2564200D0A0000A84C0020C7
:10285000100C00201CB50748C169002907D00020D2
:102860000090019009206A46107068468847002051
:102870001CBD0000084C0020FFB591B00D4612238E
:1028800003224248149915F457D10021404F0446C1
:102890000170387800285ED0787C00282CD03C214C
:1028A0006846FDF7A0FC01F0F7FA04A90F9120E0BB
:1028B000461EF0B2694601F005FB6846008B298888
:1028C000884206D10822A91C0F98FDF797FC002822
:1028D00008D0207800280BD008A8407C6074102213
:1028E000694620E02BA0FEF72BFC01202070F3E7C7
:1028F000F0B20028DCD119E0254829883C38008B4B
:10290000884228D122480822A91C2C38FDF776FCE1
:1029100000280BD1012020701D481D491C38407C27
:10292000102260743C39601CFDF744FC20780028BC
:1029300011D0F869002808D00020009001900720ED
:1029400069460870F96968468847204615F430D111
:10295000002015B0F0BDF869002808D000200090D4
:102960000190082069460870F96968468847074859
:10297000022303221438149915F4DED001210170CA
:102980000621417015F414D1DFE70000180E000095
:10299000084C0020656469762672616E645F6E6221
:1029A000206D617463680D0A0000000070B50C466C
:1029B00009781B481B4E1D46002904D0012913D05D
:1029C00002291BD11CE01C23294615F4B5D005466D
:1029D00020782870307B68801249327B0D31281DA9
:1029E000FDF7E8FB284607E00A23294615F4A4D0A2
:1029F000217801707189418015F4DAD0002070BD12
:102A00000A23294615F498D021780170318C418031
:102A1000718C8180B18CC180F18C0181ECE7000068
:102A20000B0E00002C4D002010B50C464A7809789A
:102A300003A0FEF785FB207800F0BEFB002010BD50
:102A400074785F7068793A25642C2072785F7068BA
:102A5000793A25640D0A000005480A8842861A0A58
:102A60001201101809884030818200207047000050
:102A7000A84C00203EB5180AC04300060D46000EC3
:102A800022D0190A0902E12006230322000108319D
:102A900015F452D004460120207002206080FF20EF
:102AA0004130A0800A48016C002909D00021009122
:102AB00004216A46117001950294016C68468847AA
:102AC000204615F475D001E000F0BEFD00203EBDAB
:102AD000A84C00200EB50748026C002A08D0002040
:102AE0000090029008206B4618706846019190474C
:102AF00000200EBDA84C002070B518460C460146BB
:102B000002230B4815F418D005460A49A07808732B
:102B100008486288211D0D30FDF74CFB00206870CD
:102B200020782870284615F443D0002070BD00009E
:102B30000D0E00002C4D00204A780B48002A05D0CD
:102B40002030012A08D0022A09D00AE00279012A9D
:102B500007D10978C17004E00978017501E00978AE
:102B60004175002070470000A84C002070B54878DF
:102B7000002806D0FF25124C01280CD0022817D0BF
:102B80001CE00F4820380179062917D1072101716F
:102B900000F008FD12E0207DFF280FD000F0DCFDE2
:102BA000084825750169002908D00020884705E0FC
:102BB000607DFF2802D000F0B3FD6575002070BD78
:102BC000C84C0020B84D002010B5032B06D01022B1
:102BD0000648891DFDF7EEFA002010BD03481F3896
:102BE000017A093001F012FAF6E70000C74C002024
:102BF000F0B54B788DB00D46002B04D02A78DF4914
:102C0000DFA0FEF79DFAE54E2878344600272034F1
:102C1000A1287DD012DCE2490C911B2879D006DC7A
:102C2000012816D0032875D0172874D141E128282F
:102C300072D0912871D0A028F7D145E10146A23980
:102C40000B00FEF7A4FA09FD68FCFC68FCFBFCFC29
:102C5000680068780028E8D1012001F037FC01F015
:102C60004BFA342303220721CE4814F465D70446D7
:102C700003202070CC48CC49807860700120E07639
:102C8000FB206084C948E084C948A084C648062265
:102C900000882084A776091D201DFDF78BFAC24805
:102CA000407A8009032808D1BF480521807808426E
:102CB00003D1A07E01210843A076A07E0421084311
:102CC000A076BC486080B848C078012829D020464A
:102CD00010210A30FDF787FA306C002808D0012057
:102CE00069460097087001950294316C68468847E0
:102CF000012000F061FA204614F45AD7A9480123B4
:102D000003220721153014F417D71A21017005E0AA
:102D10000DE1C0E00CE0B7E066E045E014F448D710
:102D20001BE1204610220A300C99FDF743FAD3E745
:102D3000282102A8FDF757FA0097019701F0B0FA91
:102D4000002805D002A801F0FDF8684601F0C8F897
:102D500001F0A6FA00280CD06846807B002808D134
:102D600068468079002804D0012102A800F068FD9F
:102D7000F3E08D4C0622211D02A8FDF71BFA6846E0
:102D80008773102204A80C99FDF714FAE078012843
:102D900004D0089709970A970B97E5E7102208A82F
:102DA0000C99FDF707FADFE7E07B002814D17D4896
:102DB0001123032207211F3014F4BED60546282014
:102DC00028707948C078012808D01021681CFDF7C8
:102DD0000AFA284614F4ECD6E773BEE01022681C09
:102DE0000C99FDF7E7F9F4E7012001F06FFB0121F1
:102DF000032014F471D77048012444841F200490E8
:102E000069480178490601D57F210491827805211E
:102E10000A4204D0FF2204998132114304910088B0
:102E2000C00504D50321049849020843049053487F
:102E3000082198380B2304AA009702E071E043E0D0
:102E400083E0029001915C4803210394C90222307F
:102E5000FDF7C0FB002817D1584806218786FF20C0
:102E6000059046480191403802905448082305AA2D
:102E70000097039452493430FDF7ACFB00286CD125
:102E800000F07CFB00280AD067E000F0DDFB64E086
:102E900000F0E0FE61E001F003FAE773F0E70221E1
:102EA000032014F419D7B0790128EED000F0F4FB18
:102EB00046E06878002850D0F179481EF071384813
:102EC000801F01F071F848E07179491E052906D884
:102ED000A72802D13079002806D100F063FB2878BA
:102EE000A42801D0A72838D17079042806D0062854
:102EF00004D0082808D00C282FD10CE031480168F4
:102F000000292AD0B07904E02F480169002924D093
:102F10000120884721E02C48016900291DD00320A9
:102F2000F7E73771FF20F0702075607515E0207DA0
:102F3000FF2802D06878002802D000F00DFC0CE0D9
:102F400021484078C007A3D107E0607DFF2802D068
:102F50006878002804D000F0E3FB00200DB0F0BD3D
:102F6000A07D0028F9D0184840788007F5D50C4896
:102F7000E17D293000F0EEFDEFE70000F6510001A1
:102F800025732C206F70203D2025782C20737461D0
:102F9000747573203D2025780D0A0000A84C002090
:102FA000B74C0020040D00002C4D0020050200004D
:102FB00048080000A08C0000B00B0020680B002027
:102FC00001180000584D0020B84D002070B50025B4
:102FD0000C462846401C0628FCDB1E4E2246307E4E
:102FE00031461A32C9690300FEF7D1F8061A040BFC
:102FF0000E11141B0622A01CFDF700F900280FD0AB
:103000000FE0237E092007E0237E212004E0237EB9
:10301000162001E0237E192000F08CFC002800D04F
:1030200001250D48807D002811D17169002901D04A
:1030300020468847002D0AD03169002901D002209E
:10304000884700F077FE217AA01C00F083FD002065
:1030500070BD0000B84D0020C84C002008B5042207
:103060006846FDF7A7F80098FDF79BF8002008BD1B
:1030700010B5104614F41ED6002010BD0020401CD0
:103080000628FCDB002070470EB50748026C002ABA
:1030900008D000200090029009206B461870684606
:1030A0000191904700200EBDA84C00203EB50F486E
:1030B0001C0A0A88230102861B180A8840335A8298
:1030C000026C0025002A08D0009507226B46029565
:1030D0001A700191016C684688470548A100405864
:1030E000002801D04030C57400203EBDA84C00200F
:1030F000580B0020FFB581B0002000900E460398C9
:1031000014F4D8D5002802D001284BD04CE014206C
:1031100001F07EF907463188FEF766FE0546244831
:10312000092D35D27C6803E02179A94203D02468B7
:10313000002CF9D117E0002C15D06379039A9B1D60
:10314000049914F4F9D405463088288000202871A9
:10315000607968806279A11D681DFDF72BF828460B
:1031600014F426D520E03D740498010A7974384699
:1031700001F046F9014601230E48039A14F4DCD409
:10318000057014F415D50121039814F4A5D50BE0AE
:103190000623039A049914F4CFD431880180802146
:1031A0000171DDE702200090009805B0F0BD00003D
:1031B000140C00000214000010B5A02209490228D6
:1031C00009D0002303280AD0042808D00A704B70C5
:1031D00000F08AF810BD0A7080204870F8E7E020FF
:1031E0000870F4E70D400020F8B52749202048601A
:1031F00026480121C163264A052191610021C1634E
:1032000022490B208039086100F06EF81F48214ADE
:103210008030026320494163204B8363204CC463A8
:103220001A48204DC03005601F4E46601F4981601E
:103230001F49C1601F4901611F4941611F498161E7
:103240001F49016320481F494160204FC760204F3C
:10325000076102621F4A42628362C4620563466379
:103260001D4A82631D4AC26317481D4A40300260EE
:10327000104A42601B4A8260016314491031816325
:1032800001F078F9F8BD000000100140C0270240AD
:10329000402502400259F800025B8500025A800076
:1032A000025D8500025F805002000878020A080073
:1032B000026EAC500259FC000200C80012701314D8
:1032C00002700314026E2800C0280240025D05004F
:1032D000125B0500025B8400020A0600026E2C509D
:1032E00002C3BF001200AC0030B51649164A0B7D70
:1032F00015484032FF2B06D1497DFF2903D11349E0
:103300004978C9070BD0124B12491C788C605B7846
:10331000CB6111490161114B8362116030BD0E4CCC
:10332000103C04610E4B43610E4981610B4D103D11
:103330008562C3620C4B036314600C48506091605B
:1033400030BD0000C84C002000280240B84D0020CD
:103350000D40002000270240127E0200127E030072
:1033600002C2A00012C7000012C7800002C2E00023
:1033700000F0A4FEFEF7CAF9002001F013F901469F
:1033800000200CF4ADD507A0FDF7DAFE0120FEF712
:10339000B7FCFEF7ABFE002801D00CF4F5D527F4FE
:1033A000FFD7F6E70D0A204E53494E472044544DAF
:1033B00020546573742064656D6F200D0A00000051
:1033C00010B50124E4022046FDF700FA002805D0DC
:1033D0002046FDF7F5F90D49022008700124240369
:1033E0002046FDF7F3F9002809D02046FDF7E8F95B
:1033F00000F064FE06A0FDF7A3FEFDF709FC0B48F4
:103400004068002800D0804710BD000080000020E8
:103410004E5253542D3E4E5649435F537973746553
:103420006D52657365740D0A000000004040002075
:10343000EFF3088400F042FE12A0FDF781FE214662
:103440001EA0FDF77DFE06CC20A0083CFDF778FE0F
:1034500026A0E268A168FDF773FE2CA062692169CD
:10346000FDF76EFE31A0E269A169FDF769FE3748FC
:103470000068002800D08047354936A0FDF760FE7F
:10348000FDF7C6FB2A2A2A2A2A2A2A2A2A2A2A2A8F
:103490002A2A486172644661756C74204552524F05
:1034A000523A52454720494E464F2A2A2A2A2A2A6A
:1034B0002A2A2A2A2A2A2A2A2E0D0A006D73702007
:1034C0003D203078253038782E0D0A0072302020CB
:1034D0003D203078253038782C200972312020208A
:1034E0003D203078253038782E0D0A0072322020A9
:1034F0003D203078253038782C2009723320202068
:103500003D203078253038782E0D0A007231322077
:103510003D203078253038782C20096C722020200E
:103520003D203078253038782E0D0A007063202039
:103530003D203078253038782C200978707372203F
:103540003D203078253038782E0D0A00404000208C
:103550004851000125730D0A00000000064A117849
:103560000A2907D28900891848601078401C107019
:103570000120704700207047284C002010B5084CEF
:1035800000202246803AE1791378994207D28800D8
:10359000801840688047E079401CE071012010BD30
:1035A000A84C0020164910B50A7908468079130006
:1035B000FDF7EDFD08050A0F17171D202309052843
:1035C00001D0FEF703F910BD02280AD0FEF78CFAED
:1035D00010BD0B48F030417B002902D1C079002892
:1035E00002D0FEF719FB10BDFEF7B8FA10BD062099
:1035F000087110BDFEF742FB10BDFEF74BF910BD80
:10360000A84C002010B5002804D0014660220D48C7
:10361000FCF7D0FD0B492031CA78084620301C2A1F
:1036200004D9427B002A01D11C22CA70C1781F290B
:1036300001D91F21C170017BE22901D9E221017367
:1036400010BD0000584D002010B512490122087924
:1036500007280DD0887900280AD0012801D0052834
:1036600007D10C48F030827B002A03D002200CE006
:103670008A7110BD027D002A01D0032005E0807E02
:10368000002801D0042000E005208871FEF79EF894
:1036900010BD0000A84C002010B508480521827913
:1036A0001300FDF774FD0604040606060506817185
:1036B00010BD8171FEF7E2FA10BD0000A84C002099
:1036C00010B50A48407DFF280ED16D200223032249
:1036D0000721400114F430D2A22101700349643162
:1036E000C978417014F464D210BD0000C84C0020A9
:1036F00010B50A48007DFF280ED16D200223032259
:103700000721400114F418D2A1210170034964314A
:10371000C978417014F44CD210BD0000C84C002090
:1037200010B50B4C607DFF2811D002230322072126
:10373000084814F401D2A7210170617D417022462E
:103740000021203A5171FF21617514F431D210BD6E
:10375000C84C0020A30D000010B50A4C207DFF28A6
:103760000FD0022303220721074814F4E5D1A72133
:103770000170217D417022460021203A517114F4DC
:1037800017D210BDC84C0020A30D000010B508488A
:1037900002238078032201020648083114F4CCD1B8
:1037A000012101701321417014F402D210BD0000F8
:1037B000A84C0020040E00001FB5002804D00146CC
:1037C0002A220F48FCF7F6FC0EA00FC86C460FC467
:1037D0000B4C0020694623180A5C1B791A430A54D3
:1037E000401CC0B20628F6D3054810227538FCF7F5
:1037F000E1FC0622211D0848FCF7DCFC1FBD00008F
:103800002C4D0020501921901F04D5624FA489AB84
:1038100090D0CF2300000000FC0000200020074BC8
:1038200001460A01D2184032927AFF2A01D0401C88
:10383000C0B2491CC9B20329F3D37047A84C002079
:10384000F8B507460B46282043430E4603220721BE
:103850000E489B1C14F470D10546912028706E70A0
:1038600000240CE0204628214843C1190022CA71D7
:1038700040192822801CFCF79DFC641CE4B2B44271
:10388000F0D3284614F494D1F8BD0000910D000047
:10389000F8B57D272026FF00184A194C194903283E
:1038A00012D00B6A01252B430B620B6A9B07FCD5D8
:1038B0000B6AB3430B6201281AD002281AD0176092
:1038C00004F4ACD12060F8BD0F480F2583682D02A9
:1038D0002B438360086A042318430862086A0007C0
:1038E000FCD5086A304308623D2000011760E9E713
:1038F000064801E0054886301060E1E78C000020B2
:10390000900000200010024000100140D103000090
:10391000074A11780A2909D2C90009C889188B6099
:1039200048601078401C10700120704700207047DC
:10393000544C0020FFB581B01C46064616E01078B6
:10394000411CA14214D8032C12D3401EC5B250789A
:10395000971CB04206D12A4638460299FCF74EFC25
:10396000002808D07A19601B801EC4B2002CE6D152
:10397000002005B0F0BD0120FBE7000010B50446B3
:1039800000F086F884213748FCF72DFC35482A21C1
:103990008430FCF728FC33486021B030FCF723FC6E
:1039A00020213148FCF71FFC2E4BFF201946D87010
:1039B00020310875487500210A01D2184032491C8F
:1039C000C9B290720329F7D32068186460685864FC
:1039D000244861894030C187217A2030032900D9E9
:1039E0000021417701212020FDF7EAF91F4A2049F3
:1039F000042000F0A1FC1D491E48403108600A4621
:103A00001B490520403100F097FC184A1A498032C2
:103A1000072000F091FC19480146413908600A4628
:103A200015490820403100F087FC154A1549092046
:103A300000F082FCFDF72AF81349032014F490D11A
:103A40000021032014F448D1002000F03FFD0123A1
:103A5000032207210D4814F46FD00121017014F4E2
:103A6000A7D010BDA84C0020B84D002080400020F9
:103A700080800100154E000100DB01008141002023
:103A8000C0460020C0610200F4520001020D000097
:103A9000FEB5254C2548234DA168C1622449016328
:103AA000E16A8162E16B4163A16B816321467C2203
:103AB00040312846FCF77EFB00206860E8606862C1
:103AC0001C49A9626864A864E86428661A49A96662
:103AD0001A4929621A491B4A0870032111700122F0
:103AE000194993020B6093060B60082315020D60C1
:103AF000E168174E4D1E2F88144DAF4200D0316043
:103B0000246E611E0988A94200D074600121090356
:103B100000910190694608714B718A716846FCF703
:103B200063FEFEBDC009002000000001C0000020AF
:103B3000313400010D4700200D470001C133000161
:103B4000C6000020D800002000E100E0FEE70000F1
:103B500040400020F3B53C4D0126687D2C46F034F2
:103B600081B00F46FF281CD02046C268002A03D02F
:103B70000321364814F4A2D23A2303220721344801
:103B800013F4DAD7A4210170697D044641702E48F0
:103B9000002160300278002A12D0A670A180017046
:103BA00010E0FFF78DFD2848EF75062218300199C7
:103BB000FCF700FBAE756078022108436070FEBD23
:103BC000A170A18019222048E6705201E280643081
:103BD0002281038CE381438C2382838C6382C38C98
:103BE000A382FF234133E182054623838C356D7820
:103BF0006D070DD50525E5706281A281028CE284F6
:103C0000428C2285828C6285C08CA085E1852386CA
:103C1000382007552046062232300199FCF7CAFAAF
:103C2000E078810701D5022004E0400701D5032098
:103C300000E00120FFF7C0FA03490C202039487149
:103C4000204613F4B5D7FEBDC84C0020030F00007A
:103C5000A10D0000F8B5284E01273546317DF0351D
:103C60006878FF2943D0C10740D0B843687029461F
:103C70000020903908703A23032207211F4813F4CB
:103C80005BD70446A4202070307D60702878A07037
:103C900068788006800F20716888E080A88820817D
:103CA000E888E08128892082E7700120FFF784FA04
:103CB000687840070AD5E07802210843E0706888F8
:103CC0006081A888A0810320FFF776FA6878000752
:103CD00003D5E0780C210843E0700749082020391B
:103CE00048710020B075204613F462D7F8BD384300
:103CF0006870FFF7FDFCF8BDC84C0020A10D000066
:103D000010B50A4C607DFF280FD002230322072143
:103D1000074813F411D7A5210170617D4170224637
:103D20000D21203A517113F443D710BDC84C002027
:103D3000A20D000070B50C4C207DFF2812D0254646
:103D4000203D687909280DD0022303220721074866
:103D500013F4F2D6A5210170217D4170092169710A
:103D600013F426D770BD0000C84C0020A20D00003F
:103D700010B504464088A1880246491C19234A43CD
:103D8000DB019A420FDC06280DD3228890420AD329
:103D9000E2887D23DB009A4205D84B00C9184843CE
:103DA000D100884204DD10A0FDF7CAF9002010BD43
:103DB00014480E238078032201021348083113F4BB
:103DC000BBD6092101702188418061888180A1884A
:103DD000C180E188018100214181491E818113F464
:103DE000E7D6012010BD00007265717565737420FF
:103DF000706172616D6574657273206572726F7245
:103E00000D0A0000A84C00200E0E0000F0B5CBB04B
:103E10000746FF2129316846FCF7E5F91C4E707C06
:103E2000B469002832D000F037F869468870B17C58
:103E30006D4688420BD23A2148430246211D281D77
:103E4000FCF7B8F969468878401C887008E03A2188
:103E5000401E4843024621463E31281DFCF7AAF980
:103E6000694688783A21484340190A463946363827
:103E7000FCF7A0F9074869460880B069FCF738FFED
:103E8000FF2227326946B069FCF75CFF4BB0F0BDFA
:103E9000084C00203412000010B5084A084B906905
:103EA00001888478994206D1917CA14204D20024F1
:103EB000FCF71EFF00E00024204610BD084C002047
:103EC000341200000B4610B504493A228969504368
:103ED00041181846091DFCF76DF910BD084C00206B
:103EE00010B590B004463C216846FCF77CF9FFF71A
:103EF000D3FF401EC0B26946FFF7E4FF08A8807CEC
:103F0000A0710CA9062220460331FCF753F910B02A
:103F100010BD10B590B004463C216846FCF763F92B
:103F2000FFF7BAFF401EC0B26946FFF7CBFF08A8F3
:103F3000007CA0710AA9062220460231FCF73AF95A
:103F400010B010BD10B590B004463C216846FCF797
:103F50004AF9FFF7A1FF401EC0B26946FFF7B2FF62
:103F60000AA9062220460231FCF724F908A8007CA1
:103F7000A071204606A9102208300231FCF71AF978
:103F80000748C17820461830012904D01021FCF7D9
:103F90002AF910B010BD10220249FCF70BF9F8E71E
:103FA0002C4D0020B74C002070B590B00D46064651
:103FB000FFF772FF002D24D0854222D81823032258
:103FC0000721114813F4B8D50446172020700120AA
:103FD000607006223146A01CFCF7ECF83C216846D4
:103FE000FCF701F96D1EE8B26946FFF76BFF20464A
:103FF00006A9102208300231FCF7DCF8204613F441
:10400000D7D510B070BD0000140D000070B590B091
:104010000C4606463C216846FCF7E5F8FFF73CFFF6
:10402000012C02D00AAD023515E0104A411ED171B3
:1040300001463046FFF7B8FF10B070BD441EE0B235
:104040006946FFF73FFF062229463046FCF7D6F8BF
:10405000002803D0E0B20028F0D1EDE7034806A91C
:1040600010221F300231FCF7A5F8E5E7A84C00202C
:104070000C48C18F0A2914D90B48C26903041A439A
:10408000C26109484030426801231A43426008482F
:10409000064A0260032242608160064901600649C7
:1040A00001607047E84C00200010024055550000A8
:1040B00000300040AAAA0000CCCC00003EB5002091
:1040C000FCF760FEFCF7C6FB0A4C2046FCF764FCDC
:1040D000E1204002009008216A4691808901118107
:1040E000002151810220D08069462046FCF76CFCFB
:1040F0003EBD0000004800407CB51F4C2068800396
:10410000FCD51E4D687FFFF7C3FB606A5021084055
:10411000402802D11AA0FDF713F8606A0126304347
:104120006062606AB0436062FFF7A2FF684627F4EE
:1041300095D21D4900980860687F032813D000F0CD
:10414000E5F8206BFF21090288432063206B3F21A3
:10415000490208432063206B30432063012203217E
:10416000124813F4ABD700210120FCF72FFD0021EA
:104170000A20FCF72BFD7CBD00100240084D0020FA
:1041800049574447525354206973207365742C2057
:1041900072657365742066726F6D204957444721BC
:1041A00021210D0A0000000048400020010F0000FE
:1041B00070B58CB00AA827F451D22F490024886A20
:1041C000C96A0A9A0123811A09010909DB06994281
:1041D00003D9101A000100094142284D40290CDC86
:1041E0006888002809D0401E6880142203212448D2
:1041F00013F464D700200CB070BD20483C38FFF7A2
:1042000005FEFF20F53068801EA0FCF799FF2821ED
:104210006846FBF7E8FF1949062212396846FBF7A2
:10422000C9FF164D68461C3D2E7C86711022A91FC1
:1042300002A8FBF7BFFF1848C078012809D00694F0
:1042400007940894099401241448002EC47307D0DD
:104250000DE012491022113906A8FBF7ABFFF2E777
:10426000A87C002803D001216846FFF7E9FA0B4833
:1042700060300470BEE70000C0800240084C00209F
:10428000040F0000426F6E6420696E666F207374C5
:104290006F7265640D0A00002C4D0020C84C002090
:1042A00002480078002800D001207047084C002008
:1042B0000148007970470000084C0020FEB5124C00
:1042C00001461C22201DFBF775FF607C002818D0DA
:1042D000002569460D72FCF71DFDFFF7DDFD6946FF
:1042E0000872E0690126002806D000950E7002A829
:1042F0000190E169684688476846007A002801D045
:104300002670FEBD2570FEBD084C002004490868DB
:10431000401C0860012801D0012070470020704730
:104320002440002003490868002802D0401E08608D
:10433000012070472440002030B5102816D20C4CC4
:1043400083001B199D6989032D0B2D03090D0D4356
:104350009D619969074D920992052940920A11437E
:1043600099610122616982401143616130BD0000A1
:1043700000200240FF0FC0FFF3B5054681B00026C4
:10438000408800F0E1F801000AD01C4F6A88002044
:1043900014234343DB195B8A934203D142262AE06C
:1043A000402628E0401CC0B20A28F1D3002E22D1BA
:1043B000002414206043C019408AFF2806D0641CE2
:1043C000E4B20A2CF5D30A2C14D014E028460830A5
:1043D000009014206043C0190E686B78AA880746C5
:1043E000A91DB0470600EED1688878820298398A04
:1043F0000180E8E74B263046FEBD0000B04A0020B1
:1044000002885004400CD20B01D0090208437047C7
:1044100010B50024094A214614234B439B185B8A9C
:10442000834204D1142041438818C46803E0491C26
:10443000C9B20A29F0D3204610BD0000B04A0020BE
:1044400030B5FF23040AC5B20949002014224243B3
:104450005218128AAA4204D1142250434018438AA7
:1044600003E0401CC0B20A28F0D32002184330BD3C
:10447000B04A0020074A11780A2909D2C90009C8A0
:1044800089188B6048601078401C107001207047BC
:1044900000207047784B002030B5FF23040AC5B2D6
:1044A00009490020142242435218528AAA4204D1D8
:1044B000142250434018038A03E0401CC0B20A286B
:1044C000F0D32002184330BDB04A0020F8B50500F3
:1044D00001D11C4908701B4E0024C83E002D04D099
:1044E000012D1ED0022D28D10DE01421204661435C
:1044F00009308F193882C0B213F44CD43946387C55
:1045000013F42ED419E0142060438719788A00F040
:104510001BF8002802D0416838468847387C13F4DD
:104520005DD4224614214A4300209119FF23C8601C
:104530004B82B050486008814881641CE4B20A2C68
:10454000CCD3F8BD784B002070B501460020CDB229
:104550000446074E08E0E10089198A88AA4201D181
:1045600088688047641CE4B23178A142F3D870BDFA
:10457000784B00200748084A41688918074A914249
:1045800006D2074982680A63C2684A630069886381
:10459000704700000C4000206F2895FFAF590F00B6
:1045A000C0260240004870471053000110B5012496
:1045B00000206407206013F415D22E4802882E488C
:1045C0000168002013F49AD22C4802882C48016814
:1045D000012013F493D22B48008882B22A48016844
:1045E000022013F48BD22948008882B2284801683F
:1045F000032013F483D22748416AF0221143416219
:10460000254826F46DD22648244901602549416198
:10461000254981602549C160254981612549C161DC
:104620001F49254840398863FEF7DEFD2068C0B287
:1046300004F4E0D421480078002806D0002026F4B5
:1046400095D5014600200BF44BD42068C0B20CF481
:10465000E9D3FBF7C5FF2068C0B226F413D3206866
:10466000C0B226F41DD32068C0B226F4DBD40120EA
:10467000206010BD1C010020180100202401002032
:104680002001002034010020300100202C010020F6
:1046900028010020402502407402002050025000F2
:1046A0008080024000080F0058086A0042050000A0
:1046B0000F0505060F000F034000D0006200002028
:1046C000F8B5064608680025801944082219801AA2
:1046D00008600C480068FBF77FFE00220A4BFBF7DE
:1046E00003FE0746009130463E21FBF77FFF00198D
:1046F0006941FBF77FFE3A46009BFBF78DFDFBF718
:1047000087FEF8BD9000002000408F4010B50D4995
:10471000C869800715D50220086200F01DF8FEF771
:1047200063FD09480A4A0078410041180748081803
:104730004178D161064980784031C8600549002040
:10474000087010BD008002400C400020044D0001A4
:104750004025024080000020F8B5184CA56B0820C9
:1047600026F4A8D5012026F4B3D515492846FFF72D
:10477000A7FF144F06463A460023FBF7D9FC05462F
:104780003946FBF733FF1049301A081A81B2220468
:104790000A482A43403042600160206B0821884368
:1047A00008432063A069072109078843A061A16924
:1047B000012081430143A1612062F8BD00800240D5
:1047C000B8020020710200007002000070B50C46B3
:1047D0000546094E0AE029783046FCF7ADFC402139
:1047E0003046FCF75DFC0028F9D06D1C2046641EA5
:1047F000A4B20028EFD170BD0038014040BA704724
:10480000C0BA70470138FDD170470000F7B50325E5
:10481000AD06286A82B016460C4640084000286261
:10482000286A022108432862286A8007FCD466208F
:10483000686001272F61A86AC005FCD599206860CF
:104840002F61A86AC005FCD5FF209130FFF7DAFF81
:10485000FF230133AB626846EF60352169602F6149
:10486000A96AC905FCD5AB62A969EF60C9B2052286
:104870006A602F61AA6AD205FCD5AB62AA690902F7
:10488000D2B211430180C80702D0032005B0F0BDA9
:10489000AB626869FF210831884368616869C91E95
:1048A0000843686102980002483068600820A860E8
:1048B000EE602F61A86AC005FCD5FF200130A86218
:1048C0000023F61CB0080ED0B20811480068990009
:1048D0006054060A09194E70060C000E8E705B1C9F
:1048E000C8709A42F1D8FF200130A8626869FF21A0
:1048F000083188436861686938436861286A8008BC
:1049000080002862286A38432862002005B0F0BD84
:104910008000000C032080064169FF220832914389
:104920004161426901210A434261026A9208920090
:104930000262026A0A4302627047000000200321FB
:104940008906096A49084900032292061162114644
:10495000096A0222114303229206116200BF032159
:104960008906096A022211400229F8D0D1010322E6
:10497000920691620321D1609F2151600121116152
:1049800000BF03218906896AFF220132114091424A
:10499000F7D1032292069162114688694969FF2284
:1049A000083291430322920651611146496901225E
:1049B00011430322920651611146096A8908890050
:1049C00011621146096A0122114303229206116203
:1049D0007047000000000102000000000102030413
:1049E0000138FDD170470000F0B40324A406236A07
:1049F0005B085B002362236A02252B432362236A40
:104A00009B07FCD4FF230133A3626569DE1DB54318
:104A1000656165691E1D3543656100026B3060602C
:104A20000820A060E26001262661A06AC005FCD5CE
:104A3000A3620023D21C90080ED095080F4800688E
:104A40009A008854070A52185770070C000E977086
:104A50005B1CD0709D42F1D86069FF21083188430A
:104A60006061606930436061206A80088000206274
:104A7000206A30432062F0BC002070478000000CA8
:104A8000F8B5064601200025C004864201D905205C
:104A9000F8BD0324A406206A400840002062206A72
:104AA000022108432062206A8007FCD4FF270137D7
:104AB000A76200F0BBF8002801D0032515E006200E
:104AC000606001212161A06AC005FCD5A7623002A7
:104AD000203060602161A06AC005FCD5A7620C4847
:104AE00000F0C8F8002800D102256069FF210831D4
:104AF000884360616069012108436061206A800821
:104B000080002062206A084320622846F8BD000029
:104B1000E6960100F7B506460120C00482B01546AE
:104B2000864202D9052005B0F0BD03208006016A47
:104B3000490849000162016A022211430162016AC7
:104B40008907FCD4FF2101318162F2B28C1AA5429F
:104B500000D8ACB20398009000F068F8002840D16B
:104B600006214806416001210161816AC905FCD521
:104B7000FF2101310320800681624169FF22083252
:104B80009143416141690422114341613102323153
:104B90004160C4600022002C16D9009887183B7829
:104BA000F87819467B7800061B021943BB781B0472
:104BB000194301430802F978000A09060843194914
:104BC0000860121DA242E8D3012103208006016182
:104BD000816AC905FCD5FF2101318162124800F0CC
:104BE00049F8A54209D00398361900192D1BFF2456
:104BF00001340390A542ADD8ABE70320800641699C
:104C0000FF22083291434161416901221143416110
:104C1000016A890889000162016A1143016200206A
:104C200005B0F0BD8000000C1A06000038B4012564
:104C3000032080066A46C560352141600561816AAE
:104C4000C905FCD5FF24013484628169C560CBB2FB
:104C5000052141600561816AC905FCD584628069CE
:104C60001902C0B2014388B21180C00700D00120F0
:104C700038BC7047F8B400210125032292066B4628
:104C8000D560352454601561946AE405FCD5FF278E
:104C9000013797629469D560E4B2052656601561C4
:104CA000966AF605FCD5976296692402F6B23443FB
:104CB0001C80E30722D0814202D9F8BC0020704753
:104CC000032292066B46D560352454601561491C59
:104CD000946AE405FCD597629469D560E4B2052630
:104CE00056601561966AF605FCD5976292692402B2
:104CF000D2B21443A2B21C80D207DCD1F8BC01208E
:104D00007047000000171300171000170E00170956
:104D100000170400170000171801171401171501D8
:104D200017190000002800020000000003280002FC
:104D300000000000292A00020080800003280002F1
:104D400000000000242A00020080800003280002E6
:104D500000000000252A00020080800003280002D5
:104D600000000000272A00020080800003280002C3
:104D700000000000262A00020080800003280002B4
:104D800000000000282A00020080800003280002A2
:104D900000000000232A000200800800032800020F
:104DA000000000002A2A00020080080003280002F8
:104DB00000000000502A000200800700191E0001B8
:104DC000BB1D0001B91D0001911D00010014000070
:104DD000A91E0001130C0000F530000103140000AF
:104DE000651F0001FFFF0000E51A0001130E00001F
:104DF000DD230001150E000009230001170E00003D
:104E000079280001190E000055280001E44D000129
:104E100005000000F7B586B0002002905C481546FA
:104E200004695C480E46824201D9054602E0002D25
:104E300000D10125002C08D0A1880698814204D118
:104E4000E088B04201D1012002905348039084468B
:104E50000698010431430020002C1CD00A0CA788BE
:104E60008BB2974207D1E7889F4204D1002807D030
:104E70002168016007E020462468002CEFD10AE099
:104E8000614622680A602168002902D00020206063
:104E900001E061464860002C07D10221102000F09B
:104EA00095F8069981800446C6802801052100F006
:104EB00077F807467D200E464643EFF31085012024
:104EC00080F31088684600F087F885F31088009812
:104ED0000490C0190501019927202D098E190001A0
:104EE0000591864203D96D1C2D012D09361AE66005
:104EF000A5600398294F86460020844670460068C6
:104F0000002813D0A268E1680091C368816801930A
:104F1000531A1B011B09BB420AD2914203D1019AC9
:104F20000099914204D984460068E9E772465460CA
:104F300020606046002801D0046001E071460C60EA
:104F4000134802990069002901D1A04203D1C16828
:104F5000806800F047F8EFF31084012080F3108898
:104F600002A800F039F884F310880399029801919F
:104F7000291A090109090090B94204D2A84205D1B1
:104F80000198864202D8032000F032F809B0F0BD43
:104F9000C8010020FFFF7F02D8010020FFFFFF07AC
:104FA00030B50B46014600202022012409E00D46C1
:104FB000D5409D4205D31D469540491B2546954049
:104FC00040191546521E002DF1DC30BD03B40148D6
:104FD000019001BD2D7A010003B40148019001BD8B
:104FE0005DB6020003B40148019001BD9DB6020008
:104FF00003B40148019001BDAD78010030B4C3682D
:1050000082688868084D141A2401C9682409AC42D2
:1050100003D2904204D18B4202D830BC01207047A9
:1050200030BC002070470000FFFFFF070A0C838898
:1050300089B2934204D1C088884201D101207047CF
:105040000020704770B4054600680022002810D088
:105050000B0C86888CB29E4207D1C688A64204D12A
:105060000168002A07D0116006E0024600680028A7
:10507000EFD170BC704729600168002903D000217E
:10508000016070BC70476A6070BC7047F0B5104F2B
:10509000026886460025002A10D0C8688C6893688C
:1050A0008446E01A00010009D668B84208D2A3423B
:1050B00001D1B44504D915461268ECE77046416049
:1050C0000A60002D01D02960F0BD70460160F0BD7E
:1050D000FFFFFF0770B584B004460E46EFF310855E
:1050E000012080F3108802A8FFF776FF85F310886F
:1050F00002980399024600900191A01A0001074905
:105100000009884204D2A24205D10198864202D801
:10511000012004B070BD002004B070BDFFFFFF0788
:1051200030B583B00446EFF31085012080F310887A
:105130006846FFF751FF85F3108801990098616078
:10514000206003B030BD00006E735F48617264463A
:1051500061756C745F48616E646C65720000002854
:105160000002000000000328000200000000002AE6
:10517000000A008020000328000200000000012A2D
:105180000002008002000328000200000000042A40
:105190000002008008000328000200000000A62A88
:1051A0000002008001000328000200000000C92A5C
:1051B0000002008001000028000200000000032817
:1051C000000200000000052A0020008004000229DF
:1051D000000A000002000328000200000000292B42
:1051E000000A0080100003280002000000002A2BA3
:1051F0000002008010006761706D5F636D705F6515
:1052000076745F68616E646C657200676170635F7D
:10521000636F6E6E656374696F6E5F7265715F69EF
:105220006E645F68616E646C65720000FFFF000071
:1052300061190001A40D0000392B0001A50D00002B
:105240006D2B00011A0D00005D300001150D0000EE
:10525000C92B0001000D0000F12B00011C0D000006
:1052600071300001A70D0000CD2F0001A80D000036
:105270007D300001020C0000AD300001000C000088
:1052800089300001010E0000512600010F0E0000C0
:10529000752A0001110E0000D52A00012C0E000015
:1052A000592A0001030E0000C12700010A0E000068
:1052B000AD290001300E0000292A00010C0E00006B
:1052C000F92A0001000E0000C9250001090E0000A6
:1052D000ED250001010F0000391A0001020F000046
:1052E000BD170001030F00001D1A0001040F00008C
:1052F000B14100012C520001364700200100190085
:1053000002140000E11F0001005300010100000031
:105310006D2100019D220001D1200001CF2000015C
:10532000666C6173685F7574696C735F72656164E4
:10533000000000005453000100400020540700000A
:10534000740500014C590001544700209C0F0000D7
:10535000F02A0000A200011005A00000FF01A11327
:1053600052011B000651C20200200001302B11D84F
:105370000D490868496813F008FB0498EFF78EFFA1
:105380000446C1888088FF22FFF79DFD2046FFF775
:105390003AFCB3E705B0F0BD9C100707D801002028
:1053A000C804202930D70200004B1847FBFD0646F1
:1053B0000520307075800099B181301D3946E5F7C0
:1053C00073FD3046F9F70EFF0E22294642200445B0
:1053D000FD074030112E0CD0534B052203212846E7
:1053E000FDF733FE121E40274B75002D05D0398F77
:1053F000002902D00099897900E000211176FAF79E
:105400004BF8044D2859F9F7FBFE00202851801075
:1054100006000400200777107838B5049C0094013A
:105420004CA04738BD5143F84A26468F18394620CC
:1054300036FD6D707D80311191C97FA0370E9122AC
:1054400046397815320F92F14A109203292BD00079
:105450002873D0F17D0F980CF00DF800286FD068FC
:105460008869460883F0B597B008780C460F90001D
:105470002014900F9848214843FE492246401806C0
:105480004680361090F17F0091C56DA030169001D6
:105490004E100A274612922037F74A1552146C2AEA
:1054A000D061783C2949D0432947D0787D00287DB8
:1054B000D0F97D129800F0FCF9002878D06988684E
:1054C000468184687A297A000409020843E9790848
:1054D000430690A97A08A84172E97A8172297BC1B2
:1054E0007229460D310E380E9100F02FFAA878403F
:1054F0000733D5002132E0907E012806D0507E404F
:105500001E0006000E507603D006143004DB48015E
:1055100006141200F0D2F9169A01211170A978D45C
:1055200048C9075C3690264823594308180022A032
:10553000300270FF20F07752E001220270A878CC90
:1055400049C0074CD00098482358434020101442CB
:10555000E0E97C08A80173297D4173697D8173A905
:105560007DC108100D0174297E4174697E8174B17A
:1055700089BC102281F189C181318A018210994050
:10558000318A8F8283C98F0184B188C183F18841B8
:10559000840021C18442241472B848817808A8C1CB
:1055A0007401E04DE11BE002260675C821CC140C05
:1055B00002D4E87A800705D5297B0E14300A7EF9DB
:1055C00008A9087503A90F0C1412002801D1169818
:1055D000067060783C2870D030E1628A143D0A82FF
:1055E000A2884A82A2790A75E2794A75207A88757A
:1055F000E07EC875A08B0883E08B4883208C88836D
:10560000608CC8832146243108A800F0A4F9787A78
:1056100008A94871B87A8871A08DC8140585206BD7
:105620000BC210050C90012018103F75387D0875CD
:10563000B87D8875A878C006C017401CC8758E480C
:105640006946028A0A87428A4A87827D08A90A77C0
:10565000C27D4A77027E8A77428B10A90A80828BAC
:105660004A80807F087104A900A4380432F9000A36
:1056700014487C49401803907C30129900F05DF981
:105680000398F97D8030817003990922A0310A7056
:105690000121C170039800218166E18B49004166B8
:1056A0000521C166016715996030C97E002904D0C3
:1056B00072498161012102E02ABA4809816181753C
:1056C0000099818224400DF6F8022802D2012100BF
:1056D000F003F912201B05F906280CD20A215F4AB3
:1056E00041438918FF318131497F890703D5FA7D0C
:1056F0007C23FCF8961005FFF81699E035C41A01D2
:10570000AE1818092000F0FBF821460F3105910072
:10571000284ED020233E22002156241C06F6F806EF
:10572000460A96031714986C1ED03A04200EE03CEB
:1057300020707001203071009870801620052CD0E8
:10574000B01D5A2407F2F8F87D7071AC201306D50D
:105750002146304609310C3000F0E7F803E03046CE
:105760000A12DD2025C8100630461230053032DA24
:105770001A12121A1406D0F8E08B309A16709A2872
:1057800013B083B87AB077304600F0BFF83AE0281B
:105790007B7071DC2007B01D00F0C2F8163006B433
:1057A000F83DE0149E1A2EC23008A7F801210646E3
:1057B000019E120D9E300470703198200BF87D828E
:1057C0000709D57171B01D6A3004A5F80AB6400BFF
:1057D00030461DE0C007C00F7071B2129978100BEF
:1057E000B081208CF081608C308278227462300429
:1057F00083F80660121660302477F81421017000D7
:10580000994180B97D017100F075F81598807E028C
:105810002826D160781499084322D0082C120B2C2A
:10582000100461F8122C1C0C617841702978817089
:105830000FE04064041C06C00600200A6E05123901
:105840000412400C1D88031C0820B1A201000411A1
:10585000A4051007998180397E81563C064AF800DC
:1058600020171805100640BA7047C004600D03B435
:105870000148019001BD919B02000C83E1980C83CB
:105880007D9F0C700449FA010C8309D30C836D5B76
:1058900024933D99488290488355073083D59C30A6
:1058A00083397B181F796D3A0610222101804180CF
:1058B000818070470A7802704B7843708A788270D2
:1058C000CA78C2700B7903714A7942711A20046850
:1058D00002600E0F34704740063414497B41700556
:1058E00070F1F7F3FC2068F1F7A4FB256003141BAB
:1058F0002400761C0980024080C10240062B066409
:1059000019F8B54E784821F0B248432349214D415A
:10591000180C46AA7EA0340027282C22EDC30200D2
:1059200010B5074CE069000408D5FFF7F3FF054800
:105930000078002802D10120C00320621000061167
:0C5940005012C6580F1CF4010A070000AA
:04000005010000C135
:00000001FF
